{
  "_format": "hh-sol-artifact-1",
  "contractName": "SpaceCoin",
  "sourceName": "contracts/SpaceCoin.sol",
  "abi": [
    {
      "inputs": [
        {
          "internalType": "uint256",
          "name": "initialSupply",
          "type": "uint256"
        }
      ],
      "stateMutability": "nonpayable",
      "type": "constructor"
    },
    {
      "anonymous": false,
      "inputs": [
        {
          "indexed": true,
          "internalType": "address",
          "name": "owner",
          "type": "address"
        },
        {
          "indexed": true,
          "internalType": "address",
          "name": "spender",
          "type": "address"
        },
        {
          "indexed": false,
          "internalType": "uint256",
          "name": "value",
          "type": "uint256"
        }
      ],
      "name": "Approval",
      "type": "event"
    },
    {
      "anonymous": false,
      "inputs": [
        {
          "indexed": true,
          "internalType": "address",
          "name": "previousOwner",
          "type": "address"
        },
        {
          "indexed": true,
          "internalType": "address",
          "name": "newOwner",
          "type": "address"
        }
      ],
      "name": "OwnershipTransferred",
      "type": "event"
    },
    {
      "anonymous": false,
      "inputs": [
        {
          "indexed": true,
          "internalType": "address",
          "name": "from",
          "type": "address"
        },
        {
          "indexed": true,
          "internalType": "address",
          "name": "to",
          "type": "address"
        },
        {
          "indexed": false,
          "internalType": "uint256",
          "name": "value",
          "type": "uint256"
        }
      ],
      "name": "Transfer",
      "type": "event"
    },
    {
      "inputs": [
        {
          "internalType": "address",
          "name": "_address",
          "type": "address"
        }
      ],
      "name": "addWhitelisted",
      "outputs": [],
      "stateMutability": "nonpayable",
      "type": "function"
    },
    {
      "inputs": [
        {
          "internalType": "address",
          "name": "owner",
          "type": "address"
        },
        {
          "internalType": "address",
          "name": "spender",
          "type": "address"
        }
      ],
      "name": "allowance",
      "outputs": [
        {
          "internalType": "uint256",
          "name": "",
          "type": "uint256"
        }
      ],
      "stateMutability": "view",
      "type": "function"
    },
    {
      "inputs": [
        {
          "internalType": "address",
          "name": "spender",
          "type": "address"
        },
        {
          "internalType": "uint256",
          "name": "amount",
          "type": "uint256"
        }
      ],
      "name": "approve",
      "outputs": [
        {
          "internalType": "bool",
          "name": "",
          "type": "bool"
        }
      ],
      "stateMutability": "nonpayable",
      "type": "function"
    },
    {
      "inputs": [
        {
          "internalType": "address",
          "name": "account",
          "type": "address"
        }
      ],
      "name": "balanceOf",
      "outputs": [
        {
          "internalType": "uint256",
          "name": "",
          "type": "uint256"
        }
      ],
      "stateMutability": "view",
      "type": "function"
    },
    {
      "inputs": [],
      "name": "chargeTax",
      "outputs": [],
      "stateMutability": "nonpayable",
      "type": "function"
    },
    {
      "inputs": [],
      "name": "contribute",
      "outputs": [],
      "stateMutability": "payable",
      "type": "function"
    },
    {
      "inputs": [],
      "name": "decimals",
      "outputs": [
        {
          "internalType": "uint8",
          "name": "",
          "type": "uint8"
        }
      ],
      "stateMutability": "view",
      "type": "function"
    },
    {
      "inputs": [
        {
          "internalType": "address",
          "name": "spender",
          "type": "address"
        },
        {
          "internalType": "uint256",
          "name": "subtractedValue",
          "type": "uint256"
        }
      ],
      "name": "decreaseAllowance",
      "outputs": [
        {
          "internalType": "bool",
          "name": "",
          "type": "bool"
        }
      ],
      "stateMutability": "nonpayable",
      "type": "function"
    },
    {
      "inputs": [],
      "name": "getBalance",
      "outputs": [
        {
          "internalType": "uint256",
          "name": "",
          "type": "uint256"
        }
      ],
      "stateMutability": "view",
      "type": "function"
    },
    {
      "inputs": [],
      "name": "getPhase",
      "outputs": [
        {
          "internalType": "enum Phase",
          "name": "",
          "type": "uint8"
        }
      ],
      "stateMutability": "view",
      "type": "function"
    },
    {
      "inputs": [
        {
          "internalType": "address",
          "name": "spender",
          "type": "address"
        },
        {
          "internalType": "uint256",
          "name": "addedValue",
          "type": "uint256"
        }
      ],
      "name": "increaseAllowance",
      "outputs": [
        {
          "internalType": "bool",
          "name": "",
          "type": "bool"
        }
      ],
      "stateMutability": "nonpayable",
      "type": "function"
    },
    {
      "inputs": [],
      "name": "name",
      "outputs": [
        {
          "internalType": "string",
          "name": "",
          "type": "string"
        }
      ],
      "stateMutability": "view",
      "type": "function"
    },
    {
      "inputs": [],
      "name": "owner",
      "outputs": [
        {
          "internalType": "address",
          "name": "",
          "type": "address"
        }
      ],
      "stateMutability": "view",
      "type": "function"
    },
    {
      "inputs": [],
      "name": "renounceOwnership",
      "outputs": [],
      "stateMutability": "nonpayable",
      "type": "function"
    },
    {
      "inputs": [
        {
          "internalType": "enum Phase",
          "name": "phase",
          "type": "uint8"
        }
      ],
      "name": "setPhase",
      "outputs": [],
      "stateMutability": "nonpayable",
      "type": "function"
    },
    {
      "inputs": [],
      "name": "symbol",
      "outputs": [
        {
          "internalType": "string",
          "name": "",
          "type": "string"
        }
      ],
      "stateMutability": "view",
      "type": "function"
    },
    {
      "inputs": [],
      "name": "totalSupply",
      "outputs": [
        {
          "internalType": "uint256",
          "name": "",
          "type": "uint256"
        }
      ],
      "stateMutability": "view",
      "type": "function"
    },
    {
      "inputs": [
        {
          "internalType": "address",
          "name": "recipient",
          "type": "address"
        },
        {
          "internalType": "uint256",
          "name": "amount",
          "type": "uint256"
        }
      ],
      "name": "transfer",
      "outputs": [
        {
          "internalType": "bool",
          "name": "",
          "type": "bool"
        }
      ],
      "stateMutability": "nonpayable",
      "type": "function"
    },
    {
      "inputs": [
        {
          "internalType": "address",
          "name": "sender",
          "type": "address"
        },
        {
          "internalType": "address",
          "name": "recipient",
          "type": "address"
        },
        {
          "internalType": "uint256",
          "name": "amount",
          "type": "uint256"
        }
      ],
      "name": "transferFrom",
      "outputs": [
        {
          "internalType": "bool",
          "name": "",
          "type": "bool"
        }
      ],
      "stateMutability": "nonpayable",
      "type": "function"
    },
    {
      "inputs": [
        {
          "internalType": "address",
          "name": "newOwner",
          "type": "address"
        }
      ],
      "name": "transferOwnership",
      "outputs": [],
      "stateMutability": "nonpayable",
      "type": "function"
    }
  ],
  "bytecode": "0x60806040526000600560146101000a81548160ff0219169083151502179055506000600560156101000a81548160ff021916908315150217905550685150ae84a8cdf00000600655680821ab0d44149800006007556000600860006101000a81548160ff021916908360028111156200007d576200007c6200062c565b5b02179055503480156200008f57600080fd5b506040516200269b3803806200269b8339818101604052810190620000b59190620004a6565b6040518060400160405280600981526020017f5370616365436f696e00000000000000000000000000000000000000000000008152506040518060400160405280600481526020017f5753504300000000000000000000000000000000000000000000000000000000815250816003908051906020019062000139929190620003df565b50806004908051906020019062000152929190620003df565b50505062000175620001696200018e60201b60201c565b6200019660201b60201c565b6200018733826200025c60201b60201c565b50620006d2565b600033905090565b6000600560009054906101000a900473ffffffffffffffffffffffffffffffffffffffff16905081600560006101000a81548173ffffffffffffffffffffffffffffffffffffffff021916908373ffffffffffffffffffffffffffffffffffffffff1602179055508173ffffffffffffffffffffffffffffffffffffffff168173ffffffffffffffffffffffffffffffffffffffff167f8be0079c531659141344cd1fd0a4f28419497f9722a3daafe3b4186f6b6457e060405160405180910390a35050565b600073ffffffffffffffffffffffffffffffffffffffff168273ffffffffffffffffffffffffffffffffffffffff161415620002cf576040517f08c379a0000000000000000000000000000000000000000000000000000000008152600401620002c69062000510565b60405180910390fd5b620002e360008383620003d560201b60201c565b8060026000828254620002f7919062000560565b92505081905550806000808473ffffffffffffffffffffffffffffffffffffffff1673ffffffffffffffffffffffffffffffffffffffff16815260200190815260200160002060008282546200034e919062000560565b925050819055508173ffffffffffffffffffffffffffffffffffffffff16600073ffffffffffffffffffffffffffffffffffffffff167fddf252ad1be2c89b69c2b068fc378daa952ba7f163c4a11628f55a4df523b3ef83604051620003b5919062000532565b60405180910390a3620003d160008383620003da60201b60201c565b5050565b505050565b505050565b828054620003ed90620005c7565b90600052602060002090601f0160209004810192826200041157600085556200045d565b82601f106200042c57805160ff19168380011785556200045d565b828001600101855582156200045d579182015b828111156200045c5782518255916020019190600101906200043f565b5b5090506200046c919062000470565b5090565b5b808211156200048b57600081600090555060010162000471565b5090565b600081519050620004a081620006b8565b92915050565b600060208284031215620004bf57620004be6200068a565b5b6000620004cf848285016200048f565b91505092915050565b6000620004e7601f836200054f565b9150620004f4826200068f565b602082019050919050565b6200050a81620005bd565b82525050565b600060208201905081810360008301526200052b81620004d8565b9050919050565b6000602082019050620005496000830184620004ff565b92915050565b600082825260208201905092915050565b60006200056d82620005bd565b91506200057a83620005bd565b9250827fffffffffffffffffffffffffffffffffffffffffffffffffffffffffffffffff03821115620005b257620005b1620005fd565b5b828201905092915050565b6000819050919050565b60006002820490506001821680620005e057607f821691505b60208210811415620005f757620005f66200065b565b5b50919050565b7f4e487b7100000000000000000000000000000000000000000000000000000000600052601160045260246000fd5b7f4e487b7100000000000000000000000000000000000000000000000000000000600052602160045260246000fd5b7f4e487b7100000000000000000000000000000000000000000000000000000000600052602260045260246000fd5b600080fd5b7f45524332303a206d696e7420746f20746865207a65726f206164647265737300600082015250565b620006c381620005bd565b8114620006cf57600080fd5b50565b611fb980620006e26000396000f3fe60806040526004361061011f5760003560e01c8063715018a6116100a0578063c03afb5911610064578063c03afb59146103eb578063d7bb99ba14610414578063dd62ed3e1461041e578063eced02801461045b578063f2fde38b146104865761011f565b8063715018a6146103045780638da5cb5b1461031b57806395d89b4114610346578063a457c2d714610371578063a9059cbb146103ae5761011f565b806323b872dd116100e757806323b872dd1461020b57806326f867d514610248578063313ce5671461025f578063395093511461028a57806370a08231146102c75761011f565b806306fdde0314610124578063095ea7b31461014f57806310154bad1461018c57806312065fe0146101b557806318160ddd146101e0575b600080fd5b34801561013057600080fd5b506101396104af565b60405161014691906117da565b60405180910390f35b34801561015b57600080fd5b50610176600480360381019061017191906114f4565b610541565b60405161018391906117a4565b60405180910390f35b34801561019857600080fd5b506101b360048036038101906101ae9190611434565b61055f565b005b3480156101c157600080fd5b506101ca610633565b6040516101d7919061197c565b60405180910390f35b3480156101ec57600080fd5b506101f561063b565b604051610202919061197c565b60405180910390f35b34801561021757600080fd5b50610232600480360381019061022d91906114a1565b610645565b60405161023f91906117a4565b60405180910390f35b34801561025457600080fd5b5061025d61073d565b005b34801561026b57600080fd5b506102746107e5565b6040516102819190611997565b60405180910390f35b34801561029657600080fd5b506102b160048036038101906102ac91906114f4565b6107ee565b6040516102be91906117a4565b60405180910390f35b3480156102d357600080fd5b506102ee60048036038101906102e99190611434565b61089a565b6040516102fb919061197c565b60405180910390f35b34801561031057600080fd5b506103196108e2565b005b34801561032757600080fd5b5061033061096a565b60405161033d9190611789565b60405180910390f35b34801561035257600080fd5b5061035b610994565b60405161036891906117da565b60405180910390f35b34801561037d57600080fd5b50610398600480360381019061039391906114f4565b610a26565b6040516103a591906117a4565b60405180910390f35b3480156103ba57600080fd5b506103d560048036038101906103d091906114f4565b610b11565b6040516103e291906117a4565b60405180910390f35b3480156103f757600080fd5b50610412600480360381019061040d9190611534565b610b2f565b005b61041c610be9565b005b34801561042a57600080fd5b5061044560048036038101906104409190611461565b610d3b565b604051610452919061197c565b60405180910390f35b34801561046757600080fd5b50610470610dc2565b60405161047d91906117bf565b60405180910390f35b34801561049257600080fd5b506104ad60048036038101906104a89190611434565b610dd9565b005b6060600380546104be90611ad1565b80601f01602080910402602001604051908101604052809291908181526020018280546104ea90611ad1565b80156105375780601f1061050c57610100808354040283529160200191610537565b820191906000526020600020905b81548152906001019060200180831161051a57829003601f168201915b5050505050905090565b600061055561054e610ed1565b8484610ed9565b6001905092915050565b610567610ed1565b73ffffffffffffffffffffffffffffffffffffffff1661058561096a565b73ffffffffffffffffffffffffffffffffffffffff16146105db576040517f08c379a00000000000000000000000000000000000000000000000000000000081526004016105d2906118bc565b60405180910390fd5b600960008273ffffffffffffffffffffffffffffffffffffffff1673ffffffffffffffffffffffffffffffffffffffff168152602001908152602001600020600081548092919061062b90611b03565b919050555050565b600047905090565b6000600254905090565b60006106528484846110a4565b6000600160008673ffffffffffffffffffffffffffffffffffffffff1673ffffffffffffffffffffffffffffffffffffffff168152602001908152602001600020600061069d610ed1565b73ffffffffffffffffffffffffffffffffffffffff1673ffffffffffffffffffffffffffffffffffffffff1681526020019081526020016000205490508281101561071d576040517f08c379a00000000000000000000000000000000000000000000000000000000081526004016107149061189c565b60405180910390fd5b61073185610729610ed1565b858403610ed9565b60019150509392505050565b610745610ed1565b73ffffffffffffffffffffffffffffffffffffffff1661076361096a565b73ffffffffffffffffffffffffffffffffffffffff16146107b9576040517f08c379a00000000000000000000000000000000000000000000000000000000081526004016107b0906118bc565b60405180910390fd5b600560149054906101000a900460ff1615600560146101000a81548160ff021916908315150217905550565b60006012905090565b60006108906107fb610ed1565b848460016000610809610ed1565b73ffffffffffffffffffffffffffffffffffffffff1673ffffffffffffffffffffffffffffffffffffffff16815260200190815260200160002060008873ffffffffffffffffffffffffffffffffffffffff1673ffffffffffffffffffffffffffffffffffffffff1681526020019081526020016000205461088b91906119ce565b610ed9565b6001905092915050565b60008060008373ffffffffffffffffffffffffffffffffffffffff1673ffffffffffffffffffffffffffffffffffffffff168152602001908152602001600020549050919050565b6108ea610ed1565b73ffffffffffffffffffffffffffffffffffffffff1661090861096a565b73ffffffffffffffffffffffffffffffffffffffff161461095e576040517f08c379a0000000000000000000000000000000000000000000000000000000008152600401610955906118bc565b60405180910390fd5b6109686000611325565b565b6000600560009054906101000a900473ffffffffffffffffffffffffffffffffffffffff16905090565b6060600480546109a390611ad1565b80601f01602080910402602001604051908101604052809291908181526020018280546109cf90611ad1565b8015610a1c5780601f106109f157610100808354040283529160200191610a1c565b820191906000526020600020905b8154815290600101906020018083116109ff57829003601f168201915b5050505050905090565b60008060016000610a35610ed1565b73ffffffffffffffffffffffffffffffffffffffff1673ffffffffffffffffffffffffffffffffffffffff16815260200190815260200160002060008573ffffffffffffffffffffffffffffffffffffffff1673ffffffffffffffffffffffffffffffffffffffff16815260200190815260200160002054905082811015610af2576040517f08c379a0000000000000000000000000000000000000000000000000000000008152600401610ae99061195c565b60405180910390fd5b610b06610afd610ed1565b85858403610ed9565b600191505092915050565b6000610b25610b1e610ed1565b84846110a4565b6001905092915050565b610b37610ed1565b73ffffffffffffffffffffffffffffffffffffffff16610b5561096a565b73ffffffffffffffffffffffffffffffffffffffff1614610bab576040517f08c379a0000000000000000000000000000000000000000000000000000000008152600401610ba2906118bc565b60405180910390fd5b80600860006101000a81548160ff02191690836002811115610bd057610bcf611b7b565b5b0217905550610bb8600681905550606460078190555050565b60006002811115610bfd57610bfc611b7b565b5b600860009054906101000a900460ff166002811115610c1f57610c1e611b7b565b5b1415610ca8576000600960003373ffffffffffffffffffffffffffffffffffffffff1673ffffffffffffffffffffffffffffffffffffffff1681526020019081526020016000205411610ca7576040517f08c379a0000000000000000000000000000000000000000000000000000000008152600401610c9e9061193c565b60405180910390fd5b5b600754341115610ced576040517f08c379a0000000000000000000000000000000000000000000000000000000008152600401610ce49061185c565b60405180910390fd5b600654610cf8610633565b1115610d39576040517f08c379a0000000000000000000000000000000000000000000000000000000008152600401610d30906118dc565b60405180910390fd5b565b6000600160008473ffffffffffffffffffffffffffffffffffffffff1673ffffffffffffffffffffffffffffffffffffffff16815260200190815260200160002060008373ffffffffffffffffffffffffffffffffffffffff1673ffffffffffffffffffffffffffffffffffffffff16815260200190815260200160002054905092915050565b6000600860009054906101000a900460ff16905090565b610de1610ed1565b73ffffffffffffffffffffffffffffffffffffffff16610dff61096a565b73ffffffffffffffffffffffffffffffffffffffff1614610e55576040517f08c379a0000000000000000000000000000000000000000000000000000000008152600401610e4c906118bc565b60405180910390fd5b600073ffffffffffffffffffffffffffffffffffffffff168173ffffffffffffffffffffffffffffffffffffffff161415610ec5576040517f08c379a0000000000000000000000000000000000000000000000000000000008152600401610ebc9061181c565b60405180910390fd5b610ece81611325565b50565b600033905090565b600073ffffffffffffffffffffffffffffffffffffffff168373ffffffffffffffffffffffffffffffffffffffff161415610f49576040517f08c379a0000000000000000000000000000000000000000000000000000000008152600401610f409061191c565b60405180910390fd5b600073ffffffffffffffffffffffffffffffffffffffff168273ffffffffffffffffffffffffffffffffffffffff161415610fb9576040517f08c379a0000000000000000000000000000000000000000000000000000000008152600401610fb09061183c565b60405180910390fd5b80600160008573ffffffffffffffffffffffffffffffffffffffff1673ffffffffffffffffffffffffffffffffffffffff16815260200190815260200160002060008473ffffffffffffffffffffffffffffffffffffffff1673ffffffffffffffffffffffffffffffffffffffff168152602001908152602001600020819055508173ffffffffffffffffffffffffffffffffffffffff168373ffffffffffffffffffffffffffffffffffffffff167f8c5be1e5ebec7d5bd14f71427d1e84f3dd0314c0f7b2291e5b200ac8c7c3b92583604051611097919061197c565b60405180910390a3505050565b600073ffffffffffffffffffffffffffffffffffffffff168373ffffffffffffffffffffffffffffffffffffffff161415611114576040517f08c379a000000000000000000000000000000000000000000000000000000000815260040161110b906118fc565b60405180910390fd5b600073ffffffffffffffffffffffffffffffffffffffff168273ffffffffffffffffffffffffffffffffffffffff161415611184576040517f08c379a000000000000000000000000000000000000000000000000000000000815260040161117b906117fc565b60405180910390fd5b61118f8383836113eb565b60008060008573ffffffffffffffffffffffffffffffffffffffff1673ffffffffffffffffffffffffffffffffffffffff16815260200190815260200160002054905081811015611215576040517f08c379a000000000000000000000000000000000000000000000000000000000815260040161120c9061187c565b60405180910390fd5b8181036000808673ffffffffffffffffffffffffffffffffffffffff1673ffffffffffffffffffffffffffffffffffffffff16815260200190815260200160002081905550816000808573ffffffffffffffffffffffffffffffffffffffff1673ffffffffffffffffffffffffffffffffffffffff16815260200190815260200160002060008282546112a891906119ce565b925050819055508273ffffffffffffffffffffffffffffffffffffffff168473ffffffffffffffffffffffffffffffffffffffff167fddf252ad1be2c89b69c2b068fc378daa952ba7f163c4a11628f55a4df523b3ef8460405161130c919061197c565b60405180910390a361131f8484846113f0565b50505050565b6000600560009054906101000a900473ffffffffffffffffffffffffffffffffffffffff16905081600560006101000a81548173ffffffffffffffffffffffffffffffffffffffff021916908373ffffffffffffffffffffffffffffffffffffffff1602179055508173ffffffffffffffffffffffffffffffffffffffff168173ffffffffffffffffffffffffffffffffffffffff167f8be0079c531659141344cd1fd0a4f28419497f9722a3daafe3b4186f6b6457e060405160405180910390a35050565b505050565b505050565b60008135905061140481611f45565b92915050565b60008135905061141981611f5c565b92915050565b60008135905061142e81611f6c565b92915050565b60006020828403121561144a57611449611bd9565b5b6000611458848285016113f5565b91505092915050565b6000806040838503121561147857611477611bd9565b5b6000611486858286016113f5565b9250506020611497858286016113f5565b9150509250929050565b6000806000606084860312156114ba576114b9611bd9565b5b60006114c8868287016113f5565b93505060206114d9868287016113f5565b92505060406114ea8682870161141f565b9150509250925092565b6000806040838503121561150b5761150a611bd9565b5b6000611519858286016113f5565b925050602061152a8582860161141f565b9150509250929050565b60006020828403121561154a57611549611bd9565b5b60006115588482850161140a565b91505092915050565b61156a81611a24565b82525050565b61157981611a36565b82525050565b61158881611a8c565b82525050565b6000611599826119b2565b6115a381856119bd565b93506115b3818560208601611a9e565b6115bc81611bde565b840191505092915050565b60006115d46023836119bd565b91506115df82611bef565b604082019050919050565b60006115f76026836119bd565b915061160282611c3e565b604082019050919050565b600061161a6022836119bd565b915061162582611c8d565b604082019050919050565b600061163d6023836119bd565b915061164882611cdc565b604082019050919050565b60006116606026836119bd565b915061166b82611d2b565b604082019050919050565b60006116836028836119bd565b915061168e82611d7a565b604082019050919050565b60006116a66020836119bd565b91506116b182611dc9565b602082019050919050565b60006116c96017836119bd565b91506116d482611df2565b602082019050919050565b60006116ec6025836119bd565b91506116f782611e1b565b604082019050919050565b600061170f6024836119bd565b915061171a82611e6a565b604082019050919050565b6000611732601f836119bd565b915061173d82611eb9565b602082019050919050565b60006117556025836119bd565b915061176082611ee2565b604082019050919050565b61177481611a75565b82525050565b61178381611a7f565b82525050565b600060208201905061179e6000830184611561565b92915050565b60006020820190506117b96000830184611570565b92915050565b60006020820190506117d4600083018461157f565b92915050565b600060208201905081810360008301526117f4818461158e565b905092915050565b60006020820190508181036000830152611815816115c7565b9050919050565b60006020820190508181036000830152611835816115ea565b9050919050565b600060208201905081810360008301526118558161160d565b9050919050565b6000602082019050818103600083015261187581611630565b9050919050565b6000602082019050818103600083015261189581611653565b9050919050565b600060208201905081810360008301526118b581611676565b9050919050565b600060208201905081810360008301526118d581611699565b9050919050565b600060208201905081810360008301526118f5816116bc565b9050919050565b60006020820190508181036000830152611915816116df565b9050919050565b6000602082019050818103600083015261193581611702565b9050919050565b6000602082019050818103600083015261195581611725565b9050919050565b6000602082019050818103600083015261197581611748565b9050919050565b6000602082019050611991600083018461176b565b92915050565b60006020820190506119ac600083018461177a565b92915050565b600081519050919050565b600082825260208201905092915050565b60006119d982611a75565b91506119e483611a75565b9250827fffffffffffffffffffffffffffffffffffffffffffffffffffffffffffffffff03821115611a1957611a18611b4c565b5b828201905092915050565b6000611a2f82611a55565b9050919050565b60008115159050919050565b6000819050611a5082611f31565b919050565b600073ffffffffffffffffffffffffffffffffffffffff82169050919050565b6000819050919050565b600060ff82169050919050565b6000611a9782611a42565b9050919050565b60005b83811015611abc578082015181840152602081019050611aa1565b83811115611acb576000848401525b50505050565b60006002820490506001821680611ae957607f821691505b60208210811415611afd57611afc611baa565b5b50919050565b6000611b0e82611a75565b91507fffffffffffffffffffffffffffffffffffffffffffffffffffffffffffffffff821415611b4157611b40611b4c565b5b600182019050919050565b7f4e487b7100000000000000000000000000000000000000000000000000000000600052601160045260246000fd5b7f4e487b7100000000000000000000000000000000000000000000000000000000600052602160045260246000fd5b7f4e487b7100000000000000000000000000000000000000000000000000000000600052602260045260246000fd5b600080fd5b6000601f19601f8301169050919050565b7f45524332303a207472616e7366657220746f20746865207a65726f206164647260008201527f6573730000000000000000000000000000000000000000000000000000000000602082015250565b7f4f776e61626c653a206e6577206f776e657220697320746865207a65726f206160008201527f6464726573730000000000000000000000000000000000000000000000000000602082015250565b7f45524332303a20617070726f766520746f20746865207a65726f20616464726560008201527f7373000000000000000000000000000000000000000000000000000000000000602082015250565b7f4572726f723a204d6f7265207468616e20636f6e747269627574696f6e206c6960008201527f6d69740000000000000000000000000000000000000000000000000000000000602082015250565b7f45524332303a207472616e7366657220616d6f756e742065786365656473206260008201527f616c616e63650000000000000000000000000000000000000000000000000000602082015250565b7f45524332303a207472616e7366657220616d6f756e742065786365656473206160008201527f6c6c6f77616e6365000000000000000000000000000000000000000000000000602082015250565b7f4f776e61626c653a2063616c6c6572206973206e6f7420746865206f776e6572600082015250565b7f4572726f723a205068617365206c696d6974206f766572000000000000000000600082015250565b7f45524332303a207472616e736665722066726f6d20746865207a65726f20616460008201527f6472657373000000000000000000000000000000000000000000000000000000602082015250565b7f45524332303a20617070726f76652066726f6d20746865207a65726f2061646460008201527f7265737300000000000000000000000000000000000000000000000000000000602082015250565b7f4572726f723a2041646472657373206e6f7420696e2077686974656c69737400600082015250565b7f45524332303a2064656372656173656420616c6c6f77616e63652062656c6f7760008201527f207a65726f000000000000000000000000000000000000000000000000000000602082015250565b60038110611f4257611f41611b7b565b5b50565b611f4e81611a24565b8114611f5957600080fd5b50565b60038110611f6957600080fd5b50565b611f7581611a75565b8114611f8057600080fd5b5056fea2646970667358221220757991ad66b2a82ed0d5965b73961ec4ea109e04b17b79adb3920ef76e089b2864736f6c63430008070033",
  "linkReferences": {},
  "deployedLinkReferences": {}
}