{
  "_format": "hh-sol-artifact-1",
  "contractName": "SpaceCoin",
  "sourceName": "contracts/SpaceCoin.sol",
  "abi": [
    {
      "inputs": [
        {
          "internalType": "uint256",
          "name": "initialSupply",
          "type": "uint256"
        }
      ],
      "stateMutability": "nonpayable",
      "type": "constructor"
    },
    {
      "anonymous": false,
      "inputs": [
        {
          "indexed": true,
          "internalType": "address",
          "name": "owner",
          "type": "address"
        },
        {
          "indexed": true,
          "internalType": "address",
          "name": "spender",
          "type": "address"
        },
        {
          "indexed": false,
          "internalType": "uint256",
          "name": "value",
          "type": "uint256"
        }
      ],
      "name": "Approval",
      "type": "event"
    },
    {
      "anonymous": false,
      "inputs": [
        {
          "indexed": true,
          "internalType": "address",
          "name": "previousOwner",
          "type": "address"
        },
        {
          "indexed": true,
          "internalType": "address",
          "name": "newOwner",
          "type": "address"
        }
      ],
      "name": "OwnershipTransferred",
      "type": "event"
    },
    {
      "anonymous": false,
      "inputs": [
        {
          "indexed": true,
          "internalType": "address",
          "name": "from",
          "type": "address"
        },
        {
          "indexed": true,
          "internalType": "address",
          "name": "to",
          "type": "address"
        },
        {
          "indexed": false,
          "internalType": "uint256",
          "name": "value",
          "type": "uint256"
        }
      ],
      "name": "Transfer",
      "type": "event"
    },
    {
      "inputs": [
        {
          "internalType": "address",
          "name": "_address",
          "type": "address"
        }
      ],
      "name": "addWhitelisted",
      "outputs": [],
      "stateMutability": "nonpayable",
      "type": "function"
    },
    {
      "inputs": [
        {
          "internalType": "address",
          "name": "owner",
          "type": "address"
        },
        {
          "internalType": "address",
          "name": "spender",
          "type": "address"
        }
      ],
      "name": "allowance",
      "outputs": [
        {
          "internalType": "uint256",
          "name": "",
          "type": "uint256"
        }
      ],
      "stateMutability": "view",
      "type": "function"
    },
    {
      "inputs": [
        {
          "internalType": "address",
          "name": "spender",
          "type": "address"
        },
        {
          "internalType": "uint256",
          "name": "amount",
          "type": "uint256"
        }
      ],
      "name": "approve",
      "outputs": [
        {
          "internalType": "bool",
          "name": "",
          "type": "bool"
        }
      ],
      "stateMutability": "nonpayable",
      "type": "function"
    },
    {
      "inputs": [
        {
          "internalType": "address",
          "name": "account",
          "type": "address"
        }
      ],
      "name": "balanceOf",
      "outputs": [
        {
          "internalType": "uint256",
          "name": "",
          "type": "uint256"
        }
      ],
      "stateMutability": "view",
      "type": "function"
    },
    {
      "inputs": [],
      "name": "chargeTax",
      "outputs": [],
      "stateMutability": "nonpayable",
      "type": "function"
    },
    {
      "inputs": [],
      "name": "contribute",
      "outputs": [],
      "stateMutability": "payable",
      "type": "function"
    },
    {
      "inputs": [],
      "name": "decimals",
      "outputs": [
        {
          "internalType": "uint8",
          "name": "",
          "type": "uint8"
        }
      ],
      "stateMutability": "view",
      "type": "function"
    },
    {
      "inputs": [
        {
          "internalType": "address",
          "name": "spender",
          "type": "address"
        },
        {
          "internalType": "uint256",
          "name": "subtractedValue",
          "type": "uint256"
        }
      ],
      "name": "decreaseAllowance",
      "outputs": [
        {
          "internalType": "bool",
          "name": "",
          "type": "bool"
        }
      ],
      "stateMutability": "nonpayable",
      "type": "function"
    },
    {
      "inputs": [],
      "name": "getBalance",
      "outputs": [
        {
          "internalType": "uint256",
          "name": "",
          "type": "uint256"
        }
      ],
      "stateMutability": "view",
      "type": "function"
    },
    {
      "inputs": [],
      "name": "getContributionLimit",
      "outputs": [
        {
          "internalType": "uint256",
          "name": "",
          "type": "uint256"
        }
      ],
      "stateMutability": "view",
      "type": "function"
    },
    {
      "inputs": [],
      "name": "getPhase",
      "outputs": [
        {
          "internalType": "enum Phase",
          "name": "",
          "type": "uint8"
        }
      ],
      "stateMutability": "view",
      "type": "function"
    },
    {
      "inputs": [],
      "name": "getPhaseLimit",
      "outputs": [
        {
          "internalType": "uint256",
          "name": "",
          "type": "uint256"
        }
      ],
      "stateMutability": "view",
      "type": "function"
    },
    {
      "inputs": [
        {
          "internalType": "address",
          "name": "spender",
          "type": "address"
        },
        {
          "internalType": "uint256",
          "name": "addedValue",
          "type": "uint256"
        }
      ],
      "name": "increaseAllowance",
      "outputs": [
        {
          "internalType": "bool",
          "name": "",
          "type": "bool"
        }
      ],
      "stateMutability": "nonpayable",
      "type": "function"
    },
    {
      "inputs": [],
      "name": "name",
      "outputs": [
        {
          "internalType": "string",
          "name": "",
          "type": "string"
        }
      ],
      "stateMutability": "view",
      "type": "function"
    },
    {
      "inputs": [],
      "name": "owner",
      "outputs": [
        {
          "internalType": "address",
          "name": "",
          "type": "address"
        }
      ],
      "stateMutability": "view",
      "type": "function"
    },
    {
      "inputs": [],
      "name": "renounceOwnership",
      "outputs": [],
      "stateMutability": "nonpayable",
      "type": "function"
    },
    {
      "inputs": [
        {
          "internalType": "enum Phase",
          "name": "phase",
          "type": "uint8"
        }
      ],
      "name": "setPhase",
      "outputs": [],
      "stateMutability": "nonpayable",
      "type": "function"
    },
    {
      "inputs": [],
      "name": "symbol",
      "outputs": [
        {
          "internalType": "string",
          "name": "",
          "type": "string"
        }
      ],
      "stateMutability": "view",
      "type": "function"
    },
    {
      "inputs": [
        {
          "internalType": "address",
          "name": "_address",
          "type": "address"
        }
      ],
      "name": "tokenTransfer",
      "outputs": [],
      "stateMutability": "nonpayable",
      "type": "function"
    },
    {
      "inputs": [],
      "name": "totalSupply",
      "outputs": [
        {
          "internalType": "uint256",
          "name": "",
          "type": "uint256"
        }
      ],
      "stateMutability": "view",
      "type": "function"
    },
    {
      "inputs": [
        {
          "internalType": "address",
          "name": "recipient",
          "type": "address"
        },
        {
          "internalType": "uint256",
          "name": "amount",
          "type": "uint256"
        }
      ],
      "name": "transfer",
      "outputs": [
        {
          "internalType": "bool",
          "name": "",
          "type": "bool"
        }
      ],
      "stateMutability": "nonpayable",
      "type": "function"
    },
    {
      "inputs": [
        {
          "internalType": "address",
          "name": "sender",
          "type": "address"
        },
        {
          "internalType": "address",
          "name": "recipient",
          "type": "address"
        },
        {
          "internalType": "uint256",
          "name": "amount",
          "type": "uint256"
        }
      ],
      "name": "transferFrom",
      "outputs": [
        {
          "internalType": "bool",
          "name": "",
          "type": "bool"
        }
      ],
      "stateMutability": "nonpayable",
      "type": "function"
    },
    {
      "inputs": [
        {
          "internalType": "address",
          "name": "newOwner",
          "type": "address"
        }
      ],
      "name": "transferOwnership",
      "outputs": [],
      "stateMutability": "nonpayable",
      "type": "function"
    }
  ],
  "bytecode": "0x60806040526000600560146101000a81548160ff0219169083151502179055506000600560156101000a81548160ff021916908315150217905550685150ae84a8cdf00000600655681043561a88293000006007556000600860006101000a81548160ff021916908360028111156200007d576200007c6200062c565b5b02179055503480156200008f57600080fd5b5060405162002b6c38038062002b6c8339818101604052810190620000b59190620004a6565b6040518060400160405280600981526020017f5370616365436f696e00000000000000000000000000000000000000000000008152506040518060400160405280600481526020017f5753504300000000000000000000000000000000000000000000000000000000815250816003908051906020019062000139929190620003df565b50806004908051906020019062000152929190620003df565b50505062000175620001696200018e60201b60201c565b6200019660201b60201c565b6200018733826200025c60201b60201c565b50620006d2565b600033905090565b6000600560009054906101000a900473ffffffffffffffffffffffffffffffffffffffff16905081600560006101000a81548173ffffffffffffffffffffffffffffffffffffffff021916908373ffffffffffffffffffffffffffffffffffffffff1602179055508173ffffffffffffffffffffffffffffffffffffffff168173ffffffffffffffffffffffffffffffffffffffff167f8be0079c531659141344cd1fd0a4f28419497f9722a3daafe3b4186f6b6457e060405160405180910390a35050565b600073ffffffffffffffffffffffffffffffffffffffff168273ffffffffffffffffffffffffffffffffffffffff161415620002cf576040517f08c379a0000000000000000000000000000000000000000000000000000000008152600401620002c69062000510565b60405180910390fd5b620002e360008383620003d560201b60201c565b8060026000828254620002f7919062000560565b92505081905550806000808473ffffffffffffffffffffffffffffffffffffffff1673ffffffffffffffffffffffffffffffffffffffff16815260200190815260200160002060008282546200034e919062000560565b925050819055508173ffffffffffffffffffffffffffffffffffffffff16600073ffffffffffffffffffffffffffffffffffffffff167fddf252ad1be2c89b69c2b068fc378daa952ba7f163c4a11628f55a4df523b3ef83604051620003b5919062000532565b60405180910390a3620003d160008383620003da60201b60201c565b5050565b505050565b505050565b828054620003ed90620005c7565b90600052602060002090601f0160209004810192826200041157600085556200045d565b82601f106200042c57805160ff19168380011785556200045d565b828001600101855582156200045d579182015b828111156200045c5782518255916020019190600101906200043f565b5b5090506200046c919062000470565b5090565b5b808211156200048b57600081600090555060010162000471565b5090565b600081519050620004a081620006b8565b92915050565b600060208284031215620004bf57620004be6200068a565b5b6000620004cf848285016200048f565b91505092915050565b6000620004e7601f836200054f565b9150620004f4826200068f565b602082019050919050565b6200050a81620005bd565b82525050565b600060208201905081810360008301526200052b81620004d8565b9050919050565b6000602082019050620005496000830184620004ff565b92915050565b600082825260208201905092915050565b60006200056d82620005bd565b91506200057a83620005bd565b9250827fffffffffffffffffffffffffffffffffffffffffffffffffffffffffffffffff03821115620005b257620005b1620005fd565b5b828201905092915050565b6000819050919050565b60006002820490506001821680620005e057607f821691505b60208210811415620005f757620005f66200065b565b5b50919050565b7f4e487b7100000000000000000000000000000000000000000000000000000000600052601160045260246000fd5b7f4e487b7100000000000000000000000000000000000000000000000000000000600052602160045260246000fd5b7f4e487b7100000000000000000000000000000000000000000000000000000000600052602260045260246000fd5b600080fd5b7f45524332303a206d696e7420746f20746865207a65726f206164647265737300600082015250565b620006c381620005bd565b8114620006cf57600080fd5b50565b61248a80620006e26000396000f3fe6080604052600436106101405760003560e01c80638d956f1e116100b6578063cdcb68401161006f578063cdcb68401461045e578063d7bb99ba14610489578063dd62ed3e14610493578063eced0280146104d0578063f2fde38b146104fb578063fa1e19e51461052457610140565b80638d956f1e1461033c5780638da5cb5b1461036557806395d89b4114610390578063a457c2d7146103bb578063a9059cbb146103f8578063c03afb591461043557610140565b806323b872dd1161010857806323b872dd1461022c57806326f867d514610269578063313ce5671461028057806339509351146102ab57806370a08231146102e8578063715018a61461032557610140565b806306fdde0314610145578063095ea7b31461017057806310154bad146101ad57806312065fe0146101d657806318160ddd14610201575b600080fd5b34801561015157600080fd5b5061015a61054f565b6040516101679190611bdc565b60405180910390f35b34801561017c57600080fd5b50610197600480360381019061019291906118b0565b6105e1565b6040516101a49190611ba6565b60405180910390f35b3480156101b957600080fd5b506101d460048036038101906101cf91906117f0565b6105ff565b005b3480156101e257600080fd5b506101eb61071b565b6040516101f89190611dbe565b60405180910390f35b34801561020d57600080fd5b50610216610723565b6040516102239190611dbe565b60405180910390f35b34801561023857600080fd5b50610253600480360381019061024e919061185d565b61072d565b6040516102609190611ba6565b60405180910390f35b34801561027557600080fd5b5061027e610825565b005b34801561028c57600080fd5b506102956108cd565b6040516102a29190611dd9565b60405180910390f35b3480156102b757600080fd5b506102d260048036038101906102cd91906118b0565b6108d6565b6040516102df9190611ba6565b60405180910390f35b3480156102f457600080fd5b5061030f600480360381019061030a91906117f0565b610982565b60405161031c9190611dbe565b60405180910390f35b34801561033157600080fd5b5061033a6109ca565b005b34801561034857600080fd5b50610363600480360381019061035e91906117f0565b610a52565b005b34801561037157600080fd5b5061037a610ba9565b6040516103879190611b8b565b60405180910390f35b34801561039c57600080fd5b506103a5610bd3565b6040516103b29190611bdc565b60405180910390f35b3480156103c757600080fd5b506103e260048036038101906103dd91906118b0565b610c65565b6040516103ef9190611ba6565b60405180910390f35b34801561040457600080fd5b5061041f600480360381019061041a91906118b0565b610d50565b60405161042c9190611ba6565b60405180910390f35b34801561044157600080fd5b5061045c600480360381019061045791906118f0565b610d6e565b005b34801561046a57600080fd5b50610473610eac565b6040516104809190611dbe565b60405180910390f35b610491610eb6565b005b34801561049f57600080fd5b506104ba60048036038101906104b5919061181d565b6110ed565b6040516104c79190611dbe565b60405180910390f35b3480156104dc57600080fd5b506104e5611174565b6040516104f29190611bc1565b60405180910390f35b34801561050757600080fd5b50610522600480360381019061051d91906117f0565b61118b565b005b34801561053057600080fd5b50610539611283565b6040516105469190611dbe565b60405180910390f35b60606003805461055e90611f44565b80601f016020809104026020016040519081016040528092919081815260200182805461058a90611f44565b80156105d75780601f106105ac576101008083540402835291602001916105d7565b820191906000526020600020905b8154815290600101906020018083116105ba57829003601f168201915b5050505050905090565b60006105f56105ee61128d565b8484611295565b6001905092915050565b61060761128d565b73ffffffffffffffffffffffffffffffffffffffff16610625610ba9565b73ffffffffffffffffffffffffffffffffffffffff161461067b576040517f08c379a000000000000000000000000000000000000000000000000000000000815260040161067290611cfe565b60405180910390fd5b6001600960008373ffffffffffffffffffffffffffffffffffffffff1673ffffffffffffffffffffffffffffffffffffffff16815260200190815260200160002060006101000a81548160ff0219169083151502179055506000600a60008373ffffffffffffffffffffffffffffffffffffffff1673ffffffffffffffffffffffffffffffffffffffff1681526020019081526020016000208190555050565b600047905090565b6000600254905090565b600061073a848484611460565b6000600160008673ffffffffffffffffffffffffffffffffffffffff1673ffffffffffffffffffffffffffffffffffffffff168152602001908152602001600020600061078561128d565b73ffffffffffffffffffffffffffffffffffffffff1673ffffffffffffffffffffffffffffffffffffffff16815260200190815260200160002054905082811015610805576040517f08c379a00000000000000000000000000000000000000000000000000000000081526004016107fc90611cde565b60405180910390fd5b6108198561081161128d565b858403611295565b60019150509392505050565b61082d61128d565b73ffffffffffffffffffffffffffffffffffffffff1661084b610ba9565b73ffffffffffffffffffffffffffffffffffffffff16146108a1576040517f08c379a000000000000000000000000000000000000000000000000000000000815260040161089890611cfe565b60405180910390fd5b600560149054906101000a900460ff1615600560146101000a81548160ff021916908315150217905550565b60006012905090565b60006109786108e361128d565b8484600160006108f161128d565b73ffffffffffffffffffffffffffffffffffffffff1673ffffffffffffffffffffffffffffffffffffffff16815260200190815260200160002060008873ffffffffffffffffffffffffffffffffffffffff1673ffffffffffffffffffffffffffffffffffffffff168152602001908152602001600020546109739190611e10565b611295565b6001905092915050565b60008060008373ffffffffffffffffffffffffffffffffffffffff1673ffffffffffffffffffffffffffffffffffffffff168152602001908152602001600020549050919050565b6109d261128d565b73ffffffffffffffffffffffffffffffffffffffff166109f0610ba9565b73ffffffffffffffffffffffffffffffffffffffff1614610a46576040517f08c379a0000000000000000000000000000000000000000000000000000000008152600401610a3d90611cfe565b60405180910390fd5b610a5060006116e1565b565b610a5a61128d565b73ffffffffffffffffffffffffffffffffffffffff16610a78610ba9565b73ffffffffffffffffffffffffffffffffffffffff1614610ace576040517f08c379a0000000000000000000000000000000000000000000000000000000008152600401610ac590611cfe565b60405180910390fd5b6000600a60008373ffffffffffffffffffffffffffffffffffffffff1673ffffffffffffffffffffffffffffffffffffffff1681526020019081526020016000205411610b50576040517f08c379a0000000000000000000000000000000000000000000000000000000008152600401610b4790611c9e565b60405180910390fd5b610ba5816005600a60008573ffffffffffffffffffffffffffffffffffffffff1673ffffffffffffffffffffffffffffffffffffffff16815260200190815260200160002054610ba09190611e66565b610d50565b5050565b6000600560009054906101000a900473ffffffffffffffffffffffffffffffffffffffff16905090565b606060048054610be290611f44565b80601f0160208091040260200160405190810160405280929190818152602001828054610c0e90611f44565b8015610c5b5780601f10610c3057610100808354040283529160200191610c5b565b820191906000526020600020905b815481529060010190602001808311610c3e57829003601f168201915b5050505050905090565b60008060016000610c7461128d565b73ffffffffffffffffffffffffffffffffffffffff1673ffffffffffffffffffffffffffffffffffffffff16815260200190815260200160002060008573ffffffffffffffffffffffffffffffffffffffff1673ffffffffffffffffffffffffffffffffffffffff16815260200190815260200160002054905082811015610d31576040517f08c379a0000000000000000000000000000000000000000000000000000000008152600401610d2890611d9e565b60405180910390fd5b610d45610d3c61128d565b85858403611295565b600191505092915050565b6000610d64610d5d61128d565b8484611460565b6001905092915050565b610d7661128d565b73ffffffffffffffffffffffffffffffffffffffff16610d94610ba9565b73ffffffffffffffffffffffffffffffffffffffff1614610dea576040517f08c379a0000000000000000000000000000000000000000000000000000000008152600401610de190611cfe565b60405180910390fd5b600860009054906101000a900460ff166002811115610e0c57610e0b611fd4565b5b816002811115610e1f57610e1e611fd4565b5b11610e5f576040517f08c379a0000000000000000000000000000000000000000000000000000000008152600401610e5690611cbe565b60405180910390fd5b80600860006101000a81548160ff02191690836002811115610e8457610e83611fd4565b5b021790555068a2a15d09519be00000600681905550682086ac35105260000060078190555050565b6000600654905090565b60006002811115610eca57610ec9611fd4565b5b600860009054906101000a900460ff166002811115610eec57610eeb611fd4565b5b1415610f7f57600960003373ffffffffffffffffffffffffffffffffffffffff1673ffffffffffffffffffffffffffffffffffffffff16815260200190815260200160002060009054906101000a900460ff16610f7e576040517f08c379a0000000000000000000000000000000000000000000000000000000008152600401610f7590611d7e565b60405180910390fd5b5b600280811115610f9257610f91611fd4565b5b600860009054906101000a900460ff166002811115610fb457610fb3611fd4565b5b146110495760075434600a60003373ffffffffffffffffffffffffffffffffffffffff1673ffffffffffffffffffffffffffffffffffffffff168152602001908152602001600020546110079190611e10565b1115611048576040517f08c379a000000000000000000000000000000000000000000000000000000000815260040161103f90611c5e565b60405180910390fd5b5b60065461105461071b565b1115611095576040517f08c379a000000000000000000000000000000000000000000000000000000000815260040161108c90611d1e565b60405180910390fd5b34600a60003373ffffffffffffffffffffffffffffffffffffffff1673ffffffffffffffffffffffffffffffffffffffff16815260200190815260200160002060008282546110e49190611e10565b92505081905550565b6000600160008473ffffffffffffffffffffffffffffffffffffffff1673ffffffffffffffffffffffffffffffffffffffff16815260200190815260200160002060008373ffffffffffffffffffffffffffffffffffffffff1673ffffffffffffffffffffffffffffffffffffffff16815260200190815260200160002054905092915050565b6000600860009054906101000a900460ff16905090565b61119361128d565b73ffffffffffffffffffffffffffffffffffffffff166111b1610ba9565b73ffffffffffffffffffffffffffffffffffffffff1614611207576040517f08c379a00000000000000000000000000000000000000000000000000000000081526004016111fe90611cfe565b60405180910390fd5b600073ffffffffffffffffffffffffffffffffffffffff168173ffffffffffffffffffffffffffffffffffffffff161415611277576040517f08c379a000000000000000000000000000000000000000000000000000000000815260040161126e90611c1e565b60405180910390fd5b611280816116e1565b50565b6000600754905090565b600033905090565b600073ffffffffffffffffffffffffffffffffffffffff168373ffffffffffffffffffffffffffffffffffffffff161415611305576040517f08c379a00000000000000000000000000000000000000000000000000000000081526004016112fc90611d5e565b60405180910390fd5b600073ffffffffffffffffffffffffffffffffffffffff168273ffffffffffffffffffffffffffffffffffffffff161415611375576040517f08c379a000000000000000000000000000000000000000000000000000000000815260040161136c90611c3e565b60405180910390fd5b80600160008573ffffffffffffffffffffffffffffffffffffffff1673ffffffffffffffffffffffffffffffffffffffff16815260200190815260200160002060008473ffffffffffffffffffffffffffffffffffffffff1673ffffffffffffffffffffffffffffffffffffffff168152602001908152602001600020819055508173ffffffffffffffffffffffffffffffffffffffff168373ffffffffffffffffffffffffffffffffffffffff167f8c5be1e5ebec7d5bd14f71427d1e84f3dd0314c0f7b2291e5b200ac8c7c3b925836040516114539190611dbe565b60405180910390a3505050565b600073ffffffffffffffffffffffffffffffffffffffff168373ffffffffffffffffffffffffffffffffffffffff1614156114d0576040517f08c379a00000000000000000000000000000000000000000000000000000000081526004016114c790611d3e565b60405180910390fd5b600073ffffffffffffffffffffffffffffffffffffffff168273ffffffffffffffffffffffffffffffffffffffff161415611540576040517f08c379a000000000000000000000000000000000000000000000000000000000815260040161153790611bfe565b60405180910390fd5b61154b8383836117a7565b60008060008573ffffffffffffffffffffffffffffffffffffffff1673ffffffffffffffffffffffffffffffffffffffff168152602001908152602001600020549050818110156115d1576040517f08c379a00000000000000000000000000000000000000000000000000000000081526004016115c890611c7e565b60405180910390fd5b8181036000808673ffffffffffffffffffffffffffffffffffffffff1673ffffffffffffffffffffffffffffffffffffffff16815260200190815260200160002081905550816000808573ffffffffffffffffffffffffffffffffffffffff1673ffffffffffffffffffffffffffffffffffffffff16815260200190815260200160002060008282546116649190611e10565b925050819055508273ffffffffffffffffffffffffffffffffffffffff168473ffffffffffffffffffffffffffffffffffffffff167fddf252ad1be2c89b69c2b068fc378daa952ba7f163c4a11628f55a4df523b3ef846040516116c89190611dbe565b60405180910390a36116db8484846117ac565b50505050565b6000600560009054906101000a900473ffffffffffffffffffffffffffffffffffffffff16905081600560006101000a81548173ffffffffffffffffffffffffffffffffffffffff021916908373ffffffffffffffffffffffffffffffffffffffff1602179055508173ffffffffffffffffffffffffffffffffffffffff168173ffffffffffffffffffffffffffffffffffffffff167f8be0079c531659141344cd1fd0a4f28419497f9722a3daafe3b4186f6b6457e060405160405180910390a35050565b505050565b505050565b6000813590506117c081612416565b92915050565b6000813590506117d58161242d565b92915050565b6000813590506117ea8161243d565b92915050565b60006020828403121561180657611805612032565b5b6000611814848285016117b1565b91505092915050565b6000806040838503121561183457611833612032565b5b6000611842858286016117b1565b9250506020611853858286016117b1565b9150509250929050565b60008060006060848603121561187657611875612032565b5b6000611884868287016117b1565b9350506020611895868287016117b1565b92505060406118a6868287016117db565b9150509250925092565b600080604083850312156118c7576118c6612032565b5b60006118d5858286016117b1565b92505060206118e6858286016117db565b9150509250929050565b60006020828403121561190657611905612032565b5b6000611914848285016117c6565b91505092915050565b61192681611e97565b82525050565b61193581611ea9565b82525050565b61194481611eff565b82525050565b600061195582611df4565b61195f8185611dff565b935061196f818560208601611f11565b61197881612037565b840191505092915050565b6000611990602383611dff565b915061199b82612048565b604082019050919050565b60006119b3602683611dff565b91506119be82612097565b604082019050919050565b60006119d6602283611dff565b91506119e1826120e6565b604082019050919050565b60006119f9602383611dff565b9150611a0482612135565b604082019050919050565b6000611a1c602683611dff565b9150611a2782612184565b604082019050919050565b6000611a3f601683611dff565b9150611a4a826121d3565b602082019050919050565b6000611a62602483611dff565b9150611a6d826121fc565b604082019050919050565b6000611a85602883611dff565b9150611a908261224b565b604082019050919050565b6000611aa8602083611dff565b9150611ab38261229a565b602082019050919050565b6000611acb601783611dff565b9150611ad6826122c3565b602082019050919050565b6000611aee602583611dff565b9150611af9826122ec565b604082019050919050565b6000611b11602483611dff565b9150611b1c8261233b565b604082019050919050565b6000611b34601f83611dff565b9150611b3f8261238a565b602082019050919050565b6000611b57602583611dff565b9150611b62826123b3565b604082019050919050565b611b7681611ee8565b82525050565b611b8581611ef2565b82525050565b6000602082019050611ba0600083018461191d565b92915050565b6000602082019050611bbb600083018461192c565b92915050565b6000602082019050611bd6600083018461193b565b92915050565b60006020820190508181036000830152611bf6818461194a565b905092915050565b60006020820190508181036000830152611c1781611983565b9050919050565b60006020820190508181036000830152611c37816119a6565b9050919050565b60006020820190508181036000830152611c57816119c9565b9050919050565b60006020820190508181036000830152611c77816119ec565b9050919050565b60006020820190508181036000830152611c9781611a0f565b9050919050565b60006020820190508181036000830152611cb781611a32565b9050919050565b60006020820190508181036000830152611cd781611a55565b9050919050565b60006020820190508181036000830152611cf781611a78565b9050919050565b60006020820190508181036000830152611d1781611a9b565b9050919050565b60006020820190508181036000830152611d3781611abe565b9050919050565b60006020820190508181036000830152611d5781611ae1565b9050919050565b60006020820190508181036000830152611d7781611b04565b9050919050565b60006020820190508181036000830152611d9781611b27565b9050919050565b60006020820190508181036000830152611db781611b4a565b9050919050565b6000602082019050611dd36000830184611b6d565b92915050565b6000602082019050611dee6000830184611b7c565b92915050565b600081519050919050565b600082825260208201905092915050565b6000611e1b82611ee8565b9150611e2683611ee8565b9250827fffffffffffffffffffffffffffffffffffffffffffffffffffffffffffffffff03821115611e5b57611e5a611f76565b5b828201905092915050565b6000611e7182611ee8565b9150611e7c83611ee8565b925082611e8c57611e8b611fa5565b5b828204905092915050565b6000611ea282611ec8565b9050919050565b60008115159050919050565b6000819050611ec382612402565b919050565b600073ffffffffffffffffffffffffffffffffffffffff82169050919050565b6000819050919050565b600060ff82169050919050565b6000611f0a82611eb5565b9050919050565b60005b83811015611f2f578082015181840152602081019050611f14565b83811115611f3e576000848401525b50505050565b60006002820490506001821680611f5c57607f821691505b60208210811415611f7057611f6f612003565b5b50919050565b7f4e487b7100000000000000000000000000000000000000000000000000000000600052601160045260246000fd5b7f4e487b7100000000000000000000000000000000000000000000000000000000600052601260045260246000fd5b7f4e487b7100000000000000000000000000000000000000000000000000000000600052602160045260246000fd5b7f4e487b7100000000000000000000000000000000000000000000000000000000600052602260045260246000fd5b600080fd5b6000601f19601f8301169050919050565b7f45524332303a207472616e7366657220746f20746865207a65726f206164647260008201527f6573730000000000000000000000000000000000000000000000000000000000602082015250565b7f4f776e61626c653a206e6577206f776e657220697320746865207a65726f206160008201527f6464726573730000000000000000000000000000000000000000000000000000602082015250565b7f45524332303a20617070726f766520746f20746865207a65726f20616464726560008201527f7373000000000000000000000000000000000000000000000000000000000000602082015250565b7f4572726f723a204d6f7265207468616e20636f6e747269627574696f6e206c6960008201527f6d69740000000000000000000000000000000000000000000000000000000000602082015250565b7f45524332303a207472616e7366657220616d6f756e742065786365656473206260008201527f616c616e63650000000000000000000000000000000000000000000000000000602082015250565b7f4572726f723a20496e76616c6964206164647265737300000000000000000000600082015250565b7f4572726f723a204f6e6c7920466f727761726420506861736520697320616c6c60008201527f6f77656400000000000000000000000000000000000000000000000000000000602082015250565b7f45524332303a207472616e7366657220616d6f756e742065786365656473206160008201527f6c6c6f77616e6365000000000000000000000000000000000000000000000000602082015250565b7f4f776e61626c653a2063616c6c6572206973206e6f7420746865206f776e6572600082015250565b7f4572726f723a205068617365206c696d6974206f766572000000000000000000600082015250565b7f45524332303a207472616e736665722066726f6d20746865207a65726f20616460008201527f6472657373000000000000000000000000000000000000000000000000000000602082015250565b7f45524332303a20617070726f76652066726f6d20746865207a65726f2061646460008201527f7265737300000000000000000000000000000000000000000000000000000000602082015250565b7f4572726f723a2041646472657373206e6f7420696e2077686974656c69737400600082015250565b7f45524332303a2064656372656173656420616c6c6f77616e63652062656c6f7760008201527f207a65726f000000000000000000000000000000000000000000000000000000602082015250565b6003811061241357612412611fd4565b5b50565b61241f81611e97565b811461242a57600080fd5b50565b6003811061243a57600080fd5b50565b61244681611ee8565b811461245157600080fd5b5056fea26469706673582212206077c9fa5a8df49e0258e460e600755b64e307daadac1512471b3edfba61592b64736f6c63430008070033",
  "linkReferences": {},
  "deployedLinkReferences": {}
}