{
  "_format": "hh-sol-artifact-1",
  "contractName": "KickStarterFactory",
  "sourceName": "contracts/KickStarterFactory.sol",
  "abi": [
    {
      "inputs": [],
      "stateMutability": "nonpayable",
      "type": "constructor"
    },
    {
      "anonymous": false,
      "inputs": [
        {
          "indexed": false,
          "internalType": "address",
          "name": "projecId",
          "type": "address"
        }
      ],
      "name": "ProjectCreated",
      "type": "event"
    },
    {
      "inputs": [
        {
          "internalType": "string",
          "name": "name",
          "type": "string"
        },
        {
          "internalType": "uint256",
          "name": "goal",
          "type": "uint256"
        }
      ],
      "name": "createProject",
      "outputs": [
        {
          "internalType": "address",
          "name": "",
          "type": "address"
        }
      ],
      "stateMutability": "nonpayable",
      "type": "function"
    },
    {
      "inputs": [],
      "name": "owner",
      "outputs": [
        {
          "internalType": "address",
          "name": "",
          "type": "address"
        }
      ],
      "stateMutability": "view",
      "type": "function"
    },
    {
      "inputs": [
        {
          "internalType": "uint256",
          "name": "",
          "type": "uint256"
        }
      ],
      "name": "projectContracts",
      "outputs": [
        {
          "internalType": "address",
          "name": "",
          "type": "address"
        }
      ],
      "stateMutability": "view",
      "type": "function"
    }
  ],
  "bytecode": "0x608060405234801561001057600080fd5b50336000806101000a81548173ffffffffffffffffffffffffffffffffffffffff021916908373ffffffffffffffffffffffffffffffffffffffff160217905550612794806100606000396000f3fe60806040523480156200001157600080fd5b5060043610620000465760003560e01c80638da5cb5b146200004b57806391754a5d146200006d578063a3bac32a14620000a3575b600080fd5b62000055620000d9565b604051620000649190620003c3565b60405180910390f35b6200008b6004803603810190620000859190620002c8565b620000fd565b6040516200009a9190620003c3565b60405180910390f35b620000c16004803603810190620000bb91906200032e565b620001e5565b604051620000d09190620003c3565b60405180910390f35b60008054906101000a900473ffffffffffffffffffffffffffffffffffffffff1681565b600080838333604051620001119062000225565b6200011f93929190620003e0565b604051809103906000f0801580156200013c573d6000803e3d6000fd5b5090506001819080600181540180825580915050600190039060005260206000200160009091909190916101000a81548173ffffffffffffffffffffffffffffffffffffffff021916908373ffffffffffffffffffffffffffffffffffffffff1602179055507f3815a547ca4b753ae5cc6a73f3e019b6791faedad7fe0614a6e08d0bcfb137f181604051620001d39190620003c3565b60405180910390a18091505092915050565b60018181548110620001f657600080fd5b906000526020600020016000915054906101000a900473ffffffffffffffffffffffffffffffffffffffff1681565b61219880620005c783390190565b60006200024a62000244846200044d565b62000424565b9050828152602081018484840111156200026957620002686200058c565b5b62000276848285620004dd565b509392505050565b600082601f83011262000296576200029562000587565b5b8135620002a884826020860162000233565b91505092915050565b600081359050620002c281620005ac565b92915050565b60008060408385031215620002e257620002e162000596565b5b600083013567ffffffffffffffff81111562000303576200030262000591565b5b62000311858286016200027e565b92505060206200032485828601620002b1565b9150509250929050565b60006020828403121562000347576200034662000596565b5b60006200035784828501620002b1565b91505092915050565b6200036b816200049f565b82525050565b60006200037e8262000483565b6200038a81856200048e565b93506200039c818560208601620004ec565b620003a7816200059b565b840191505092915050565b620003bd81620004d3565b82525050565b6000602082019050620003da600083018462000360565b92915050565b60006060820190508181036000830152620003fc818662000371565b90506200040d6020830185620003b2565b6200041c604083018462000360565b949350505050565b60006200043062000443565b90506200043e828262000522565b919050565b6000604051905090565b600067ffffffffffffffff8211156200046b576200046a62000558565b5b62000476826200059b565b9050602081019050919050565b600081519050919050565b600082825260208201905092915050565b6000620004ac82620004b3565b9050919050565b600073ffffffffffffffffffffffffffffffffffffffff82169050919050565b6000819050919050565b82818337600083830152505050565b60005b838110156200050c578082015181840152602081019050620004ef565b838111156200051c576000848401525b50505050565b6200052d826200059b565b810181811067ffffffffffffffff821117156200054f576200054e62000558565b5b80604052505050565b7f4e487b7100000000000000000000000000000000000000000000000000000000600052604160045260246000fd5b600080fd5b600080fd5b600080fd5b600080fd5b6000601f19601f8301169050919050565b620005b781620004d3565b8114620005c357600080fd5b5056fe60806040523480156200001157600080fd5b506040516200219838038062002198833981810160405281019062000037919062000227565b82600090805190602001906200004f929190620000cb565b50816001819055504260028190555080600360006101000a81548173ffffffffffffffffffffffffffffffffffffffff021916908373ffffffffffffffffffffffffffffffffffffffff1602179055506000600560006101000a81548160ff021916908315150217905550600060048190555050505062000498565b828054620000d99062000375565b90600052602060002090601f016020900481019282620000fd576000855562000149565b82601f106200011857805160ff191683800117855562000149565b8280016001018555821562000149579182015b82811115620001485782518255916020019190600101906200012b565b5b5090506200015891906200015c565b5090565b5b80821115620001775760008160009055506001016200015d565b5090565b6000620001926200018c84620002cb565b620002a2565b905082815260208101848484011115620001b157620001b062000444565b5b620001be8482856200033f565b509392505050565b600081519050620001d78162000464565b92915050565b600082601f830112620001f557620001f46200043f565b5b8151620002078482602086016200017b565b91505092915050565b60008151905062000221816200047e565b92915050565b6000806000606084860312156200024357620002426200044e565b5b600084015167ffffffffffffffff81111562000264576200026362000449565b5b6200027286828701620001dd565b9350506020620002858682870162000210565b92505060406200029886828701620001c6565b9150509250925092565b6000620002ae620002c1565b9050620002bc8282620003ab565b919050565b6000604051905090565b600067ffffffffffffffff821115620002e957620002e862000410565b5b620002f48262000453565b9050602081019050919050565b60006200030e8262000315565b9050919050565b600073ffffffffffffffffffffffffffffffffffffffff82169050919050565b6000819050919050565b60005b838110156200035f57808201518184015260208101905062000342565b838111156200036f576000848401525b50505050565b600060028204905060018216806200038e57607f821691505b60208210811415620003a557620003a4620003e1565b5b50919050565b620003b68262000453565b810181811067ffffffffffffffff82111715620003d857620003d762000410565b5b80604052505050565b7f4e487b7100000000000000000000000000000000000000000000000000000000600052602260045260246000fd5b7f4e487b7100000000000000000000000000000000000000000000000000000000600052604160045260246000fd5b600080fd5b600080fd5b600080fd5b600080fd5b6000601f19601f8301169050919050565b6200046f8162000301565b81146200047b57600080fd5b50565b620004898162000335565b81146200049557600080fd5b50565b611cf080620004a86000396000f3fe6080604052600436106100c25760003560e01c806343d726d61161007f5780638da5cb5b116100595780638da5cb5b1461021a578063a9cc471814610245578063c6ab5d901461025c578063d7bb99ba14610278576100c2565b806343d726d6146101c9578063590e1ae3146101d35780636352211e146101dd576100c2565b806302a21460146100c757806306fdde03146100f257806317d7de7c1461011d5780632ddbd13a14610148578063325a19f114610173578063401938831461019e575b600080fd5b3480156100d357600080fd5b506100dc610282565b6040516100e991906112a5565b60405180910390f35b3480156100fe57600080fd5b50610107610295565b60405161011491906112c0565b60405180910390f35b34801561012957600080fd5b50610132610323565b60405161013f91906112c0565b60405180910390f35b34801561015457600080fd5b5061015d6103b5565b60405161016a9190611502565b60405180910390f35b34801561017f57600080fd5b506101886103bb565b6040516101959190611502565b60405180910390f35b3480156101aa57600080fd5b506101b36103c1565b6040516101c09190611502565b60405180910390f35b6101d16103c7565b005b6101db61052c565b005b3480156101e957600080fd5b5061020460048036038101906101ff9190610f3f565b61067d565b604051610211919061128a565b60405180910390f35b34801561022657600080fd5b5061022f6106ba565b60405161023c919061128a565b60405180910390f35b34801561025157600080fd5b5061025a6106e0565b005b61027660048036038101906102719190610f6c565b61088e565b005b610280610b97565b005b600560009054906101000a900460ff1681565b600080546102a2906116e1565b80601f01602080910402602001604051908101604052809291908181526020018280546102ce906116e1565b801561031b5780601f106102f05761010080835404028352916020019161031b565b820191906000526020600020905b8154815290600101906020018083116102fe57829003601f168201915b505050505081565b606060008054610332906116e1565b80601f016020809104026020016040519081016040528092919081815260200182805461035e906116e1565b80156103ab5780601f10610380576101008083540402835291602001916103ab565b820191906000526020600020905b81548152906001019060200180831161038e57829003601f168201915b5050505050905090565b60045481565b60025481565b60015481565b600360009054906101000a900473ffffffffffffffffffffffffffffffffffffffff1673ffffffffffffffffffffffffffffffffffffffff163373ffffffffffffffffffffffffffffffffffffffff1614610457576040517f08c379a000000000000000000000000000000000000000000000000000000000815260040161044e906113a2565b60405180910390fd5b62278d006002546104689190611544565b42106104a9576040517f08c379a00000000000000000000000000000000000000000000000000000000081526004016104a090611402565b60405180910390fd5b60015460045414156104f75760006104f6576040517f08c379a00000000000000000000000000000000000000000000000000000000081526004016104ed90611382565b60405180910390fd5b5b6001600560006101000a81548160ff0219169083151502179055506000600181905550600060048190555061052a61052c565b565b60005b60068054905081101561066c57600060068281548110610552576105516117e9565b5b906000526020600020906002020160000160009054906101000a900473ffffffffffffffffffffffffffffffffffffffff16905060008173ffffffffffffffffffffffffffffffffffffffff16600684815481106105b3576105b26117e9565b5b9060005260206000209060020201600101546040516105d190611275565b60006040518083038185875af1925050503d806000811461060e576040519150601f19603f3d011682016040523d82523d6000602084013e610613565b606091505b5050905080610657576040517f08c379a000000000000000000000000000000000000000000000000000000000815260040161064e90611482565b60405180910390fd5b5050808061066490611713565b91505061052f565b506006600061067b9190610eab565b565b60006008600083815260200190815260200160002060009054906101000a900473ffffffffffffffffffffffffffffffffffffffff169050919050565b600360009054906101000a900473ffffffffffffffffffffffffffffffffffffffff1681565b600360009054906101000a900473ffffffffffffffffffffffffffffffffffffffff1673ffffffffffffffffffffffffffffffffffffffff163373ffffffffffffffffffffffffffffffffffffffff1614610770576040517f08c379a0000000000000000000000000000000000000000000000000000000008152600401610767906113a2565b60405180910390fd5b600560009054906101000a900460ff16156107c0576040517f08c379a00000000000000000000000000000000000000000000000000000000081526004016107b7906113c2565b60405180910390fd5b62278d006002546107d19190611544565b4211610812576040517f08c379a0000000000000000000000000000000000000000000000000000000008152600401610809906114a2565b60405180910390fd5b6001546004541415610859576040517f08c379a000000000000000000000000000000000000000000000000000000000815260040161085090611442565b60405180910390fd5b6001600560006101000a81548160ff0219169083151502179055506000600181905550600060048190555061088c61052c565b565b600360009054906101000a900473ffffffffffffffffffffffffffffffffffffffff1673ffffffffffffffffffffffffffffffffffffffff163373ffffffffffffffffffffffffffffffffffffffff161461091e576040517f08c379a0000000000000000000000000000000000000000000000000000000008152600401610915906113a2565b60405180910390fd5b600560009054906101000a900460ff161561096e576040517f08c379a0000000000000000000000000000000000000000000000000000000008152600401610965906113c2565b60405180910390fd5b60008160ff16118015610985575060648160ff1611155b6109c4576040517f08c379a00000000000000000000000000000000000000000000000000000000081526004016109bb906114c2565b60405180910390fd5b60015460045414610a0a576040517f08c379a0000000000000000000000000000000000000000000000000000000008152600401610a0190611462565b60405180910390fd5b600060648260ff16600454610a1f91906115cb565b610a29919061159a565b905060045481108015610a3c5750600081115b610a7b576040517f08c379a0000000000000000000000000000000000000000000000000000000008152600401610a7290611322565b60405180910390fd5b80600454610a899190611625565b6004819055506000600360009054906101000a900473ffffffffffffffffffffffffffffffffffffffff1673ffffffffffffffffffffffffffffffffffffffff1682604051610ad790611275565b60006040518083038185875af1925050503d8060008114610b14576040519150601f19603f3d011682016040523d82523d6000602084013e610b19565b606091505b5050905080610b5d576040517f08c379a0000000000000000000000000000000000000000000000000000000008152600401610b5490611302565b60405180910390fd5b7fcb36594c54e38123fa4ff1ce9db90c80bc294a2101aeea2c7b172e5a9043a69c604051610b8a906114e2565b60405180910390a1505050565b600560009054906101000a900460ff1615610be7576040517f08c379a0000000000000000000000000000000000000000000000000000000008152600401610bde906113c2565b60405180910390fd5b662386f26fc10000341015610c31576040517f08c379a0000000000000000000000000000000000000000000000000000000008152600401610c2890611422565b60405180910390fd5b62278d00600254610c429190611544565b421115610c84576040517f08c379a0000000000000000000000000000000000000000000000000000000008152600401610c7b90611342565b60405180910390fd5b60015460045410610cca576040517f08c379a0000000000000000000000000000000000000000000000000000000008152600401610cc1906112e2565b60405180910390fd5b600034905060015481600454610ce09190611544565b1115610db157600454600154610cf69190611625565b905060003373ffffffffffffffffffffffffffffffffffffffff168234610d1d9190611625565b604051610d2990611275565b60006040518083038185875af1925050503d8060008114610d66576040519150601f19603f3d011682016040523d82523d6000602084013e610d6b565b606091505b5050905080610daf576040517f08c379a0000000000000000000000000000000000000000000000000000000008152600401610da690611362565b60405180910390fd5b505b600660405180604001604052803373ffffffffffffffffffffffffffffffffffffffff16815260200183815250908060018154018082558091505060019003906000526020600020906002020160009091909190915060008201518160000160006101000a81548173ffffffffffffffffffffffffffffffffffffffff021916908373ffffffffffffffffffffffffffffffffffffffff1602179055506020820151816001015550508060046000828254610e6c9190611544565b925050819055507f4f55f3ecbea395d1d7a8e069bf54ca93a2b09af83a3955e99d0e3c65c8d110f8604051610ea0906113e2565b60405180910390a150565b5080546000825560020290600052602060002090810190610ecc9190610ecf565b50565b5b80821115610f1157600080820160006101000a81549073ffffffffffffffffffffffffffffffffffffffff0219169055600182016000905550600201610ed0565b5090565b600081359050610f2481611c8c565b92915050565b600081359050610f3981611ca3565b92915050565b600060208284031215610f5557610f54611818565b5b6000610f6384828501610f15565b91505092915050565b600060208284031215610f8257610f81611818565b5b6000610f9084828501610f2a565b91505092915050565b610fa281611659565b82525050565b610fb18161166b565b82525050565b6000610fc28261151d565b610fcc8185611533565b9350610fdc8185602086016116ae565b610fe58161181d565b840191505092915050565b6000610ffd602a83611533565b91506110088261182e565b604082019050919050565b6000611020602683611533565b915061102b8261187d565b604082019050919050565b6000611043601383611533565b915061104e826118cc565b602082019050919050565b6000611066603f83611533565b9150611071826118f5565b604082019050919050565b6000611089601483611533565b915061109482611944565b602082019050919050565b60006110ac603783611533565b91506110b78261196d565b604082019050919050565b60006110cf603383611533565b91506110da826119bc565b604082019050919050565b60006110f2601c83611533565b91506110fd82611a0b565b602082019050919050565b6000611115601683611533565b915061112082611a34565b602082019050919050565b6000611138602c83611533565b915061114382611a5d565b604082019050919050565b600061115b602583611533565b915061116682611aac565b604082019050919050565b600061117e603683611533565b915061118982611afb565b604082019050919050565b60006111a1602483611533565b91506111ac82611b4a565b604082019050919050565b60006111c4600083611528565b91506111cf82611b99565b600082019050919050565b60006111e7602883611533565b91506111f282611b9c565b604082019050919050565b600061120a602983611533565b915061121582611beb565b604082019050919050565b600061122d601883611533565b915061123882611c3a565b602082019050919050565b6000611250600f83611533565b915061125b82611c63565b602082019050919050565b61126f81611697565b82525050565b6000611280826111b7565b9150819050919050565b600060208201905061129f6000830184610f99565b92915050565b60006020820190506112ba6000830184610fa8565b92915050565b600060208201905081810360008301526112da8184610fb7565b905092915050565b600060208201905081810360008301526112fb81610ff0565b9050919050565b6000602082019050818103600083015261131b81611013565b9050919050565b6000602082019050818103600083015261133b81611036565b9050919050565b6000602082019050818103600083015261135b81611059565b9050919050565b6000602082019050818103600083015261137b8161107c565b9050919050565b6000602082019050818103600083015261139b8161109f565b9050919050565b600060208201905081810360008301526113bb816110c2565b9050919050565b600060208201905081810360008301526113db816110e5565b9050919050565b600060208201905081810360008301526113fb81611108565b9050919050565b6000602082019050818103600083015261141b8161112b565b9050919050565b6000602082019050818103600083015261143b8161114e565b9050919050565b6000602082019050818103600083015261145b81611171565b9050919050565b6000602082019050818103600083015261147b81611194565b9050919050565b6000602082019050818103600083015261149b816111da565b9050919050565b600060208201905081810360008301526114bb816111fd565b9050919050565b600060208201905081810360008301526114db81611220565b9050919050565b600060208201905081810360008301526114fb81611243565b9050919050565b60006020820190506115176000830184611266565b92915050565b600081519050919050565b600081905092915050565b600082825260208201905092915050565b600061154f82611697565b915061155a83611697565b9250827fffffffffffffffffffffffffffffffffffffffffffffffffffffffffffffffff0382111561158f5761158e61175c565b5b828201905092915050565b60006115a582611697565b91506115b083611697565b9250826115c0576115bf61178b565b5b828204905092915050565b60006115d682611697565b91506115e183611697565b9250817fffffffffffffffffffffffffffffffffffffffffffffffffffffffffffffffff048311821515161561161a5761161961175c565b5b828202905092915050565b600061163082611697565b915061163b83611697565b92508282101561164e5761164d61175c565b5b828203905092915050565b600061166482611677565b9050919050565b60008115159050919050565b600073ffffffffffffffffffffffffffffffffffffffff82169050919050565b6000819050919050565b600060ff82169050919050565b60005b838110156116cc5780820151818401526020810190506116b1565b838111156116db576000848401525b50505050565b600060028204905060018216806116f957607f821691505b6020821081141561170d5761170c6117ba565b5b50919050565b600061171e82611697565b91507fffffffffffffffffffffffffffffffffffffffffffffffffffffffffffffffff8214156117515761175061175c565b5b600182019050919050565b7f4e487b7100000000000000000000000000000000000000000000000000000000600052601160045260246000fd5b7f4e487b7100000000000000000000000000000000000000000000000000000000600052601260045260246000fd5b7f4e487b7100000000000000000000000000000000000000000000000000000000600052602260045260246000fd5b7f4e487b7100000000000000000000000000000000000000000000000000000000600052603260045260246000fd5b600080fd5b6000601f19601f8301169050919050565b7f476f616c20416368696576656421204e6f206d6f72652066756e64732061726560008201527f2061636365707465642e00000000000000000000000000000000000000000000602082015250565b7f5769746864726177204661696c6564203a204661696c656420746f2073656e6460008201527f2045746865720000000000000000000000000000000000000000000000000000602082015250565b7f496e73756666696369656e742046756e64732e00000000000000000000000000600082015250565b7f4572726f72212050726f6a656374206973206e6f206d6f72652061636365707460008201527f696e6720636f6e747269627574696f6e73206166746572203330206461797300602082015250565b7f4661696c656420746f2073656e64204574686572000000000000000000000000600082015250565b7f4572726f722120596f752063616e6e6f7420636c6f736520746869732070726f60008201527f6a6563742061732074686520676f616c206973206d6574000000000000000000602082015250565b7f4572726f722120596f7520617265206e6f7420746865206f776e6572206f662060008201527f7468652063757272656e742070726f6a65637400000000000000000000000000602082015250565b7f50726f6a65637420697320616c72656164792061726368696576656400000000600082015250565b7f436f6e747269627574696f6e2072656365697665642e00000000000000000000600082015250565b7f4661696c65643a2050726f6a65637420617320616c726561647920636f6d706c60008201527f6574656420333020646179730000000000000000000000000000000000000000602082015250565b7f436f6e747269627574696f6e20616d6f756e74206c657373207468616e204d6960008201527f6e696d756d000000000000000000000000000000000000000000000000000000602082015250565b7f4572726f722120596f752063616e6e6f74206661696c20746869732070726f6a60008201527f6563742061732074686520676f616c206973206d657400000000000000000000602082015250565b7f4572726f72212050726f6a65637420476f616c20686173206e6f74206265656e60008201527f206d657400000000000000000000000000000000000000000000000000000000602082015250565b50565b7f4661696c656420746f2073656e6420457468657220746f2074686520636f6e7460008201527f72696275746f7273000000000000000000000000000000000000000000000000602082015250565b7f4661696c65643a2050726f6a65637420686173206e6f7420636f6d706c65746560008201527f6420333020646179730000000000000000000000000000000000000000000000602082015250565b7f496e76616c69642050657263656e746167652056616c75650000000000000000600082015250565b7f46756e64732077697468647261776e0000000000000000000000000000000000600082015250565b611c9581611697565b8114611ca057600080fd5b50565b611cac816116a1565b8114611cb757600080fd5b5056fea2646970667358221220ab70203992ae0461e21e926121f01a989e1f8cb27542a6c8ab51c133181fd9fe64736f6c63430008070033a2646970667358221220d3ca42ce8ebd729a58aacf398220e3069aef4783eb979bd9e85e6992c2d9669564736f6c63430008070033",
  "linkReferences": {},
  "deployedLinkReferences": {}
}