{
  "_format": "hh-sol-artifact-1",
  "contractName": "KickStarterFactory",
  "sourceName": "contracts/KickStarterFactory.sol",
  "abi": [
    {
      "inputs": [
        {
          "internalType": "string",
          "name": "name",
          "type": "string"
        },
        {
          "internalType": "uint256",
          "name": "amount",
          "type": "uint256"
        }
      ],
      "name": "createProject",
      "outputs": [],
      "stateMutability": "nonpayable",
      "type": "function"
    },
    {
      "inputs": [
        {
          "internalType": "uint256",
          "name": "_projectAddress",
          "type": "uint256"
        }
      ],
      "name": "getDeployedProject",
      "outputs": [
        {
          "internalType": "address",
          "name": "",
          "type": "address"
        }
      ],
      "stateMutability": "view",
      "type": "function"
    },
    {
      "inputs": [],
      "name": "getDeployedProjects",
      "outputs": [
        {
          "internalType": "address[]",
          "name": "",
          "type": "address[]"
        }
      ],
      "stateMutability": "view",
      "type": "function"
    },
    {
      "inputs": [],
      "name": "owner",
      "outputs": [
        {
          "internalType": "address",
          "name": "",
          "type": "address"
        }
      ],
      "stateMutability": "view",
      "type": "function"
    }
  ],
  "bytecode": "0x608060405234801561001057600080fd5b50610c26806100206000396000f3fe60806040523480156200001157600080fd5b5060043610620000525760003560e01c80637ac3886e14620000575780638da5cb5b146200007957806391754a5d146200009b578063b9e86f6214620000bb575b600080fd5b62000061620000f1565b604051620000709190620004e9565b60405180910390f35b6200008362000181565b604051620000929190620004cc565b60405180910390f35b620000b96004803603810190620000b391906200033c565b620001a5565b005b620000d96004803603810190620000d39190620003a2565b6200024e565b604051620000e89190620004cc565b60405180910390f35b606060018054806020026020016040519081016040528092919081815260200182805480156200017757602002820191906000526020600020905b8160009054906101000a900473ffffffffffffffffffffffffffffffffffffffff1673ffffffffffffffffffffffffffffffffffffffff16815260200190600101908083116200012c575b5050505050905090565b60008054906101000a900473ffffffffffffffffffffffffffffffffffffffff1681565b6000828233604051620001b89062000299565b620001c6939291906200050d565b604051809103906000f080158015620001e3573d6000803e3d6000fd5b5090506001819080600181540180825580915050600190039060005260206000200160009091909190916101000a81548173ffffffffffffffffffffffffffffffffffffffff021916908373ffffffffffffffffffffffffffffffffffffffff160217905550505050565b600060018281548110620002675762000266620006be565b5b9060005260206000200160009054906101000a900473ffffffffffffffffffffffffffffffffffffffff169050919050565b610495806200075c83390190565b6000620002be620002b8846200057a565b62000551565b905082815260208101848484011115620002dd57620002dc62000721565b5b620002ea84828562000643565b509392505050565b600082601f8301126200030a57620003096200071c565b5b81356200031c848260208601620002a7565b91505092915050565b600081359050620003368162000741565b92915050565b600080604083850312156200035657620003556200072b565b5b600083013567ffffffffffffffff81111562000377576200037662000726565b5b6200038585828601620002f2565b9250506020620003988582860162000325565b9150509250929050565b600060208284031215620003bb57620003ba6200072b565b5b6000620003cb8482850162000325565b91505092915050565b6000620003e28383620003ee565b60208301905092915050565b620003f98162000605565b82525050565b6200040a8162000605565b82525050565b60006200041d82620005c0565b620004298185620005e3565b93506200043683620005b0565b8060005b838110156200046d578151620004518882620003d4565b97506200045e83620005d6565b9250506001810190506200043a565b5085935050505092915050565b60006200048782620005cb565b620004938185620005f4565b9350620004a581856020860162000652565b620004b08162000730565b840191505092915050565b620004c68162000639565b82525050565b6000602082019050620004e36000830184620003ff565b92915050565b6000602082019050818103600083015262000505818462000410565b905092915050565b600060608201905081810360008301526200052981866200047a565b90506200053a6020830185620004bb565b620005496040830184620003ff565b949350505050565b60006200055d62000570565b90506200056b828262000688565b919050565b6000604051905090565b600067ffffffffffffffff821115620005985762000597620006ed565b5b620005a38262000730565b9050602081019050919050565b6000819050602082019050919050565b600081519050919050565b600081519050919050565b6000602082019050919050565b600082825260208201905092915050565b600082825260208201905092915050565b6000620006128262000619565b9050919050565b600073ffffffffffffffffffffffffffffffffffffffff82169050919050565b6000819050919050565b82818337600083830152505050565b60005b838110156200067257808201518184015260208101905062000655565b8381111562000682576000848401525b50505050565b620006938262000730565b810181811067ffffffffffffffff82111715620006b557620006b4620006ed565b5b80604052505050565b7f4e487b7100000000000000000000000000000000000000000000000000000000600052603260045260246000fd5b7f4e487b7100000000000000000000000000000000000000000000000000000000600052604160045260246000fd5b600080fd5b600080fd5b600080fd5b600080fd5b6000601f19601f8301169050919050565b6200074c8162000639565b81146200075857600080fd5b5056fe608060405234801561001057600080fd5b5060405161049538038061049583398181016040528101906100329190610200565b600160008190555082600190805190602001906100509291906100c3565b50816002819055506000600360006101000a81548160ff0219169083151502179055504260048190555080600560006101000a81548173ffffffffffffffffffffffffffffffffffffffff021916908373ffffffffffffffffffffffffffffffffffffffff160217905550505050610448565b8280546100cf90610334565b90600052602060002090601f0160209004810192826100f15760008555610138565b82601f1061010a57805160ff1916838001178555610138565b82800160010185558215610138579182015b8281111561013757825182559160200191906001019061011c565b5b5090506101459190610149565b5090565b5b8082111561016257600081600090555060010161014a565b5090565b600061017961017484610294565b61026f565b905082815260208101848484011115610195576101946103fa565b5b6101a0848285610301565b509392505050565b6000815190506101b78161041a565b92915050565b600082601f8301126101d2576101d16103f5565b5b81516101e2848260208601610166565b91505092915050565b6000815190506101fa81610431565b92915050565b60008060006060848603121561021957610218610404565b5b600084015167ffffffffffffffff811115610237576102366103ff565b5b610243868287016101bd565b9350506020610254868287016101eb565b9250506040610265868287016101a8565b9150509250925092565b600061027961028a565b90506102858282610366565b919050565b6000604051905090565b600067ffffffffffffffff8211156102af576102ae6103c6565b5b6102b882610409565b9050602081019050919050565b60006102d0826102d7565b9050919050565b600073ffffffffffffffffffffffffffffffffffffffff82169050919050565b6000819050919050565b60005b8381101561031f578082015181840152602081019050610304565b8381111561032e576000848401525b50505050565b6000600282049050600182168061034c57607f821691505b602082108114156103605761035f610397565b5b50919050565b61036f82610409565b810181811067ffffffffffffffff8211171561038e5761038d6103c6565b5b80604052505050565b7f4e487b7100000000000000000000000000000000000000000000000000000000600052602260045260246000fd5b7f4e487b7100000000000000000000000000000000000000000000000000000000600052604160045260246000fd5b600080fd5b600080fd5b600080fd5b600080fd5b6000601f19601f8301169050919050565b610423816102c5565b811461042e57600080fd5b50565b61043a816102f7565b811461044557600080fd5b50565b603f806104566000396000f3fe6080604052600080fdfea2646970667358221220b92e25515fab925c744276d2149c7a7c8d1cb517f49d07da31eacc388dee5a9664736f6c63430008070033a2646970667358221220b98c4d3240baad2860c8901d14bcae8131befddecc3a67a9183946aed7e2696964736f6c63430008070033",
  "linkReferences": {},
  "deployedLinkReferences": {}
}