{
  "_format": "hh-sol-artifact-1",
  "contractName": "KickStarterFactory",
  "sourceName": "contracts/KickStarterFactory.sol",
  "abi": [
    {
      "inputs": [],
      "stateMutability": "nonpayable",
      "type": "constructor"
    },
    {
      "anonymous": false,
      "inputs": [
        {
          "indexed": false,
          "internalType": "address",
          "name": "message",
          "type": "address"
        }
      ],
      "name": "ProjectCreated",
      "type": "event"
    },
    {
      "inputs": [],
      "name": "archieveProjects",
      "outputs": [],
      "stateMutability": "payable",
      "type": "function"
    },
    {
      "inputs": [
        {
          "internalType": "address",
          "name": "_projectAddress",
          "type": "address"
        }
      ],
      "name": "cancelProject",
      "outputs": [],
      "stateMutability": "payable",
      "type": "function"
    },
    {
      "inputs": [
        {
          "internalType": "address",
          "name": "_projectAddress",
          "type": "address"
        }
      ],
      "name": "contribute",
      "outputs": [
        {
          "internalType": "string",
          "name": "",
          "type": "string"
        }
      ],
      "stateMutability": "payable",
      "type": "function"
    },
    {
      "inputs": [
        {
          "internalType": "string",
          "name": "name",
          "type": "string"
        },
        {
          "internalType": "uint256",
          "name": "amount",
          "type": "uint256"
        }
      ],
      "name": "createProject",
      "outputs": [],
      "stateMutability": "nonpayable",
      "type": "function"
    },
    {
      "inputs": [],
      "name": "getBalance",
      "outputs": [
        {
          "internalType": "uint256",
          "name": "",
          "type": "uint256"
        }
      ],
      "stateMutability": "view",
      "type": "function"
    },
    {
      "inputs": [
        {
          "internalType": "address",
          "name": "_projectAddress",
          "type": "address"
        }
      ],
      "name": "getDeployedProject",
      "outputs": [
        {
          "internalType": "contract Project",
          "name": "",
          "type": "address"
        }
      ],
      "stateMutability": "view",
      "type": "function"
    },
    {
      "inputs": [],
      "name": "getDeployedProjects",
      "outputs": [
        {
          "internalType": "address[]",
          "name": "",
          "type": "address[]"
        }
      ],
      "stateMutability": "view",
      "type": "function"
    },
    {
      "inputs": [],
      "name": "getDeployedProjectsLength",
      "outputs": [
        {
          "internalType": "uint256",
          "name": "",
          "type": "uint256"
        }
      ],
      "stateMutability": "view",
      "type": "function"
    },
    {
      "inputs": [],
      "name": "owner",
      "outputs": [
        {
          "internalType": "address",
          "name": "",
          "type": "address"
        }
      ],
      "stateMutability": "view",
      "type": "function"
    },
    {
      "inputs": [
        {
          "internalType": "address",
          "name": "_projectAddress",
          "type": "address"
        },
        {
          "internalType": "uint8",
          "name": "percentage",
          "type": "uint8"
        }
      ],
      "name": "withdraw",
      "outputs": [],
      "stateMutability": "payable",
      "type": "function"
    },
    {
      "stateMutability": "payable",
      "type": "receive"
    }
  ],
  "bytecode": "0x608060405234801561001057600080fd5b50336000806101000a81548173ffffffffffffffffffffffffffffffffffffffff021916908373ffffffffffffffffffffffffffffffffffffffff1602179055506132fe806100606000396000f3fe608060405260043610620000a35760003560e01c80638da5cb5b11620000615780638da5cb5b146200017257806391754a5d14620001a2578063ba58d66d14620001d0578063bc787ad51462000200578063cc5a02cb146200024457620000ab565b806312065fe014620000b057806363cf32ed14620000e05780636db8c06f14620000ec57806373e888fd146200010c5780637ac3886e146200014257620000ab565b36620000ab57005b600080fd5b348015620000bd57600080fd5b50620000c862000264565b604051620000d7919062001bdb565b60405180910390f35b620000ea6200026c565b005b6200010a600480360381019062000104919062001552565b6200049d565b005b6200012a600480360381019062000124919062001552565b6200069d565b60405162000139919062001a1f565b60405180910390f35b3480156200014f57600080fd5b506200015a62000baa565b604051620001699190620019de565b60405180910390f35b3480156200017f57600080fd5b506200018a62000c3a565b60405162000199919062001994565b60405180910390f35b348015620001af57600080fd5b50620001ce6004803603810190620001c891906200162f565b62000c5e565b005b348015620001dd57600080fd5b50620001e862000d40565b604051620001f7919062001bdb565b60405180910390f35b3480156200020d57600080fd5b506200022c600480360381019062000226919062001552565b62000d4d565b6040516200023b919062001a02565b60405180910390f35b6200026260048036038101906200025c9190620015b6565b62000e51565b005b600047905090565b3373ffffffffffffffffffffffffffffffffffffffff1660008054906101000a900473ffffffffffffffffffffffffffffffffffffffff1673ffffffffffffffffffffffffffffffffffffffff1614620002fd576040517f08c379a0000000000000000000000000000000000000000000000000000000008152600401620002f49062001aed565b60405180910390fd5b60005b6001805490508110156200049a5760006001828154811062000327576200032662001fa2565b5b9060005260206000200160009054906101000a900473ffffffffffffffffffffffffffffffffffffffff1690508073ffffffffffffffffffffffffffffffffffffffff16632f13b60c6040518163ffffffff1660e01b815260040160206040518083038186803b1580156200039b57600080fd5b505afa158015620003b0573d6000803e3d6000fd5b505050506040513d601f19601f82011682018060405250810190620003d69190620015fd565b1562000483578073ffffffffffffffffffffffffffffffffffffffff166343d726d66040518163ffffffff1660e01b8152600401600060405180830381600087803b1580156200042557600080fd5b505af11580156200043a573d6000803e3d6000fd5b505050506001828154811062000455576200045462001fa2565b5b9060005260206000200160006101000a81549073ffffffffffffffffffffffffffffffffffffffff02191690555b508080620004919062001ef6565b91505062000300565b50565b8060008190508073ffffffffffffffffffffffffffffffffffffffff16638da5cb5b6040518163ffffffff1660e01b815260040160206040518083038186803b158015620004ea57600080fd5b505afa158015620004ff573d6000803e3d6000fd5b505050506040513d601f19601f8201168201806040525081019062000525919062001584565b73ffffffffffffffffffffffffffffffffffffffff163373ffffffffffffffffffffffffffffffffffffffff161462000595576040517f08c379a00000000000000000000000000000000000000000000000000000000081526004016200058c9062001b31565b60405180910390fd5b600083905062278d008173ffffffffffffffffffffffffffffffffffffffff1663325a19f16040518163ffffffff1660e01b815260040160206040518083038186803b158015620005e557600080fd5b505afa158015620005fa573d6000803e3d6000fd5b505050506040513d601f19601f8201168201806040525081019062000620919062001695565b6200062c919062001cb7565b42101562000697578073ffffffffffffffffffffffffffffffffffffffff166343d726d66040518163ffffffff1660e01b8152600401600060405180830381600087803b1580156200067d57600080fd5b505af115801562000692573d6000803e3d6000fd5b505050505b50505050565b60606000829050662386f26fc10000341015620006f1576040517f08c379a0000000000000000000000000000000000000000000000000000000008152600401620006e89062001b75565b60405180910390fd5b8073ffffffffffffffffffffffffffffffffffffffff1663401938836040518163ffffffff1660e01b815260040160206040518083038186803b1580156200073857600080fd5b505afa1580156200074d573d6000803e3d6000fd5b505050506040513d601f19601f8201168201806040525081019062000773919062001695565b8173ffffffffffffffffffffffffffffffffffffffff16632ddbd13a6040518163ffffffff1660e01b815260040160206040518083038186803b158015620007ba57600080fd5b505afa158015620007cf573d6000803e3d6000fd5b505050506040513d601f19601f82011682018060405250810190620007f5919062001695565b1062000838576040517f08c379a00000000000000000000000000000000000000000000000000000000081526004016200082f9062001a87565b60405180910390fd5b60003490508173ffffffffffffffffffffffffffffffffffffffff1663401938836040518163ffffffff1660e01b815260040160206040518083038186803b1580156200088457600080fd5b505afa15801562000899573d6000803e3d6000fd5b505050506040513d601f19601f82011682018060405250810190620008bf919062001695565b818373ffffffffffffffffffffffffffffffffffffffff16632ddbd13a6040518163ffffffff1660e01b815260040160206040518083038186803b1580156200090757600080fd5b505afa1580156200091c573d6000803e3d6000fd5b505050506040513d601f19601f8201168201806040525081019062000942919062001695565b6200094e919062001cb7565b111562000b32578173ffffffffffffffffffffffffffffffffffffffff16632ddbd13a6040518163ffffffff1660e01b815260040160206040518083038186803b1580156200099c57600080fd5b505afa158015620009b1573d6000803e3d6000fd5b505050506040513d601f19601f82011682018060405250810190620009d7919062001695565b8273ffffffffffffffffffffffffffffffffffffffff1663401938836040518163ffffffff1660e01b815260040160206040518083038186803b15801562000a1e57600080fd5b505afa15801562000a33573d6000803e3d6000fd5b505050506040513d601f19601f8201168201806040525081019062000a59919062001695565b62000a65919062001dad565b90506000813462000a77919062001dad565b90506000803373ffffffffffffffffffffffffffffffffffffffff168360405162000aa2906200197d565b60006040518083038185875af1925050503d806000811462000ae1576040519150601f19603f3d011682016040523d82523d6000602084013e62000ae6565b606091505b50915091508162000b2e576040517f08c379a000000000000000000000000000000000000000000000000000000000815260040162000b259062001b0f565b60405180910390fd5b5050505b8173ffffffffffffffffffffffffffffffffffffffff166339ecacac33346040518363ffffffff1660e01b815260040162000b6f929190620019b1565b600060405180830381600087803b15801562000b8a57600080fd5b505af115801562000b9f573d6000803e3d6000fd5b505050505050919050565b6060600180548060200260200160405190810160405280929190818152602001828054801562000c3057602002820191906000526020600020905b8160009054906101000a900473ffffffffffffffffffffffffffffffffffffffff1673ffffffffffffffffffffffffffffffffffffffff168152602001906001019080831162000be5575b5050505050905090565b60008054906101000a900473ffffffffffffffffffffffffffffffffffffffff1681565b600082823360405162000c71906200143c565b62000c7f9392919062001a43565b604051809103906000f08015801562000c9c573d6000803e3d6000fd5b5090506001819080600181540180825580915050600190039060005260206000200160009091909190916101000a81548173ffffffffffffffffffffffffffffffffffffffff021916908373ffffffffffffffffffffffffffffffffffffffff1602179055507f3815a547ca4b753ae5cc6a73f3e019b6791faedad7fe0614a6e08d0bcfb137f18160405162000d33919062001994565b60405180910390a1505050565b6000600180549050905090565b60008160008190508073ffffffffffffffffffffffffffffffffffffffff16638da5cb5b6040518163ffffffff1660e01b815260040160206040518083038186803b15801562000d9c57600080fd5b505afa15801562000db1573d6000803e3d6000fd5b505050506040513d601f19601f8201168201806040525081019062000dd7919062001584565b73ffffffffffffffffffffffffffffffffffffffff163373ffffffffffffffffffffffffffffffffffffffff161462000e47576040517f08c379a000000000000000000000000000000000000000000000000000000000815260040162000e3e9062001b31565b60405180910390fd5b8392505050919050565b8160008190508073ffffffffffffffffffffffffffffffffffffffff16638da5cb5b6040518163ffffffff1660e01b815260040160206040518083038186803b15801562000e9e57600080fd5b505afa15801562000eb3573d6000803e3d6000fd5b505050506040513d601f19601f8201168201806040525081019062000ed9919062001584565b73ffffffffffffffffffffffffffffffffffffffff163373ffffffffffffffffffffffffffffffffffffffff161462000f49576040517f08c379a000000000000000000000000000000000000000000000000000000000815260040162000f409062001b31565b60405180910390fd5b60008490508073ffffffffffffffffffffffffffffffffffffffff166302a214606040518163ffffffff1660e01b815260040160206040518083038186803b15801562000f9557600080fd5b505afa15801562000faa573d6000803e3d6000fd5b505050506040513d601f19601f8201168201806040525081019062000fd09190620015fd565b1562001013576040517f08c379a00000000000000000000000000000000000000000000000000000000081526004016200100a9062001b53565b60405180910390fd5b60648460ff1611156200105d576040517f08c379a0000000000000000000000000000000000000000000000000000000008152600401620010549062001bb9565b60405180910390fd5b8073ffffffffffffffffffffffffffffffffffffffff1663401938836040518163ffffffff1660e01b815260040160206040518083038186803b158015620010a457600080fd5b505afa158015620010b9573d6000803e3d6000fd5b505050506040513d601f19601f82011682018060405250810190620010df919062001695565b8173ffffffffffffffffffffffffffffffffffffffff16632ddbd13a6040518163ffffffff1660e01b815260040160206040518083038186803b1580156200112657600080fd5b505afa1580156200113b573d6000803e3d6000fd5b505050506040513d601f19601f8201168201806040525081019062001161919062001695565b14620011a4576040517f08c379a00000000000000000000000000000000000000000000000000000000081526004016200119b9062001b97565b60405180910390fd5b600060648560ff168373ffffffffffffffffffffffffffffffffffffffff16632ddbd13a6040518163ffffffff1660e01b815260040160206040518083038186803b158015620011f357600080fd5b505afa15801562001208573d6000803e3d6000fd5b505050506040513d601f19601f820116820180604052508101906200122e919062001695565b6200123a919062001d4c565b62001246919062001d14565b90508173ffffffffffffffffffffffffffffffffffffffff16632ddbd13a6040518163ffffffff1660e01b815260040160206040518083038186803b1580156200128f57600080fd5b505afa158015620012a4573d6000803e3d6000fd5b505050506040513d601f19601f82011682018060405250810190620012ca919062001695565b81106200130e576040517f08c379a0000000000000000000000000000000000000000000000000000000008152600401620013059062001acb565b60405180910390fd5b8173ffffffffffffffffffffffffffffffffffffffff1663b2a18974826040518263ffffffff1660e01b815260040162001349919062001bdb565b600060405180830381600087803b1580156200136457600080fd5b505af115801562001379573d6000803e3d6000fd5b505050506000803373ffffffffffffffffffffffffffffffffffffffff1683604051620013a6906200197d565b60006040518083038185875af1925050503d8060008114620013e5576040519150601f19603f3d011682016040523d82523d6000602084013e620013ea565b606091505b50915091508162001432576040517f08c379a0000000000000000000000000000000000000000000000000000000008152600401620014299062001aa9565b60405180910390fd5b5050505050505050565b610fe080620022e983390190565b6000620014616200145b8462001c21565b62001bf8565b90508281526020810184848401111562001480576200147f62002005565b5b6200148d84828562001e7b565b509392505050565b600081359050620014a68162002280565b92915050565b600081519050620014bd8162002280565b92915050565b600081519050620014d4816200229a565b92915050565b600082601f830112620014f257620014f162002000565b5b8135620015048482602086016200144a565b91505092915050565b6000813590506200151e81620022b4565b92915050565b6000815190506200153581620022b4565b92915050565b6000813590506200154c81620022ce565b92915050565b6000602082840312156200156b576200156a6200200f565b5b60006200157b8482850162001495565b91505092915050565b6000602082840312156200159d576200159c6200200f565b5b6000620015ad84828501620014ac565b91505092915050565b60008060408385031215620015d057620015cf6200200f565b5b6000620015e08582860162001495565b9250506020620015f3858286016200153b565b9150509250929050565b6000602082840312156200161657620016156200200f565b5b60006200162684828501620014c3565b91505092915050565b600080604083850312156200164957620016486200200f565b5b600083013567ffffffffffffffff8111156200166a57620016696200200a565b5b6200167885828601620014da565b92505060206200168b858286016200150d565b9150509250929050565b600060208284031215620016ae57620016ad6200200f565b5b6000620016be8482850162001524565b91505092915050565b6000620016d58383620016e1565b60208301905092915050565b620016ec8162001de8565b82525050565b620016fd8162001de8565b82525050565b6000620017108262001c67565b6200171c818562001c8a565b9350620017298362001c57565b8060005b8381101562001760578151620017448882620016c7565b9750620017518362001c7d565b9250506001810190506200172d565b5085935050505092915050565b620017788162001e3f565b82525050565b60006200178b8262001c72565b62001797818562001ca6565b9350620017a981856020860162001e8a565b620017b48162002014565b840191505092915050565b6000620017ce602a8362001ca6565b9150620017db8262002025565b604082019050919050565b6000620017f560268362001ca6565b9150620018028262002074565b604082019050919050565b60006200181c60138362001ca6565b91506200182982620020c3565b602082019050919050565b60006200184360118362001ca6565b91506200185082620020ec565b602082019050919050565b60006200186a60148362001ca6565b9150620018778262002115565b602082019050919050565b60006200189160338362001ca6565b91506200189e826200213e565b604082019050919050565b6000620018b860148362001ca6565b9150620018c5826200218d565b602082019050919050565b6000620018df60258362001ca6565b9150620018ec82620021b6565b604082019050919050565b60006200190660248362001ca6565b9150620019138262002205565b604082019050919050565b60006200192d60008362001c9b565b91506200193a8262002254565b600082019050919050565b60006200195460188362001ca6565b9150620019618262002257565b602082019050919050565b620019778162001e28565b82525050565b60006200198a826200191e565b9150819050919050565b6000602082019050620019ab6000830184620016f2565b92915050565b6000604082019050620019c86000830185620016f2565b620019d760208301846200196c565b9392505050565b60006020820190508181036000830152620019fa818462001703565b905092915050565b600060208201905062001a1960008301846200176d565b92915050565b6000602082019050818103600083015262001a3b81846200177e565b905092915050565b6000606082019050818103600083015262001a5f81866200177e565b905062001a7060208301856200196c565b62001a7f6040830184620016f2565b949350505050565b6000602082019050818103600083015262001aa281620017bf565b9050919050565b6000602082019050818103600083015262001ac481620017e6565b9050919050565b6000602082019050818103600083015262001ae6816200180d565b9050919050565b6000602082019050818103600083015262001b088162001834565b9050919050565b6000602082019050818103600083015262001b2a816200185b565b9050919050565b6000602082019050818103600083015262001b4c8162001882565b9050919050565b6000602082019050818103600083015262001b6e81620018a9565b9050919050565b6000602082019050818103600083015262001b9081620018d0565b9050919050565b6000602082019050818103600083015262001bb281620018f7565b9050919050565b6000602082019050818103600083015262001bd48162001945565b9050919050565b600060208201905062001bf260008301846200196c565b92915050565b600062001c0462001c17565b905062001c12828262001ec0565b919050565b6000604051905090565b600067ffffffffffffffff82111562001c3f5762001c3e62001fd1565b5b62001c4a8262002014565b9050602081019050919050565b6000819050602082019050919050565b600081519050919050565b600081519050919050565b6000602082019050919050565b600082825260208201905092915050565b600081905092915050565b600082825260208201905092915050565b600062001cc48262001e28565b915062001cd18362001e28565b9250827fffffffffffffffffffffffffffffffffffffffffffffffffffffffffffffffff0382111562001d095762001d0862001f44565b5b828201905092915050565b600062001d218262001e28565b915062001d2e8362001e28565b92508262001d415762001d4062001f73565b5b828204905092915050565b600062001d598262001e28565b915062001d668362001e28565b9250817fffffffffffffffffffffffffffffffffffffffffffffffffffffffffffffffff048311821515161562001da25762001da162001f44565b5b828202905092915050565b600062001dba8262001e28565b915062001dc78362001e28565b92508282101562001ddd5762001ddc62001f44565b5b828203905092915050565b600062001df58262001e08565b9050919050565b60008115159050919050565b600073ffffffffffffffffffffffffffffffffffffffff82169050919050565b6000819050919050565b600060ff82169050919050565b600062001e4c8262001e53565b9050919050565b600062001e608262001e67565b9050919050565b600062001e748262001e08565b9050919050565b82818337600083830152505050565b60005b8381101562001eaa57808201518184015260208101905062001e8d565b8381111562001eba576000848401525b50505050565b62001ecb8262002014565b810181811067ffffffffffffffff8211171562001eed5762001eec62001fd1565b5b80604052505050565b600062001f038262001e28565b91507fffffffffffffffffffffffffffffffffffffffffffffffffffffffffffffffff82141562001f395762001f3862001f44565b5b600182019050919050565b7f4e487b7100000000000000000000000000000000000000000000000000000000600052601160045260246000fd5b7f4e487b7100000000000000000000000000000000000000000000000000000000600052601260045260246000fd5b7f4e487b7100000000000000000000000000000000000000000000000000000000600052603260045260246000fd5b7f4e487b7100000000000000000000000000000000000000000000000000000000600052604160045260246000fd5b600080fd5b600080fd5b600080fd5b600080fd5b6000601f19601f8301169050919050565b7f476f616c20416368696576656421204e6f206d6f72652066756e64732061726560008201527f2061636365707465642e00000000000000000000000000000000000000000000602082015250565b7f5769746864726177204661696c6564203a204661696c656420746f2073656e6460008201527f2045746865720000000000000000000000000000000000000000000000000000602082015250565b7f496e73756666696369656e742046756e64732e00000000000000000000000000600082015250565b7f5265737472696374656420416363657373000000000000000000000000000000600082015250565b7f4661696c656420746f2073656e64204574686572000000000000000000000000600082015250565b7f4572726f722120596f7520617265206e6f7420746865206f776e6572206f662060008201527f7468652063757272656e742070726f6a65637400000000000000000000000000602082015250565b7f50726f6a65637420697320617263686965766564000000000000000000000000600082015250565b7f436f6e747269627574696f6e20616d6f756e74206c657373207468616e204d6960008201527f6e696d756d000000000000000000000000000000000000000000000000000000602082015250565b7f4572726f72212050726f6a65637420476f616c20686173206e6f74206265656e60008201527f206d657400000000000000000000000000000000000000000000000000000000602082015250565b50565b7f496e76616c69642050657263656e746167652056616c75650000000000000000600082015250565b6200228b8162001de8565b81146200229757600080fd5b50565b620022a58162001dfc565b8114620022b157600080fd5b50565b620022bf8162001e28565b8114620022cb57600080fd5b50565b620022d98162001e32565b8114620022e557600080fd5b5056fe60806040523480156200001157600080fd5b5060405162000fe038038062000fe083398181016040528101906200003791906200027c565b806000806101000a81548173ffffffffffffffffffffffffffffffffffffffff021916908373ffffffffffffffffffffffffffffffffffffffff16021790555082600190805190602001906200008f92919062000120565b50670de0b6b3a764000082620000a6919062000356565b6002819055506000600360006101000a81548160ff0219169083151502179055504260048190555080600560006101000a81548173ffffffffffffffffffffffffffffffffffffffff021916908373ffffffffffffffffffffffffffffffffffffffff16021790555060006006819055505050506200057d565b8280546200012e906200042b565b90600052602060002090601f0160209004810192826200015257600085556200019e565b82601f106200016d57805160ff19168380011785556200019e565b828001600101855582156200019e579182015b828111156200019d57825182559160200191906001019062000180565b5b509050620001ad9190620001b1565b5090565b5b80821115620001cc576000816000905550600101620001b2565b5090565b6000620001e7620001e18462000320565b620002f7565b90508281526020810184848401111562000206576200020562000529565b5b62000213848285620003f5565b509392505050565b6000815190506200022c8162000549565b92915050565b600082601f8301126200024a576200024962000524565b5b81516200025c848260208601620001d0565b91505092915050565b600081519050620002768162000563565b92915050565b60008060006060848603121562000298576200029762000533565b5b600084015167ffffffffffffffff811115620002b957620002b86200052e565b5b620002c78682870162000232565b9350506020620002da8682870162000265565b9250506040620002ed868287016200021b565b9150509250925092565b60006200030362000316565b905062000311828262000461565b919050565b6000604051905090565b600067ffffffffffffffff8211156200033e576200033d620004f5565b5b620003498262000538565b9050602081019050919050565b60006200036382620003eb565b91506200037083620003eb565b9250817fffffffffffffffffffffffffffffffffffffffffffffffffffffffffffffffff0483118215151615620003ac57620003ab62000497565b5b828202905092915050565b6000620003c482620003cb565b9050919050565b600073ffffffffffffffffffffffffffffffffffffffff82169050919050565b6000819050919050565b60005b8381101562000415578082015181840152602081019050620003f8565b8381111562000425576000848401525b50505050565b600060028204905060018216806200044457607f821691505b602082108114156200045b576200045a620004c6565b5b50919050565b6200046c8262000538565b810181811067ffffffffffffffff821117156200048e576200048d620004f5565b5b80604052505050565b7f4e487b7100000000000000000000000000000000000000000000000000000000600052601160045260246000fd5b7f4e487b7100000000000000000000000000000000000000000000000000000000600052602260045260246000fd5b7f4e487b7100000000000000000000000000000000000000000000000000000000600052604160045260246000fd5b600080fd5b600080fd5b600080fd5b600080fd5b6000601f19601f8301169050919050565b6200055481620003b7565b81146200056057600080fd5b50565b6200056e81620003eb565b81146200057a57600080fd5b50565b610a53806200058d6000396000f3fe608060405234801561001057600080fd5b506004361061009e5760003560e01c806339ecacac1161006657806339ecacac14610139578063401938831461015557806343d726d6146101735780638da5cb5b1461017d578063b2a189741461019b5761009e565b806302a21460146100a357806306fdde03146100c15780632ddbd13a146100df5780632f13b60c146100fd578063325a19f11461011b575b600080fd5b6100ab6101b7565b6040516100b891906106db565b60405180910390f35b6100c96101ca565b6040516100d691906106f6565b60405180910390f35b6100e7610258565b6040516100f49190610738565b60405180910390f35b61010561025e565b60405161011291906106db565b60405180910390f35b610123610278565b6040516101309190610738565b60405180910390f35b610153600480360381019061014e9190610592565b61027e565b005b61015d610344565b60405161016a9190610738565b60405180910390f35b61017b61034a565b005b6101856104c1565b60405161019291906106c0565b60405180910390f35b6101b560048036038101906101b091906105d2565b6104e7565b005b600360009054906101000a900460ff1681565b600180546101d79061087f565b80601f01602080910402602001604051908101604052809291908181526020018280546102039061087f565b80156102505780601f1061022557610100808354040283529160200191610250565b820191906000526020600020905b81548152906001019060200180831161023357829003601f168201915b505050505081565b60065481565b600062278d00600454610271919061077a565b4211905090565b60045481565b600760405180604001604052808473ffffffffffffffffffffffffffffffffffffffff16815260200183815250908060018154018082558091505060019003906000526020600020906002020160009091909190915060008201518160000160006101000a81548173ffffffffffffffffffffffffffffffffffffffff021916908373ffffffffffffffffffffffffffffffffffffffff1602179055506020820151816001015550508060066000828254610339919061077a565b925050819055505050565b60025481565b6001600360006101000a81548160ff021916908315150217905550600060068190555060005b6007805490508110156104b05760006007828154811061039357610392610958565b5b906000526020600020906002020160000160009054906101000a900473ffffffffffffffffffffffffffffffffffffffff1690506000808273ffffffffffffffffffffffffffffffffffffffff16600785815481106103f5576103f4610958565b5b906000526020600020906002020160010154604051610413906106ab565b60006040518083038185875af1925050503d8060008114610450576040519150601f19603f3d011682016040523d82523d6000602084013e610455565b606091505b50915091508161049a576040517f08c379a000000000000000000000000000000000000000000000000000000000815260040161049190610718565b60405180910390fd5b50505080806104a8906108b1565b915050610370565b50600760006104bf91906104fe565b565b600560009054906101000a900473ffffffffffffffffffffffffffffffffffffffff1681565b806006546104f591906107d0565b60068190555050565b508054600082556002029060005260206000209081019061051f9190610522565b50565b5b8082111561056457600080820160006101000a81549073ffffffffffffffffffffffffffffffffffffffff0219169055600182016000905550600201610523565b5090565b600081359050610577816109ef565b92915050565b60008135905061058c81610a06565b92915050565b600080604083850312156105a9576105a8610987565b5b60006105b785828601610568565b92505060206105c88582860161057d565b9150509250929050565b6000602082840312156105e8576105e7610987565b5b60006105f68482850161057d565b91505092915050565b61060881610804565b82525050565b61061781610816565b82525050565b600061062882610753565b6106328185610769565b935061064281856020860161084c565b61064b8161098c565b840191505092915050565b600061066360008361075e565b915061066e8261099d565b600082019050919050565b6000610686602883610769565b9150610691826109a0565b604082019050919050565b6106a581610842565b82525050565b60006106b682610656565b9150819050919050565b60006020820190506106d560008301846105ff565b92915050565b60006020820190506106f0600083018461060e565b92915050565b60006020820190508181036000830152610710818461061d565b905092915050565b6000602082019050818103600083015261073181610679565b9050919050565b600060208201905061074d600083018461069c565b92915050565b600081519050919050565b600081905092915050565b600082825260208201905092915050565b600061078582610842565b915061079083610842565b9250827fffffffffffffffffffffffffffffffffffffffffffffffffffffffffffffffff038211156107c5576107c46108fa565b5b828201905092915050565b60006107db82610842565b91506107e683610842565b9250828210156107f9576107f86108fa565b5b828203905092915050565b600061080f82610822565b9050919050565b60008115159050919050565b600073ffffffffffffffffffffffffffffffffffffffff82169050919050565b6000819050919050565b60005b8381101561086a57808201518184015260208101905061084f565b83811115610879576000848401525b50505050565b6000600282049050600182168061089757607f821691505b602082108114156108ab576108aa610929565b5b50919050565b60006108bc82610842565b91507fffffffffffffffffffffffffffffffffffffffffffffffffffffffffffffffff8214156108ef576108ee6108fa565b5b600182019050919050565b7f4e487b7100000000000000000000000000000000000000000000000000000000600052601160045260246000fd5b7f4e487b7100000000000000000000000000000000000000000000000000000000600052602260045260246000fd5b7f4e487b7100000000000000000000000000000000000000000000000000000000600052603260045260246000fd5b600080fd5b6000601f19601f8301169050919050565b50565b7f4661696c656420746f2073656e6420457468657220746f2074686520636f6e7460008201527f72696275746f7273000000000000000000000000000000000000000000000000602082015250565b6109f881610804565b8114610a0357600080fd5b50565b610a0f81610842565b8114610a1a57600080fd5b5056fea2646970667358221220066102a676ca71dd369b78f2fec8fbcdf12a2603e1d3c264461c81ff1c2baf9664736f6c63430008070033a26469706673582212203c4e57c8ab37506495bdeec0ab7293bf55873f81947007076eee88b941c702ed64736f6c63430008070033",
  "linkReferences": {},
  "deployedLinkReferences": {}
}