{
  "_format": "hh-sol-artifact-1",
  "contractName": "KickStarterFactory",
  "sourceName": "contracts/KickStarterFactory.sol",
  "abi": [
    {
      "inputs": [],
      "name": "archieveProjects",
      "outputs": [],
      "stateMutability": "payable",
      "type": "function"
    },
    {
      "inputs": [
        {
          "internalType": "address",
          "name": "_projectAddress",
          "type": "address"
        }
      ],
      "name": "cancelProject",
      "outputs": [],
      "stateMutability": "payable",
      "type": "function"
    },
    {
      "inputs": [
        {
          "internalType": "address",
          "name": "_projectAddress",
          "type": "address"
        }
      ],
      "name": "contribute",
      "outputs": [
        {
          "internalType": "string",
          "name": "",
          "type": "string"
        }
      ],
      "stateMutability": "payable",
      "type": "function"
    },
    {
      "inputs": [
        {
          "internalType": "string",
          "name": "name",
          "type": "string"
        },
        {
          "internalType": "uint256",
          "name": "amount",
          "type": "uint256"
        }
      ],
      "name": "createProject",
      "outputs": [],
      "stateMutability": "nonpayable",
      "type": "function"
    },
    {
      "inputs": [
        {
          "internalType": "address",
          "name": "_projectAddress",
          "type": "address"
        }
      ],
      "name": "getDeployedProject",
      "outputs": [
        {
          "internalType": "contract Project",
          "name": "",
          "type": "address"
        }
      ],
      "stateMutability": "view",
      "type": "function"
    },
    {
      "inputs": [],
      "name": "getDeployedProjects",
      "outputs": [
        {
          "internalType": "address[]",
          "name": "",
          "type": "address[]"
        }
      ],
      "stateMutability": "view",
      "type": "function"
    },
    {
      "inputs": [],
      "name": "owner",
      "outputs": [
        {
          "internalType": "address",
          "name": "",
          "type": "address"
        }
      ],
      "stateMutability": "view",
      "type": "function"
    },
    {
      "inputs": [
        {
          "internalType": "address",
          "name": "_projectAddress",
          "type": "address"
        },
        {
          "internalType": "uint8",
          "name": "percentage",
          "type": "uint8"
        }
      ],
      "name": "withdraw",
      "outputs": [],
      "stateMutability": "payable",
      "type": "function"
    }
  ],
  "bytecode": "0x608060405234801561001057600080fd5b50612f44806100206000396000f3fe608060405260043610620000865760003560e01c80638da5cb5b11620000555780638da5cb5b146200011d57806391754a5d146200014d578063bc787ad5146200017b578063cc5a02cb14620001bf5762000086565b806363cf32ed146200008b5780636db8c06f146200009757806373e888fd14620000b75780637ac3886e14620000ed575b600080fd5b62000095620001df565b005b620000b56004803603810190620000af919062001246565b62000272565b005b620000d56004803603810190620000cf919062001246565b620003d7565b604051620000e4919062001713565b60405180910390f35b348015620000fa57600080fd5b5062000105620008e4565b604051620001149190620016d2565b60405180910390f35b3480156200012a57600080fd5b506200013562000974565b60405162000144919062001688565b60405180910390f35b3480156200015a57600080fd5b5062000179600480360381019062000173919062001323565b62000998565b005b3480156200018857600080fd5b50620001a76004803603810190620001a1919062001246565b62000a41565b604051620001b69190620016f6565b60405180910390f35b620001dd6004803603810190620001d79190620012aa565b62000b45565b005b3373ffffffffffffffffffffffffffffffffffffffff1660008054906101000a900473ffffffffffffffffffffffffffffffffffffffff1673ffffffffffffffffffffffffffffffffffffffff161462000270576040517f08c379a00000000000000000000000000000000000000000000000000000000081526004016200026790620017e1565b60405180910390fd5b565b8060008190508073ffffffffffffffffffffffffffffffffffffffff16638da5cb5b6040518163ffffffff1660e01b815260040160206040518083038186803b158015620002bf57600080fd5b505afa158015620002d4573d6000803e3d6000fd5b505050506040513d601f19601f82011682018060405250810190620002fa919062001278565b73ffffffffffffffffffffffffffffffffffffffff163373ffffffffffffffffffffffffffffffffffffffff16146200036a576040517f08c379a0000000000000000000000000000000000000000000000000000000008152600401620003619062001825565b60405180910390fd5b60008390508073ffffffffffffffffffffffffffffffffffffffff166343d726d66040518163ffffffff1660e01b8152600401600060405180830381600087803b158015620003b857600080fd5b505af1158015620003cd573d6000803e3d6000fd5b5050505050505050565b60606000829050662386f26fc100003410156200042b576040517f08c379a0000000000000000000000000000000000000000000000000000000008152600401620004229062001869565b60405180910390fd5b8073ffffffffffffffffffffffffffffffffffffffff1663401938836040518163ffffffff1660e01b815260040160206040518083038186803b1580156200047257600080fd5b505afa15801562000487573d6000803e3d6000fd5b505050506040513d601f19601f82011682018060405250810190620004ad919062001389565b8173ffffffffffffffffffffffffffffffffffffffff16632ddbd13a6040518163ffffffff1660e01b815260040160206040518083038186803b158015620004f457600080fd5b505afa15801562000509573d6000803e3d6000fd5b505050506040513d601f19601f820116820180604052508101906200052f919062001389565b1062000572576040517f08c379a000000000000000000000000000000000000000000000000000000000815260040162000569906200177b565b60405180910390fd5b60003490508173ffffffffffffffffffffffffffffffffffffffff1663401938836040518163ffffffff1660e01b815260040160206040518083038186803b158015620005be57600080fd5b505afa158015620005d3573d6000803e3d6000fd5b505050506040513d601f19601f82011682018060405250810190620005f9919062001389565b818373ffffffffffffffffffffffffffffffffffffffff16632ddbd13a6040518163ffffffff1660e01b815260040160206040518083038186803b1580156200064157600080fd5b505afa15801562000656573d6000803e3d6000fd5b505050506040513d601f19601f820116820180604052508101906200067c919062001389565b620006889190620019ab565b11156200086c578173ffffffffffffffffffffffffffffffffffffffff16632ddbd13a6040518163ffffffff1660e01b815260040160206040518083038186803b158015620006d657600080fd5b505afa158015620006eb573d6000803e3d6000fd5b505050506040513d601f19601f8201168201806040525081019062000711919062001389565b8273ffffffffffffffffffffffffffffffffffffffff1663401938836040518163ffffffff1660e01b815260040160206040518083038186803b1580156200075857600080fd5b505afa1580156200076d573d6000803e3d6000fd5b505050506040513d601f19601f8201168201806040525081019062000793919062001389565b6200079f919062001aa1565b905060008134620007b1919062001aa1565b90506000803373ffffffffffffffffffffffffffffffffffffffff1683604051620007dc9062001671565b60006040518083038185875af1925050503d80600081146200081b576040519150601f19603f3d011682016040523d82523d6000602084013e62000820565b606091505b50915091508162000868576040517f08c379a00000000000000000000000000000000000000000000000000000000081526004016200085f9062001803565b60405180910390fd5b5050505b8173ffffffffffffffffffffffffffffffffffffffff166339ecacac33346040518363ffffffff1660e01b8152600401620008a9929190620016a5565b600060405180830381600087803b158015620008c457600080fd5b505af1158015620008d9573d6000803e3d6000fd5b505050505050919050565b606060018054806020026020016040519081016040528092919081815260200182805480156200096a57602002820191906000526020600020905b8160009054906101000a900473ffffffffffffffffffffffffffffffffffffffff1673ffffffffffffffffffffffffffffffffffffffff16815260200190600101908083116200091f575b5050505050905090565b60008054906101000a900473ffffffffffffffffffffffffffffffffffffffff1681565b6000828233604051620009ab9062001130565b620009b99392919062001737565b604051809103906000f080158015620009d6573d6000803e3d6000fd5b5090506001819080600181540180825580915050600190039060005260206000200160009091909190916101000a81548173ffffffffffffffffffffffffffffffffffffffff021916908373ffffffffffffffffffffffffffffffffffffffff160217905550505050565b60008160008190508073ffffffffffffffffffffffffffffffffffffffff16638da5cb5b6040518163ffffffff1660e01b815260040160206040518083038186803b15801562000a9057600080fd5b505afa15801562000aa5573d6000803e3d6000fd5b505050506040513d601f19601f8201168201806040525081019062000acb919062001278565b73ffffffffffffffffffffffffffffffffffffffff163373ffffffffffffffffffffffffffffffffffffffff161462000b3b576040517f08c379a000000000000000000000000000000000000000000000000000000000815260040162000b329062001825565b60405180910390fd5b8392505050919050565b8160008190508073ffffffffffffffffffffffffffffffffffffffff16638da5cb5b6040518163ffffffff1660e01b815260040160206040518083038186803b15801562000b9257600080fd5b505afa15801562000ba7573d6000803e3d6000fd5b505050506040513d601f19601f8201168201806040525081019062000bcd919062001278565b73ffffffffffffffffffffffffffffffffffffffff163373ffffffffffffffffffffffffffffffffffffffff161462000c3d576040517f08c379a000000000000000000000000000000000000000000000000000000000815260040162000c349062001825565b60405180910390fd5b60008490508073ffffffffffffffffffffffffffffffffffffffff166302a214606040518163ffffffff1660e01b815260040160206040518083038186803b15801562000c8957600080fd5b505afa15801562000c9e573d6000803e3d6000fd5b505050506040513d601f19601f8201168201806040525081019062000cc49190620012f1565b1562000d07576040517f08c379a000000000000000000000000000000000000000000000000000000000815260040162000cfe9062001847565b60405180910390fd5b60648460ff16111562000d51576040517f08c379a000000000000000000000000000000000000000000000000000000000815260040162000d4890620018ad565b60405180910390fd5b8073ffffffffffffffffffffffffffffffffffffffff1663401938836040518163ffffffff1660e01b815260040160206040518083038186803b15801562000d9857600080fd5b505afa15801562000dad573d6000803e3d6000fd5b505050506040513d601f19601f8201168201806040525081019062000dd3919062001389565b8173ffffffffffffffffffffffffffffffffffffffff16632ddbd13a6040518163ffffffff1660e01b815260040160206040518083038186803b15801562000e1a57600080fd5b505afa15801562000e2f573d6000803e3d6000fd5b505050506040513d601f19601f8201168201806040525081019062000e55919062001389565b1462000e98576040517f08c379a000000000000000000000000000000000000000000000000000000000815260040162000e8f906200188b565b60405180910390fd5b600060648560ff168373ffffffffffffffffffffffffffffffffffffffff16632ddbd13a6040518163ffffffff1660e01b815260040160206040518083038186803b15801562000ee757600080fd5b505afa15801562000efc573d6000803e3d6000fd5b505050506040513d601f19601f8201168201806040525081019062000f22919062001389565b62000f2e919062001a40565b62000f3a919062001a08565b90508173ffffffffffffffffffffffffffffffffffffffff16632ddbd13a6040518163ffffffff1660e01b815260040160206040518083038186803b15801562000f8357600080fd5b505afa15801562000f98573d6000803e3d6000fd5b505050506040513d601f19601f8201168201806040525081019062000fbe919062001389565b811062001002576040517f08c379a000000000000000000000000000000000000000000000000000000000815260040162000ff990620017bf565b60405180910390fd5b8173ffffffffffffffffffffffffffffffffffffffff1663b2a18974826040518263ffffffff1660e01b81526004016200103d9190620018cf565b600060405180830381600087803b1580156200105857600080fd5b505af11580156200106d573d6000803e3d6000fd5b505050506000803373ffffffffffffffffffffffffffffffffffffffff16836040516200109a9062001671565b60006040518083038185875af1925050503d8060008114620010d9576040519150601f19603f3d011682016040523d82523d6000602084013e620010de565b606091505b50915091508162001126576040517f08c379a00000000000000000000000000000000000000000000000000000000081526004016200111d906200179d565b60405180910390fd5b5050505050505050565b610faf8062001f6083390190565b6000620011556200114f8462001915565b620018ec565b90508281526020810184848401111562001174576200117362001c7c565b5b6200118184828562001b6f565b509392505050565b6000813590506200119a8162001ef7565b92915050565b600081519050620011b18162001ef7565b92915050565b600081519050620011c88162001f11565b92915050565b600082601f830112620011e657620011e562001c77565b5b8135620011f88482602086016200113e565b91505092915050565b600081359050620012128162001f2b565b92915050565b600081519050620012298162001f2b565b92915050565b600081359050620012408162001f45565b92915050565b6000602082840312156200125f576200125e62001c86565b5b60006200126f8482850162001189565b91505092915050565b60006020828403121562001291576200129062001c86565b5b6000620012a184828501620011a0565b91505092915050565b60008060408385031215620012c457620012c362001c86565b5b6000620012d48582860162001189565b9250506020620012e7858286016200122f565b9150509250929050565b6000602082840312156200130a576200130962001c86565b5b60006200131a84828501620011b7565b91505092915050565b600080604083850312156200133d576200133c62001c86565b5b600083013567ffffffffffffffff8111156200135e576200135d62001c81565b5b6200136c85828601620011ce565b92505060206200137f8582860162001201565b9150509250929050565b600060208284031215620013a257620013a162001c86565b5b6000620013b28482850162001218565b91505092915050565b6000620013c98383620013d5565b60208301905092915050565b620013e08162001adc565b82525050565b620013f18162001adc565b82525050565b600062001404826200195b565b6200141081856200197e565b93506200141d836200194b565b8060005b8381101562001454578151620014388882620013bb565b9750620014458362001971565b92505060018101905062001421565b5085935050505092915050565b6200146c8162001b33565b82525050565b60006200147f8262001966565b6200148b81856200199a565b93506200149d81856020860162001b7e565b620014a88162001c8b565b840191505092915050565b6000620014c2602a836200199a565b9150620014cf8262001c9c565b604082019050919050565b6000620014e96026836200199a565b9150620014f68262001ceb565b604082019050919050565b6000620015106013836200199a565b91506200151d8262001d3a565b602082019050919050565b6000620015376011836200199a565b9150620015448262001d63565b602082019050919050565b60006200155e6014836200199a565b91506200156b8262001d8c565b602082019050919050565b6000620015856033836200199a565b9150620015928262001db5565b604082019050919050565b6000620015ac6014836200199a565b9150620015b98262001e04565b602082019050919050565b6000620015d36025836200199a565b9150620015e08262001e2d565b604082019050919050565b6000620015fa6024836200199a565b9150620016078262001e7c565b604082019050919050565b6000620016216000836200198f565b91506200162e8262001ecb565b600082019050919050565b6000620016486018836200199a565b9150620016558262001ece565b602082019050919050565b6200166b8162001b1c565b82525050565b60006200167e8262001612565b9150819050919050565b60006020820190506200169f6000830184620013e6565b92915050565b6000604082019050620016bc6000830185620013e6565b620016cb602083018462001660565b9392505050565b60006020820190508181036000830152620016ee8184620013f7565b905092915050565b60006020820190506200170d600083018462001461565b92915050565b600060208201905081810360008301526200172f818462001472565b905092915050565b6000606082019050818103600083015262001753818662001472565b905062001764602083018562001660565b620017736040830184620013e6565b949350505050565b600060208201905081810360008301526200179681620014b3565b9050919050565b60006020820190508181036000830152620017b881620014da565b9050919050565b60006020820190508181036000830152620017da8162001501565b9050919050565b60006020820190508181036000830152620017fc8162001528565b9050919050565b600060208201905081810360008301526200181e816200154f565b9050919050565b60006020820190508181036000830152620018408162001576565b9050919050565b6000602082019050818103600083015262001862816200159d565b9050919050565b600060208201905081810360008301526200188481620015c4565b9050919050565b60006020820190508181036000830152620018a681620015eb565b9050919050565b60006020820190508181036000830152620018c88162001639565b9050919050565b6000602082019050620018e6600083018462001660565b92915050565b6000620018f86200190b565b905062001906828262001bb4565b919050565b6000604051905090565b600067ffffffffffffffff82111562001933576200193262001c48565b5b6200193e8262001c8b565b9050602081019050919050565b6000819050602082019050919050565b600081519050919050565b600081519050919050565b6000602082019050919050565b600082825260208201905092915050565b600081905092915050565b600082825260208201905092915050565b6000620019b88262001b1c565b9150620019c58362001b1c565b9250827fffffffffffffffffffffffffffffffffffffffffffffffffffffffffffffffff03821115620019fd57620019fc62001bea565b5b828201905092915050565b600062001a158262001b1c565b915062001a228362001b1c565b92508262001a355762001a3462001c19565b5b828204905092915050565b600062001a4d8262001b1c565b915062001a5a8362001b1c565b9250817fffffffffffffffffffffffffffffffffffffffffffffffffffffffffffffffff048311821515161562001a965762001a9562001bea565b5b828202905092915050565b600062001aae8262001b1c565b915062001abb8362001b1c565b92508282101562001ad15762001ad062001bea565b5b828203905092915050565b600062001ae98262001afc565b9050919050565b60008115159050919050565b600073ffffffffffffffffffffffffffffffffffffffff82169050919050565b6000819050919050565b600060ff82169050919050565b600062001b408262001b47565b9050919050565b600062001b548262001b5b565b9050919050565b600062001b688262001afc565b9050919050565b82818337600083830152505050565b60005b8381101562001b9e57808201518184015260208101905062001b81565b8381111562001bae576000848401525b50505050565b62001bbf8262001c8b565b810181811067ffffffffffffffff8211171562001be15762001be062001c48565b5b80604052505050565b7f4e487b7100000000000000000000000000000000000000000000000000000000600052601160045260246000fd5b7f4e487b7100000000000000000000000000000000000000000000000000000000600052601260045260246000fd5b7f4e487b7100000000000000000000000000000000000000000000000000000000600052604160045260246000fd5b600080fd5b600080fd5b600080fd5b600080fd5b6000601f19601f8301169050919050565b7f476f616c20416368696576656421204e6f206d6f72652066756e64732061726560008201527f2061636365707465642e00000000000000000000000000000000000000000000602082015250565b7f5769746864726177204661696c6564203a204661696c656420746f2073656e6460008201527f2045746865720000000000000000000000000000000000000000000000000000602082015250565b7f496e73756666696369656e742046756e64732e00000000000000000000000000600082015250565b7f5265737472696374656420416363657373000000000000000000000000000000600082015250565b7f4661696c656420746f2073656e64204574686572000000000000000000000000600082015250565b7f4572726f722120596f7520617265206e6f7420746865206f776e6572206f662060008201527f7468652063757272656e742070726f6a65637400000000000000000000000000602082015250565b7f50726f6a65637420697320617263686965766564000000000000000000000000600082015250565b7f436f6e747269627574696f6e20616d6f756e74206c657373207468616e204d6960008201527f6e696d756d000000000000000000000000000000000000000000000000000000602082015250565b7f4572726f72212050726f6a65637420476f616c20686173206e6f74206265656e60008201527f206d657400000000000000000000000000000000000000000000000000000000602082015250565b50565b7f496e76616c69642050657263656e746167652056616c75650000000000000000600082015250565b62001f028162001adc565b811462001f0e57600080fd5b50565b62001f1c8162001af0565b811462001f2857600080fd5b50565b62001f368162001b1c565b811462001f4257600080fd5b50565b62001f508162001b26565b811462001f5c57600080fd5b5056fe60806040523480156200001157600080fd5b5060405162000faf38038062000faf83398181016040528101906200003791906200027c565b806000806101000a81548173ffffffffffffffffffffffffffffffffffffffff021916908373ffffffffffffffffffffffffffffffffffffffff16021790555082600190805190602001906200008f92919062000120565b50670de0b6b3a764000082620000a6919062000356565b6002819055506000600360006101000a81548160ff0219169083151502179055504260048190555080600560006101000a81548173ffffffffffffffffffffffffffffffffffffffff021916908373ffffffffffffffffffffffffffffffffffffffff16021790555060006006819055505050506200057d565b8280546200012e906200042b565b90600052602060002090601f0160209004810192826200015257600085556200019e565b82601f106200016d57805160ff19168380011785556200019e565b828001600101855582156200019e579182015b828111156200019d57825182559160200191906001019062000180565b5b509050620001ad9190620001b1565b5090565b5b80821115620001cc576000816000905550600101620001b2565b5090565b6000620001e7620001e18462000320565b620002f7565b90508281526020810184848401111562000206576200020562000529565b5b62000213848285620003f5565b509392505050565b6000815190506200022c8162000549565b92915050565b600082601f8301126200024a576200024962000524565b5b81516200025c848260208601620001d0565b91505092915050565b600081519050620002768162000563565b92915050565b60008060006060848603121562000298576200029762000533565b5b600084015167ffffffffffffffff811115620002b957620002b86200052e565b5b620002c78682870162000232565b9350506020620002da8682870162000265565b9250506040620002ed868287016200021b565b9150509250925092565b60006200030362000316565b905062000311828262000461565b919050565b6000604051905090565b600067ffffffffffffffff8211156200033e576200033d620004f5565b5b620003498262000538565b9050602081019050919050565b60006200036382620003eb565b91506200037083620003eb565b9250817fffffffffffffffffffffffffffffffffffffffffffffffffffffffffffffffff0483118215151615620003ac57620003ab62000497565b5b828202905092915050565b6000620003c482620003cb565b9050919050565b600073ffffffffffffffffffffffffffffffffffffffff82169050919050565b6000819050919050565b60005b8381101562000415578082015181840152602081019050620003f8565b8381111562000425576000848401525b50505050565b600060028204905060018216806200044457607f821691505b602082108114156200045b576200045a620004c6565b5b50919050565b6200046c8262000538565b810181811067ffffffffffffffff821117156200048e576200048d620004f5565b5b80604052505050565b7f4e487b7100000000000000000000000000000000000000000000000000000000600052601160045260246000fd5b7f4e487b7100000000000000000000000000000000000000000000000000000000600052602260045260246000fd5b7f4e487b7100000000000000000000000000000000000000000000000000000000600052604160045260246000fd5b600080fd5b600080fd5b600080fd5b600080fd5b6000601f19601f8301169050919050565b6200055481620003b7565b81146200056057600080fd5b50565b6200056e81620003eb565b81146200057a57600080fd5b50565b610a22806200058d6000396000f3fe608060405234801561001057600080fd5b50600436106100935760003560e01c80633cb5d100116100665780633cb5d1001461010e578063401938831461013f57806343d726d61461015d5780638da5cb5b14610167578063b2a189741461018557610093565b806302a214601461009857806306fdde03146100b65780632ddbd13a146100d457806339ecacac146100f2575b600080fd5b6100a06101a1565b6040516100ad91906106aa565b60405180910390f35b6100be6101b4565b6040516100cb91906106c5565b60405180910390f35b6100dc610242565b6040516100e99190610707565b60405180910390f35b61010c60048036038101906101079190610538565b610248565b005b61012860048036038101906101239190610578565b61030e565b604051610136929190610681565b60405180910390f35b610147610362565b6040516101549190610707565b60405180910390f35b610165610368565b005b61016f6104d1565b60405161017c9190610666565b60405180910390f35b61019f600480360381019061019a9190610578565b6104f7565b005b600360009054906101000a900460ff1681565b600180546101c19061084e565b80601f01602080910402602001604051908101604052809291908181526020018280546101ed9061084e565b801561023a5780601f1061020f5761010080835404028352916020019161023a565b820191906000526020600020905b81548152906001019060200180831161021d57829003601f168201915b505050505081565b60065481565b600760405180604001604052808473ffffffffffffffffffffffffffffffffffffffff16815260200183815250908060018154018082558091505060019003906000526020600020906002020160009091909190915060008201518160000160006101000a81548173ffffffffffffffffffffffffffffffffffffffff021916908373ffffffffffffffffffffffffffffffffffffffff16021790555060208201518160010155505080600660008282546103039190610749565b925050819055505050565b6007818154811061031e57600080fd5b90600052602060002090600202016000915090508060000160009054906101000a900473ffffffffffffffffffffffffffffffffffffffff16908060010154905082565b60025481565b6001600360006101000a81548160ff021916908315150217905550600060068190555060005b6007805490508110156104ce576000600782815481106103b1576103b0610927565b5b906000526020600020906002020160000160009054906101000a900473ffffffffffffffffffffffffffffffffffffffff1690506000808273ffffffffffffffffffffffffffffffffffffffff166007858154811061041357610412610927565b5b90600052602060002090600202016001015460405161043190610651565b60006040518083038185875af1925050503d806000811461046e576040519150601f19603f3d011682016040523d82523d6000602084013e610473565b606091505b5091509150816104b8576040517f08c379a00000000000000000000000000000000000000000000000000000000081526004016104af906106e7565b60405180910390fd5b50505080806104c690610880565b91505061038e565b50565b600560009054906101000a900473ffffffffffffffffffffffffffffffffffffffff1681565b80600654610505919061079f565b60068190555050565b60008135905061051d816109be565b92915050565b600081359050610532816109d5565b92915050565b6000806040838503121561054f5761054e610956565b5b600061055d8582860161050e565b925050602061056e85828601610523565b9150509250929050565b60006020828403121561058e5761058d610956565b5b600061059c84828501610523565b91505092915050565b6105ae816107d3565b82525050565b6105bd816107e5565b82525050565b60006105ce82610722565b6105d88185610738565b93506105e881856020860161081b565b6105f18161095b565b840191505092915050565b600061060960008361072d565b91506106148261096c565b600082019050919050565b600061062c602883610738565b91506106378261096f565b604082019050919050565b61064b81610811565b82525050565b600061065c826105fc565b9150819050919050565b600060208201905061067b60008301846105a5565b92915050565b600060408201905061069660008301856105a5565b6106a36020830184610642565b9392505050565b60006020820190506106bf60008301846105b4565b92915050565b600060208201905081810360008301526106df81846105c3565b905092915050565b600060208201905081810360008301526107008161061f565b9050919050565b600060208201905061071c6000830184610642565b92915050565b600081519050919050565b600081905092915050565b600082825260208201905092915050565b600061075482610811565b915061075f83610811565b9250827fffffffffffffffffffffffffffffffffffffffffffffffffffffffffffffffff03821115610794576107936108c9565b5b828201905092915050565b60006107aa82610811565b91506107b583610811565b9250828210156107c8576107c76108c9565b5b828203905092915050565b60006107de826107f1565b9050919050565b60008115159050919050565b600073ffffffffffffffffffffffffffffffffffffffff82169050919050565b6000819050919050565b60005b8381101561083957808201518184015260208101905061081e565b83811115610848576000848401525b50505050565b6000600282049050600182168061086657607f821691505b6020821081141561087a576108796108f8565b5b50919050565b600061088b82610811565b91507fffffffffffffffffffffffffffffffffffffffffffffffffffffffffffffffff8214156108be576108bd6108c9565b5b600182019050919050565b7f4e487b7100000000000000000000000000000000000000000000000000000000600052601160045260246000fd5b7f4e487b7100000000000000000000000000000000000000000000000000000000600052602260045260246000fd5b7f4e487b7100000000000000000000000000000000000000000000000000000000600052603260045260246000fd5b600080fd5b6000601f19601f8301169050919050565b50565b7f4661696c656420746f2073656e6420457468657220746f2074686520636f6e7460008201527f72696275746f7273000000000000000000000000000000000000000000000000602082015250565b6109c7816107d3565b81146109d257600080fd5b50565b6109de81610811565b81146109e957600080fd5b5056fea26469706673582212206de7b0d20dd21c817b31a838ee86cef61db700b7db2051796e3533958092459d64736f6c63430008070033a264697066735822122096eb6f3b85fa0c4e1d8c0d5d6453783da3e49e4ea07e4faeabd1224c6ee8b48164736f6c63430008070033",
  "linkReferences": {},
  "deployedLinkReferences": {}
}