{
  "_format": "hh-sol-artifact-1",
  "contractName": "Project",
  "sourceName": "contracts/KickStarterFactory.sol",
  "abi": [
    {
      "inputs": [
        {
          "internalType": "string",
          "name": "_name",
          "type": "string"
        },
        {
          "internalType": "uint256",
          "name": "_goal",
          "type": "uint256"
        },
        {
          "internalType": "address",
          "name": "_owner",
          "type": "address"
        }
      ],
      "stateMutability": "nonpayable",
      "type": "constructor"
    },
    {
      "inputs": [
        {
          "internalType": "address",
          "name": "_from",
          "type": "address"
        },
        {
          "internalType": "uint256",
          "name": "_amount",
          "type": "uint256"
        }
      ],
      "name": "addContribution",
      "outputs": [],
      "stateMutability": "nonpayable",
      "type": "function"
    },
    {
      "inputs": [],
      "name": "archive",
      "outputs": [
        {
          "internalType": "bool",
          "name": "",
          "type": "bool"
        }
      ],
      "stateMutability": "view",
      "type": "function"
    },
    {
      "inputs": [],
      "name": "close",
      "outputs": [],
      "stateMutability": "nonpayable",
      "type": "function"
    },
    {
      "inputs": [
        {
          "internalType": "uint256",
          "name": "",
          "type": "uint256"
        }
      ],
      "name": "contributors",
      "outputs": [
        {
          "internalType": "address",
          "name": "from",
          "type": "address"
        },
        {
          "internalType": "uint256",
          "name": "amount",
          "type": "uint256"
        }
      ],
      "stateMutability": "view",
      "type": "function"
    },
    {
      "inputs": [],
      "name": "goal",
      "outputs": [
        {
          "internalType": "uint256",
          "name": "",
          "type": "uint256"
        }
      ],
      "stateMutability": "view",
      "type": "function"
    },
    {
      "inputs": [],
      "name": "name",
      "outputs": [
        {
          "internalType": "string",
          "name": "",
          "type": "string"
        }
      ],
      "stateMutability": "view",
      "type": "function"
    },
    {
      "inputs": [],
      "name": "owner",
      "outputs": [
        {
          "internalType": "address",
          "name": "",
          "type": "address"
        }
      ],
      "stateMutability": "view",
      "type": "function"
    },
    {
      "inputs": [
        {
          "internalType": "uint256",
          "name": "_amount",
          "type": "uint256"
        }
      ],
      "name": "reduceContribution",
      "outputs": [],
      "stateMutability": "nonpayable",
      "type": "function"
    },
    {
      "inputs": [],
      "name": "total",
      "outputs": [
        {
          "internalType": "uint256",
          "name": "",
          "type": "uint256"
        }
      ],
      "stateMutability": "view",
      "type": "function"
    }
  ],
  "bytecode": "0x60806040523480156200001157600080fd5b5060405162000faf38038062000faf83398181016040528101906200003791906200027c565b806000806101000a81548173ffffffffffffffffffffffffffffffffffffffff021916908373ffffffffffffffffffffffffffffffffffffffff16021790555082600190805190602001906200008f92919062000120565b50670de0b6b3a764000082620000a6919062000356565b6002819055506000600360006101000a81548160ff0219169083151502179055504260048190555080600560006101000a81548173ffffffffffffffffffffffffffffffffffffffff021916908373ffffffffffffffffffffffffffffffffffffffff16021790555060006006819055505050506200057d565b8280546200012e906200042b565b90600052602060002090601f0160209004810192826200015257600085556200019e565b82601f106200016d57805160ff19168380011785556200019e565b828001600101855582156200019e579182015b828111156200019d57825182559160200191906001019062000180565b5b509050620001ad9190620001b1565b5090565b5b80821115620001cc576000816000905550600101620001b2565b5090565b6000620001e7620001e18462000320565b620002f7565b90508281526020810184848401111562000206576200020562000529565b5b62000213848285620003f5565b509392505050565b6000815190506200022c8162000549565b92915050565b600082601f8301126200024a576200024962000524565b5b81516200025c848260208601620001d0565b91505092915050565b600081519050620002768162000563565b92915050565b60008060006060848603121562000298576200029762000533565b5b600084015167ffffffffffffffff811115620002b957620002b86200052e565b5b620002c78682870162000232565b9350506020620002da8682870162000265565b9250506040620002ed868287016200021b565b9150509250925092565b60006200030362000316565b905062000311828262000461565b919050565b6000604051905090565b600067ffffffffffffffff8211156200033e576200033d620004f5565b5b620003498262000538565b9050602081019050919050565b60006200036382620003eb565b91506200037083620003eb565b9250817fffffffffffffffffffffffffffffffffffffffffffffffffffffffffffffffff0483118215151615620003ac57620003ab62000497565b5b828202905092915050565b6000620003c482620003cb565b9050919050565b600073ffffffffffffffffffffffffffffffffffffffff82169050919050565b6000819050919050565b60005b8381101562000415578082015181840152602081019050620003f8565b8381111562000425576000848401525b50505050565b600060028204905060018216806200044457607f821691505b602082108114156200045b576200045a620004c6565b5b50919050565b6200046c8262000538565b810181811067ffffffffffffffff821117156200048e576200048d620004f5565b5b80604052505050565b7f4e487b7100000000000000000000000000000000000000000000000000000000600052601160045260246000fd5b7f4e487b7100000000000000000000000000000000000000000000000000000000600052602260045260246000fd5b7f4e487b7100000000000000000000000000000000000000000000000000000000600052604160045260246000fd5b600080fd5b600080fd5b600080fd5b600080fd5b6000601f19601f8301169050919050565b6200055481620003b7565b81146200056057600080fd5b50565b6200056e81620003eb565b81146200057a57600080fd5b50565b610a22806200058d6000396000f3fe608060405234801561001057600080fd5b50600436106100935760003560e01c80633cb5d100116100665780633cb5d1001461010e578063401938831461013f57806343d726d61461015d5780638da5cb5b14610167578063b2a189741461018557610093565b806302a214601461009857806306fdde03146100b65780632ddbd13a146100d457806339ecacac146100f2575b600080fd5b6100a06101a1565b6040516100ad91906106aa565b60405180910390f35b6100be6101b4565b6040516100cb91906106c5565b60405180910390f35b6100dc610242565b6040516100e99190610707565b60405180910390f35b61010c60048036038101906101079190610538565b610248565b005b61012860048036038101906101239190610578565b61030e565b604051610136929190610681565b60405180910390f35b610147610362565b6040516101549190610707565b60405180910390f35b610165610368565b005b61016f6104d1565b60405161017c9190610666565b60405180910390f35b61019f600480360381019061019a9190610578565b6104f7565b005b600360009054906101000a900460ff1681565b600180546101c19061084e565b80601f01602080910402602001604051908101604052809291908181526020018280546101ed9061084e565b801561023a5780601f1061020f5761010080835404028352916020019161023a565b820191906000526020600020905b81548152906001019060200180831161021d57829003601f168201915b505050505081565b60065481565b600760405180604001604052808473ffffffffffffffffffffffffffffffffffffffff16815260200183815250908060018154018082558091505060019003906000526020600020906002020160009091909190915060008201518160000160006101000a81548173ffffffffffffffffffffffffffffffffffffffff021916908373ffffffffffffffffffffffffffffffffffffffff16021790555060208201518160010155505080600660008282546103039190610749565b925050819055505050565b6007818154811061031e57600080fd5b90600052602060002090600202016000915090508060000160009054906101000a900473ffffffffffffffffffffffffffffffffffffffff16908060010154905082565b60025481565b6001600360006101000a81548160ff021916908315150217905550600060068190555060005b6007805490508110156104ce576000600782815481106103b1576103b0610927565b5b906000526020600020906002020160000160009054906101000a900473ffffffffffffffffffffffffffffffffffffffff1690506000808273ffffffffffffffffffffffffffffffffffffffff166007858154811061041357610412610927565b5b90600052602060002090600202016001015460405161043190610651565b60006040518083038185875af1925050503d806000811461046e576040519150601f19603f3d011682016040523d82523d6000602084013e610473565b606091505b5091509150816104b8576040517f08c379a00000000000000000000000000000000000000000000000000000000081526004016104af906106e7565b60405180910390fd5b50505080806104c690610880565b91505061038e565b50565b600560009054906101000a900473ffffffffffffffffffffffffffffffffffffffff1681565b80600654610505919061079f565b60068190555050565b60008135905061051d816109be565b92915050565b600081359050610532816109d5565b92915050565b6000806040838503121561054f5761054e610956565b5b600061055d8582860161050e565b925050602061056e85828601610523565b9150509250929050565b60006020828403121561058e5761058d610956565b5b600061059c84828501610523565b91505092915050565b6105ae816107d3565b82525050565b6105bd816107e5565b82525050565b60006105ce82610722565b6105d88185610738565b93506105e881856020860161081b565b6105f18161095b565b840191505092915050565b600061060960008361072d565b91506106148261096c565b600082019050919050565b600061062c602883610738565b91506106378261096f565b604082019050919050565b61064b81610811565b82525050565b600061065c826105fc565b9150819050919050565b600060208201905061067b60008301846105a5565b92915050565b600060408201905061069660008301856105a5565b6106a36020830184610642565b9392505050565b60006020820190506106bf60008301846105b4565b92915050565b600060208201905081810360008301526106df81846105c3565b905092915050565b600060208201905081810360008301526107008161061f565b9050919050565b600060208201905061071c6000830184610642565b92915050565b600081519050919050565b600081905092915050565b600082825260208201905092915050565b600061075482610811565b915061075f83610811565b9250827fffffffffffffffffffffffffffffffffffffffffffffffffffffffffffffffff03821115610794576107936108c9565b5b828201905092915050565b60006107aa82610811565b91506107b583610811565b9250828210156107c8576107c76108c9565b5b828203905092915050565b60006107de826107f1565b9050919050565b60008115159050919050565b600073ffffffffffffffffffffffffffffffffffffffff82169050919050565b6000819050919050565b60005b8381101561083957808201518184015260208101905061081e565b83811115610848576000848401525b50505050565b6000600282049050600182168061086657607f821691505b6020821081141561087a576108796108f8565b5b50919050565b600061088b82610811565b91507fffffffffffffffffffffffffffffffffffffffffffffffffffffffffffffffff8214156108be576108bd6108c9565b5b600182019050919050565b7f4e487b7100000000000000000000000000000000000000000000000000000000600052601160045260246000fd5b7f4e487b7100000000000000000000000000000000000000000000000000000000600052602260045260246000fd5b7f4e487b7100000000000000000000000000000000000000000000000000000000600052603260045260246000fd5b600080fd5b6000601f19601f8301169050919050565b50565b7f4661696c656420746f2073656e6420457468657220746f2074686520636f6e7460008201527f72696275746f7273000000000000000000000000000000000000000000000000602082015250565b6109c7816107d3565b81146109d257600080fd5b50565b6109de81610811565b81146109e957600080fd5b5056fea26469706673582212206de7b0d20dd21c817b31a838ee86cef61db700b7db2051796e3533958092459d64736f6c63430008070033",
  "linkReferences": {},
  "deployedLinkReferences": {}
}