{
  "_format": "hh-sol-artifact-1",
  "contractName": "Project",
  "sourceName": "contracts/KickStarterFactory.sol",
  "abi": [
    {
      "inputs": [
        {
          "internalType": "string",
          "name": "_name",
          "type": "string"
        },
        {
          "internalType": "uint256",
          "name": "_goal",
          "type": "uint256"
        },
        {
          "internalType": "address",
          "name": "_owner",
          "type": "address"
        }
      ],
      "stateMutability": "nonpayable",
      "type": "constructor"
    },
    {
      "anonymous": false,
      "inputs": [
        {
          "indexed": false,
          "internalType": "string",
          "name": "message",
          "type": "string"
        }
      ],
      "name": "ContributionReceived",
      "type": "event"
    },
    {
      "anonymous": false,
      "inputs": [
        {
          "indexed": false,
          "internalType": "string",
          "name": "message",
          "type": "string"
        }
      ],
      "name": "Withdraw",
      "type": "event"
    },
    {
      "inputs": [],
      "name": "archive",
      "outputs": [
        {
          "internalType": "bool",
          "name": "",
          "type": "bool"
        }
      ],
      "stateMutability": "view",
      "type": "function"
    },
    {
      "inputs": [],
      "name": "close",
      "outputs": [],
      "stateMutability": "payable",
      "type": "function"
    },
    {
      "inputs": [],
      "name": "contribute",
      "outputs": [],
      "stateMutability": "payable",
      "type": "function"
    },
    {
      "inputs": [],
      "name": "created",
      "outputs": [
        {
          "internalType": "uint256",
          "name": "",
          "type": "uint256"
        }
      ],
      "stateMutability": "view",
      "type": "function"
    },
    {
      "inputs": [],
      "name": "fail",
      "outputs": [],
      "stateMutability": "nonpayable",
      "type": "function"
    },
    {
      "inputs": [],
      "name": "getBalance",
      "outputs": [
        {
          "internalType": "uint256",
          "name": "",
          "type": "uint256"
        }
      ],
      "stateMutability": "view",
      "type": "function"
    },
    {
      "inputs": [],
      "name": "getName",
      "outputs": [
        {
          "internalType": "string",
          "name": "",
          "type": "string"
        }
      ],
      "stateMutability": "view",
      "type": "function"
    },
    {
      "inputs": [],
      "name": "goal",
      "outputs": [
        {
          "internalType": "uint256",
          "name": "",
          "type": "uint256"
        }
      ],
      "stateMutability": "view",
      "type": "function"
    },
    {
      "inputs": [],
      "name": "name",
      "outputs": [
        {
          "internalType": "string",
          "name": "",
          "type": "string"
        }
      ],
      "stateMutability": "view",
      "type": "function"
    },
    {
      "inputs": [],
      "name": "owner",
      "outputs": [
        {
          "internalType": "address",
          "name": "",
          "type": "address"
        }
      ],
      "stateMutability": "view",
      "type": "function"
    },
    {
      "inputs": [
        {
          "internalType": "uint256",
          "name": "tokenId",
          "type": "uint256"
        }
      ],
      "name": "ownerOf",
      "outputs": [
        {
          "internalType": "address",
          "name": "",
          "type": "address"
        }
      ],
      "stateMutability": "view",
      "type": "function"
    },
    {
      "inputs": [],
      "name": "refund",
      "outputs": [],
      "stateMutability": "payable",
      "type": "function"
    },
    {
      "inputs": [],
      "name": "total",
      "outputs": [
        {
          "internalType": "uint256",
          "name": "",
          "type": "uint256"
        }
      ],
      "stateMutability": "view",
      "type": "function"
    },
    {
      "inputs": [
        {
          "internalType": "uint8",
          "name": "percentage",
          "type": "uint8"
        }
      ],
      "name": "withdraw",
      "outputs": [],
      "stateMutability": "payable",
      "type": "function"
    }
  ],
  "bytecode": "0x60806040523480156200001157600080fd5b50604051620021f3380380620021f3833981810160405281019062000037919062000227565b82600090805190602001906200004f929190620000cb565b50816001819055504260028190555080600360006101000a81548173ffffffffffffffffffffffffffffffffffffffff021916908373ffffffffffffffffffffffffffffffffffffffff1602179055506000600560006101000a81548160ff021916908315150217905550600060048190555050505062000498565b828054620000d99062000375565b90600052602060002090601f016020900481019282620000fd576000855562000149565b82601f106200011857805160ff191683800117855562000149565b8280016001018555821562000149579182015b82811115620001485782518255916020019190600101906200012b565b5b5090506200015891906200015c565b5090565b5b80821115620001775760008160009055506001016200015d565b5090565b6000620001926200018c84620002cb565b620002a2565b905082815260208101848484011115620001b157620001b062000444565b5b620001be8482856200033f565b509392505050565b600081519050620001d78162000464565b92915050565b600082601f830112620001f557620001f46200043f565b5b8151620002078482602086016200017b565b91505092915050565b60008151905062000221816200047e565b92915050565b6000806000606084860312156200024357620002426200044e565b5b600084015167ffffffffffffffff81111562000264576200026362000449565b5b6200027286828701620001dd565b9350506020620002858682870162000210565b92505060406200029886828701620001c6565b9150509250925092565b6000620002ae620002c1565b9050620002bc8282620003ab565b919050565b6000604051905090565b600067ffffffffffffffff821115620002e957620002e862000410565b5b620002f48262000453565b9050602081019050919050565b60006200030e8262000315565b9050919050565b600073ffffffffffffffffffffffffffffffffffffffff82169050919050565b6000819050919050565b60005b838110156200035f57808201518184015260208101905062000342565b838111156200036f576000848401525b50505050565b600060028204905060018216806200038e57607f821691505b60208210811415620003a557620003a4620003e1565b5b50919050565b620003b68262000453565b810181811067ffffffffffffffff82111715620003d857620003d762000410565b5b80604052505050565b7f4e487b7100000000000000000000000000000000000000000000000000000000600052602260045260246000fd5b7f4e487b7100000000000000000000000000000000000000000000000000000000600052604160045260246000fd5b600080fd5b600080fd5b600080fd5b600080fd5b6000601f19601f8301169050919050565b6200046f8162000301565b81146200047b57600080fd5b50565b620004898162000335565b81146200049557600080fd5b50565b611d4b80620004a86000396000f3fe6080604052600436106100dd5760003560e01c806343d726d61161007f5780638da5cb5b116100595780638da5cb5b14610260578063a9cc47181461028b578063c6ab5d90146102a2578063d7bb99ba146102be576100dd565b806343d726d61461020f578063590e1ae3146102195780636352211e14610223576100dd565b806317d7de7c116100bb57806317d7de7c146101635780632ddbd13a1461018e578063325a19f1146101b957806340193883146101e4576100dd565b806302a21460146100e257806306fdde031461010d57806312065fe014610138575b600080fd5b3480156100ee57600080fd5b506100f76102c8565b6040516101049190611300565b60405180910390f35b34801561011957600080fd5b506101226102db565b60405161012f919061131b565b60405180910390f35b34801561014457600080fd5b5061014d610369565b60405161015a919061155d565b60405180910390f35b34801561016f57600080fd5b50610178610371565b604051610185919061131b565b60405180910390f35b34801561019a57600080fd5b506101a3610403565b6040516101b0919061155d565b60405180910390f35b3480156101c557600080fd5b506101ce610409565b6040516101db919061155d565b60405180910390f35b3480156101f057600080fd5b506101f961040f565b604051610206919061155d565b60405180910390f35b610217610415565b005b61022161057a565b005b34801561022f57600080fd5b5061024a60048036038101906102459190610f9a565b6106cb565b60405161025791906112e5565b60405180910390f35b34801561026c57600080fd5b50610275610708565b60405161028291906112e5565b60405180910390f35b34801561029757600080fd5b506102a061072e565b005b6102bc60048036038101906102b79190610fc7565b6108dc565b005b6102c6610be5565b005b600560009054906101000a900460ff1681565b600080546102e89061173c565b80601f01602080910402602001604051908101604052809291908181526020018280546103149061173c565b80156103615780601f1061033657610100808354040283529160200191610361565b820191906000526020600020905b81548152906001019060200180831161034457829003601f168201915b505050505081565b600047905090565b6060600080546103809061173c565b80601f01602080910402602001604051908101604052809291908181526020018280546103ac9061173c565b80156103f95780601f106103ce576101008083540402835291602001916103f9565b820191906000526020600020905b8154815290600101906020018083116103dc57829003601f168201915b5050505050905090565b60045481565b60025481565b60015481565b600360009054906101000a900473ffffffffffffffffffffffffffffffffffffffff1673ffffffffffffffffffffffffffffffffffffffff163373ffffffffffffffffffffffffffffffffffffffff16146104a5576040517f08c379a000000000000000000000000000000000000000000000000000000000815260040161049c906113fd565b60405180910390fd5b62278d006002546104b6919061159f565b42106104f7576040517f08c379a00000000000000000000000000000000000000000000000000000000081526004016104ee9061145d565b60405180910390fd5b6001546004541415610545576000610544576040517f08c379a000000000000000000000000000000000000000000000000000000000815260040161053b906113dd565b60405180910390fd5b5b6001600560006101000a81548160ff0219169083151502179055506000600181905550600060048190555061057861057a565b565b60005b6006805490508110156106ba576000600682815481106105a05761059f611844565b5b906000526020600020906002020160000160009054906101000a900473ffffffffffffffffffffffffffffffffffffffff16905060008173ffffffffffffffffffffffffffffffffffffffff166006848154811061060157610600611844565b5b90600052602060002090600202016001015460405161061f906112d0565b60006040518083038185875af1925050503d806000811461065c576040519150601f19603f3d011682016040523d82523d6000602084013e610661565b606091505b50509050806106a5576040517f08c379a000000000000000000000000000000000000000000000000000000000815260040161069c906114dd565b60405180910390fd5b505080806106b29061176e565b91505061057d565b50600660006106c99190610f06565b565b60006008600083815260200190815260200160002060009054906101000a900473ffffffffffffffffffffffffffffffffffffffff169050919050565b600360009054906101000a900473ffffffffffffffffffffffffffffffffffffffff1681565b600360009054906101000a900473ffffffffffffffffffffffffffffffffffffffff1673ffffffffffffffffffffffffffffffffffffffff163373ffffffffffffffffffffffffffffffffffffffff16146107be576040517f08c379a00000000000000000000000000000000000000000000000000000000081526004016107b5906113fd565b60405180910390fd5b600560009054906101000a900460ff161561080e576040517f08c379a00000000000000000000000000000000000000000000000000000000081526004016108059061141d565b60405180910390fd5b62278d0060025461081f919061159f565b4211610860576040517f08c379a0000000000000000000000000000000000000000000000000000000008152600401610857906114fd565b60405180910390fd5b60015460045411156108a7576040517f08c379a000000000000000000000000000000000000000000000000000000000815260040161089e9061149d565b60405180910390fd5b6001600560006101000a81548160ff021916908315150217905550600060018190555060006004819055506108da61057a565b565b600360009054906101000a900473ffffffffffffffffffffffffffffffffffffffff1673ffffffffffffffffffffffffffffffffffffffff163373ffffffffffffffffffffffffffffffffffffffff161461096c576040517f08c379a0000000000000000000000000000000000000000000000000000000008152600401610963906113fd565b60405180910390fd5b600560009054906101000a900460ff16156109bc576040517f08c379a00000000000000000000000000000000000000000000000000000000081526004016109b39061141d565b60405180910390fd5b60008160ff161180156109d3575060648160ff1611155b610a12576040517f08c379a0000000000000000000000000000000000000000000000000000000008152600401610a099061151d565b60405180910390fd5b60015460045414610a58576040517f08c379a0000000000000000000000000000000000000000000000000000000008152600401610a4f906114bd565b60405180910390fd5b600060648260ff16600454610a6d9190611626565b610a7791906115f5565b905060045481108015610a8a5750600081115b610ac9576040517f08c379a0000000000000000000000000000000000000000000000000000000008152600401610ac09061137d565b60405180910390fd5b80600454610ad79190611680565b6004819055506000600360009054906101000a900473ffffffffffffffffffffffffffffffffffffffff1673ffffffffffffffffffffffffffffffffffffffff1682604051610b25906112d0565b60006040518083038185875af1925050503d8060008114610b62576040519150601f19603f3d011682016040523d82523d6000602084013e610b67565b606091505b5050905080610bab576040517f08c379a0000000000000000000000000000000000000000000000000000000008152600401610ba29061135d565b60405180910390fd5b7fcb36594c54e38123fa4ff1ce9db90c80bc294a2101aeea2c7b172e5a9043a69c604051610bd89061153d565b60405180910390a1505050565b600560009054906101000a900460ff1615610c35576040517f08c379a0000000000000000000000000000000000000000000000000000000008152600401610c2c9061141d565b60405180910390fd5b662386f26fc10000341015610c7f576040517f08c379a0000000000000000000000000000000000000000000000000000000008152600401610c769061147d565b60405180910390fd5b62278d00600254610c90919061159f565b421115610cd2576040517f08c379a0000000000000000000000000000000000000000000000000000000008152600401610cc99061139d565b60405180910390fd5b60015460045410610d18576040517f08c379a0000000000000000000000000000000000000000000000000000000008152600401610d0f9061133d565b60405180910390fd5b60008034905060015481600454610d2f919061159f565b1115610d4c57600454600154610d459190611680565b9050600191505b600660405180604001604052803373ffffffffffffffffffffffffffffffffffffffff16815260200183815250908060018154018082558091505060019003906000526020600020906002020160009091909190915060008201518160000160006101000a81548173ffffffffffffffffffffffffffffffffffffffff021916908373ffffffffffffffffffffffffffffffffffffffff1602179055506020820151816001015550508060046000828254610e07919061159f565b925050819055508115610ecd5760003373ffffffffffffffffffffffffffffffffffffffff168234610e399190611680565b604051610e45906112d0565b60006040518083038185875af1925050503d8060008114610e82576040519150601f19603f3d011682016040523d82523d6000602084013e610e87565b606091505b5050905080610ecb576040517f08c379a0000000000000000000000000000000000000000000000000000000008152600401610ec2906113bd565b60405180910390fd5b505b7f4f55f3ecbea395d1d7a8e069bf54ca93a2b09af83a3955e99d0e3c65c8d110f8604051610efa9061143d565b60405180910390a15050565b5080546000825560020290600052602060002090810190610f279190610f2a565b50565b5b80821115610f6c57600080820160006101000a81549073ffffffffffffffffffffffffffffffffffffffff0219169055600182016000905550600201610f2b565b5090565b600081359050610f7f81611ce7565b92915050565b600081359050610f9481611cfe565b92915050565b600060208284031215610fb057610faf611873565b5b6000610fbe84828501610f70565b91505092915050565b600060208284031215610fdd57610fdc611873565b5b6000610feb84828501610f85565b91505092915050565b610ffd816116b4565b82525050565b61100c816116c6565b82525050565b600061101d82611578565b611027818561158e565b9350611037818560208601611709565b61104081611878565b840191505092915050565b6000611058602a8361158e565b915061106382611889565b604082019050919050565b600061107b60268361158e565b9150611086826118d8565b604082019050919050565b600061109e60138361158e565b91506110a982611927565b602082019050919050565b60006110c1603f8361158e565b91506110cc82611950565b604082019050919050565b60006110e460148361158e565b91506110ef8261199f565b602082019050919050565b600061110760378361158e565b9150611112826119c8565b604082019050919050565b600061112a60338361158e565b915061113582611a17565b604082019050919050565b600061114d601c8361158e565b915061115882611a66565b602082019050919050565b600061117060168361158e565b915061117b82611a8f565b602082019050919050565b6000611193602c8361158e565b915061119e82611ab8565b604082019050919050565b60006111b660258361158e565b91506111c182611b07565b604082019050919050565b60006111d960368361158e565b91506111e482611b56565b604082019050919050565b60006111fc60248361158e565b915061120782611ba5565b604082019050919050565b600061121f600083611583565b915061122a82611bf4565b600082019050919050565b600061124260288361158e565b915061124d82611bf7565b604082019050919050565b600061126560298361158e565b915061127082611c46565b604082019050919050565b600061128860188361158e565b915061129382611c95565b602082019050919050565b60006112ab600f8361158e565b91506112b682611cbe565b602082019050919050565b6112ca816116f2565b82525050565b60006112db82611212565b9150819050919050565b60006020820190506112fa6000830184610ff4565b92915050565b60006020820190506113156000830184611003565b92915050565b600060208201905081810360008301526113358184611012565b905092915050565b600060208201905081810360008301526113568161104b565b9050919050565b600060208201905081810360008301526113768161106e565b9050919050565b6000602082019050818103600083015261139681611091565b9050919050565b600060208201905081810360008301526113b6816110b4565b9050919050565b600060208201905081810360008301526113d6816110d7565b9050919050565b600060208201905081810360008301526113f6816110fa565b9050919050565b600060208201905081810360008301526114168161111d565b9050919050565b6000602082019050818103600083015261143681611140565b9050919050565b6000602082019050818103600083015261145681611163565b9050919050565b6000602082019050818103600083015261147681611186565b9050919050565b60006020820190508181036000830152611496816111a9565b9050919050565b600060208201905081810360008301526114b6816111cc565b9050919050565b600060208201905081810360008301526114d6816111ef565b9050919050565b600060208201905081810360008301526114f681611235565b9050919050565b6000602082019050818103600083015261151681611258565b9050919050565b600060208201905081810360008301526115368161127b565b9050919050565b600060208201905081810360008301526115568161129e565b9050919050565b600060208201905061157260008301846112c1565b92915050565b600081519050919050565b600081905092915050565b600082825260208201905092915050565b60006115aa826116f2565b91506115b5836116f2565b9250827fffffffffffffffffffffffffffffffffffffffffffffffffffffffffffffffff038211156115ea576115e96117b7565b5b828201905092915050565b6000611600826116f2565b915061160b836116f2565b92508261161b5761161a6117e6565b5b828204905092915050565b6000611631826116f2565b915061163c836116f2565b9250817fffffffffffffffffffffffffffffffffffffffffffffffffffffffffffffffff0483118215151615611675576116746117b7565b5b828202905092915050565b600061168b826116f2565b9150611696836116f2565b9250828210156116a9576116a86117b7565b5b828203905092915050565b60006116bf826116d2565b9050919050565b60008115159050919050565b600073ffffffffffffffffffffffffffffffffffffffff82169050919050565b6000819050919050565b600060ff82169050919050565b60005b8381101561172757808201518184015260208101905061170c565b83811115611736576000848401525b50505050565b6000600282049050600182168061175457607f821691505b6020821081141561176857611767611815565b5b50919050565b6000611779826116f2565b91507fffffffffffffffffffffffffffffffffffffffffffffffffffffffffffffffff8214156117ac576117ab6117b7565b5b600182019050919050565b7f4e487b7100000000000000000000000000000000000000000000000000000000600052601160045260246000fd5b7f4e487b7100000000000000000000000000000000000000000000000000000000600052601260045260246000fd5b7f4e487b7100000000000000000000000000000000000000000000000000000000600052602260045260246000fd5b7f4e487b7100000000000000000000000000000000000000000000000000000000600052603260045260246000fd5b600080fd5b6000601f19601f8301169050919050565b7f476f616c20416368696576656421204e6f206d6f72652066756e64732061726560008201527f2061636365707465642e00000000000000000000000000000000000000000000602082015250565b7f5769746864726177204661696c6564203a204661696c656420746f2073656e6460008201527f2045746865720000000000000000000000000000000000000000000000000000602082015250565b7f496e73756666696369656e742046756e64732e00000000000000000000000000600082015250565b7f4572726f72212050726f6a656374206973206e6f206d6f72652061636365707460008201527f696e6720636f6e747269627574696f6e73206166746572203330206461797300602082015250565b7f4661696c656420746f2073656e64204574686572000000000000000000000000600082015250565b7f4572726f722120596f752063616e6e6f7420636c6f736520746869732070726f60008201527f6a6563742061732074686520676f616c206973206d6574000000000000000000602082015250565b7f4572726f722120596f7520617265206e6f7420746865206f776e6572206f662060008201527f7468652063757272656e742070726f6a65637400000000000000000000000000602082015250565b7f50726f6a65637420697320616c72656164792061726368696576656400000000600082015250565b7f436f6e747269627574696f6e2072656365697665642e00000000000000000000600082015250565b7f4661696c65643a2050726f6a65637420617320616c726561647920636f6d706c60008201527f6574656420333020646179730000000000000000000000000000000000000000602082015250565b7f436f6e747269627574696f6e20616d6f756e74206c657373207468616e204d6960008201527f6e696d756d000000000000000000000000000000000000000000000000000000602082015250565b7f4572726f722120596f752063616e6e6f74206661696c20746869732070726f6a60008201527f6563742061732074686520676f616c206973206d657400000000000000000000602082015250565b7f4572726f72212050726f6a65637420476f616c20686173206e6f74206265656e60008201527f206d657400000000000000000000000000000000000000000000000000000000602082015250565b50565b7f4661696c656420746f2073656e6420457468657220746f2074686520636f6e7460008201527f72696275746f7273000000000000000000000000000000000000000000000000602082015250565b7f4661696c65643a2050726f6a65637420686173206e6f7420636f6d706c65746560008201527f6420333020646179730000000000000000000000000000000000000000000000602082015250565b7f496e76616c69642050657263656e746167652056616c75650000000000000000600082015250565b7f46756e64732077697468647261776e0000000000000000000000000000000000600082015250565b611cf0816116f2565b8114611cfb57600080fd5b50565b611d07816116fc565b8114611d1257600080fd5b5056fea2646970667358221220877c805f335d28876e44546ad523392510f6dd9cfd69b5b23caca600b0f8de3064736f6c63430008070033",
  "linkReferences": {},
  "deployedLinkReferences": {}
}