{
  "_format": "hh-sol-artifact-1",
  "contractName": "Project",
  "sourceName": "contracts/KickStarterFactory.sol",
  "abi": [
    {
      "inputs": [
        {
          "internalType": "string",
          "name": "_name",
          "type": "string"
        },
        {
          "internalType": "uint256",
          "name": "_goal",
          "type": "uint256"
        },
        {
          "internalType": "address",
          "name": "_owner",
          "type": "address"
        }
      ],
      "stateMutability": "nonpayable",
      "type": "constructor"
    },
    {
      "inputs": [
        {
          "internalType": "address",
          "name": "_from",
          "type": "address"
        },
        {
          "internalType": "uint256",
          "name": "_amount",
          "type": "uint256"
        }
      ],
      "name": "addContribution",
      "outputs": [],
      "stateMutability": "nonpayable",
      "type": "function"
    },
    {
      "inputs": [],
      "name": "archive",
      "outputs": [
        {
          "internalType": "bool",
          "name": "",
          "type": "bool"
        }
      ],
      "stateMutability": "view",
      "type": "function"
    },
    {
      "inputs": [],
      "name": "close",
      "outputs": [],
      "stateMutability": "nonpayable",
      "type": "function"
    },
    {
      "inputs": [],
      "name": "created",
      "outputs": [
        {
          "internalType": "uint256",
          "name": "",
          "type": "uint256"
        }
      ],
      "stateMutability": "view",
      "type": "function"
    },
    {
      "inputs": [],
      "name": "goal",
      "outputs": [
        {
          "internalType": "uint256",
          "name": "",
          "type": "uint256"
        }
      ],
      "stateMutability": "view",
      "type": "function"
    },
    {
      "inputs": [],
      "name": "isExpired",
      "outputs": [
        {
          "internalType": "bool",
          "name": "",
          "type": "bool"
        }
      ],
      "stateMutability": "view",
      "type": "function"
    },
    {
      "inputs": [],
      "name": "name",
      "outputs": [
        {
          "internalType": "string",
          "name": "",
          "type": "string"
        }
      ],
      "stateMutability": "view",
      "type": "function"
    },
    {
      "inputs": [],
      "name": "owner",
      "outputs": [
        {
          "internalType": "address",
          "name": "",
          "type": "address"
        }
      ],
      "stateMutability": "view",
      "type": "function"
    },
    {
      "inputs": [
        {
          "internalType": "uint256",
          "name": "_amount",
          "type": "uint256"
        }
      ],
      "name": "reduceContribution",
      "outputs": [],
      "stateMutability": "nonpayable",
      "type": "function"
    },
    {
      "inputs": [],
      "name": "total",
      "outputs": [
        {
          "internalType": "uint256",
          "name": "",
          "type": "uint256"
        }
      ],
      "stateMutability": "view",
      "type": "function"
    }
  ],
  "bytecode": "0x60806040523480156200001157600080fd5b5060405162000fe038038062000fe083398181016040528101906200003791906200027c565b806000806101000a81548173ffffffffffffffffffffffffffffffffffffffff021916908373ffffffffffffffffffffffffffffffffffffffff16021790555082600190805190602001906200008f92919062000120565b50670de0b6b3a764000082620000a6919062000356565b6002819055506000600360006101000a81548160ff0219169083151502179055504260048190555080600560006101000a81548173ffffffffffffffffffffffffffffffffffffffff021916908373ffffffffffffffffffffffffffffffffffffffff16021790555060006006819055505050506200057d565b8280546200012e906200042b565b90600052602060002090601f0160209004810192826200015257600085556200019e565b82601f106200016d57805160ff19168380011785556200019e565b828001600101855582156200019e579182015b828111156200019d57825182559160200191906001019062000180565b5b509050620001ad9190620001b1565b5090565b5b80821115620001cc576000816000905550600101620001b2565b5090565b6000620001e7620001e18462000320565b620002f7565b90508281526020810184848401111562000206576200020562000529565b5b62000213848285620003f5565b509392505050565b6000815190506200022c8162000549565b92915050565b600082601f8301126200024a576200024962000524565b5b81516200025c848260208601620001d0565b91505092915050565b600081519050620002768162000563565b92915050565b60008060006060848603121562000298576200029762000533565b5b600084015167ffffffffffffffff811115620002b957620002b86200052e565b5b620002c78682870162000232565b9350506020620002da8682870162000265565b9250506040620002ed868287016200021b565b9150509250925092565b60006200030362000316565b905062000311828262000461565b919050565b6000604051905090565b600067ffffffffffffffff8211156200033e576200033d620004f5565b5b620003498262000538565b9050602081019050919050565b60006200036382620003eb565b91506200037083620003eb565b9250817fffffffffffffffffffffffffffffffffffffffffffffffffffffffffffffffff0483118215151615620003ac57620003ab62000497565b5b828202905092915050565b6000620003c482620003cb565b9050919050565b600073ffffffffffffffffffffffffffffffffffffffff82169050919050565b6000819050919050565b60005b8381101562000415578082015181840152602081019050620003f8565b8381111562000425576000848401525b50505050565b600060028204905060018216806200044457607f821691505b602082108114156200045b576200045a620004c6565b5b50919050565b6200046c8262000538565b810181811067ffffffffffffffff821117156200048e576200048d620004f5565b5b80604052505050565b7f4e487b7100000000000000000000000000000000000000000000000000000000600052601160045260246000fd5b7f4e487b7100000000000000000000000000000000000000000000000000000000600052602260045260246000fd5b7f4e487b7100000000000000000000000000000000000000000000000000000000600052604160045260246000fd5b600080fd5b600080fd5b600080fd5b600080fd5b6000601f19601f8301169050919050565b6200055481620003b7565b81146200056057600080fd5b50565b6200056e81620003eb565b81146200057a57600080fd5b50565b610a53806200058d6000396000f3fe608060405234801561001057600080fd5b506004361061009e5760003560e01c806339ecacac1161006657806339ecacac14610139578063401938831461015557806343d726d6146101735780638da5cb5b1461017d578063b2a189741461019b5761009e565b806302a21460146100a357806306fdde03146100c15780632ddbd13a146100df5780632f13b60c146100fd578063325a19f11461011b575b600080fd5b6100ab6101b7565b6040516100b891906106db565b60405180910390f35b6100c96101ca565b6040516100d691906106f6565b60405180910390f35b6100e7610258565b6040516100f49190610738565b60405180910390f35b61010561025e565b60405161011291906106db565b60405180910390f35b610123610278565b6040516101309190610738565b60405180910390f35b610153600480360381019061014e9190610592565b61027e565b005b61015d610344565b60405161016a9190610738565b60405180910390f35b61017b61034a565b005b6101856104c1565b60405161019291906106c0565b60405180910390f35b6101b560048036038101906101b091906105d2565b6104e7565b005b600360009054906101000a900460ff1681565b600180546101d79061087f565b80601f01602080910402602001604051908101604052809291908181526020018280546102039061087f565b80156102505780601f1061022557610100808354040283529160200191610250565b820191906000526020600020905b81548152906001019060200180831161023357829003601f168201915b505050505081565b60065481565b600062278d00600454610271919061077a565b4211905090565b60045481565b600760405180604001604052808473ffffffffffffffffffffffffffffffffffffffff16815260200183815250908060018154018082558091505060019003906000526020600020906002020160009091909190915060008201518160000160006101000a81548173ffffffffffffffffffffffffffffffffffffffff021916908373ffffffffffffffffffffffffffffffffffffffff1602179055506020820151816001015550508060066000828254610339919061077a565b925050819055505050565b60025481565b6001600360006101000a81548160ff021916908315150217905550600060068190555060005b6007805490508110156104b05760006007828154811061039357610392610958565b5b906000526020600020906002020160000160009054906101000a900473ffffffffffffffffffffffffffffffffffffffff1690506000808273ffffffffffffffffffffffffffffffffffffffff16600785815481106103f5576103f4610958565b5b906000526020600020906002020160010154604051610413906106ab565b60006040518083038185875af1925050503d8060008114610450576040519150601f19603f3d011682016040523d82523d6000602084013e610455565b606091505b50915091508161049a576040517f08c379a000000000000000000000000000000000000000000000000000000000815260040161049190610718565b60405180910390fd5b50505080806104a8906108b1565b915050610370565b50600760006104bf91906104fe565b565b600560009054906101000a900473ffffffffffffffffffffffffffffffffffffffff1681565b806006546104f591906107d0565b60068190555050565b508054600082556002029060005260206000209081019061051f9190610522565b50565b5b8082111561056457600080820160006101000a81549073ffffffffffffffffffffffffffffffffffffffff0219169055600182016000905550600201610523565b5090565b600081359050610577816109ef565b92915050565b60008135905061058c81610a06565b92915050565b600080604083850312156105a9576105a8610987565b5b60006105b785828601610568565b92505060206105c88582860161057d565b9150509250929050565b6000602082840312156105e8576105e7610987565b5b60006105f68482850161057d565b91505092915050565b61060881610804565b82525050565b61061781610816565b82525050565b600061062882610753565b6106328185610769565b935061064281856020860161084c565b61064b8161098c565b840191505092915050565b600061066360008361075e565b915061066e8261099d565b600082019050919050565b6000610686602883610769565b9150610691826109a0565b604082019050919050565b6106a581610842565b82525050565b60006106b682610656565b9150819050919050565b60006020820190506106d560008301846105ff565b92915050565b60006020820190506106f0600083018461060e565b92915050565b60006020820190508181036000830152610710818461061d565b905092915050565b6000602082019050818103600083015261073181610679565b9050919050565b600060208201905061074d600083018461069c565b92915050565b600081519050919050565b600081905092915050565b600082825260208201905092915050565b600061078582610842565b915061079083610842565b9250827fffffffffffffffffffffffffffffffffffffffffffffffffffffffffffffffff038211156107c5576107c46108fa565b5b828201905092915050565b60006107db82610842565b91506107e683610842565b9250828210156107f9576107f86108fa565b5b828203905092915050565b600061080f82610822565b9050919050565b60008115159050919050565b600073ffffffffffffffffffffffffffffffffffffffff82169050919050565b6000819050919050565b60005b8381101561086a57808201518184015260208101905061084f565b83811115610879576000848401525b50505050565b6000600282049050600182168061089757607f821691505b602082108114156108ab576108aa610929565b5b50919050565b60006108bc82610842565b91507fffffffffffffffffffffffffffffffffffffffffffffffffffffffffffffffff8214156108ef576108ee6108fa565b5b600182019050919050565b7f4e487b7100000000000000000000000000000000000000000000000000000000600052601160045260246000fd5b7f4e487b7100000000000000000000000000000000000000000000000000000000600052602260045260246000fd5b7f4e487b7100000000000000000000000000000000000000000000000000000000600052603260045260246000fd5b600080fd5b6000601f19601f8301169050919050565b50565b7f4661696c656420746f2073656e6420457468657220746f2074686520636f6e7460008201527f72696275746f7273000000000000000000000000000000000000000000000000602082015250565b6109f881610804565b8114610a0357600080fd5b50565b610a0f81610842565b8114610a1a57600080fd5b5056fea2646970667358221220066102a676ca71dd369b78f2fec8fbcdf12a2603e1d3c264461c81ff1c2baf9664736f6c63430008070033",
  "linkReferences": {},
  "deployedLinkReferences": {}
}