{
  "_format": "hh-sol-artifact-1",
  "contractName": "Timestamp",
  "sourceName": "contracts/TimeStamp.sol",
  "abi": [
    {
      "inputs": [],
      "name": "end",
      "outputs": [],
      "stateMutability": "nonpayable",
      "type": "function"
    },
    {
      "inputs": [],
      "name": "endDateTime",
      "outputs": [
        {
          "internalType": "uint256",
          "name": "",
          "type": "uint256"
        }
      ],
      "stateMutability": "view",
      "type": "function"
    },
    {
      "inputs": [],
      "name": "getTimeDiff",
      "outputs": [
        {
          "internalType": "uint256",
          "name": "",
          "type": "uint256"
        }
      ],
      "stateMutability": "view",
      "type": "function"
    },
    {
      "inputs": [],
      "name": "start",
      "outputs": [],
      "stateMutability": "nonpayable",
      "type": "function"
    },
    {
      "inputs": [],
      "name": "startDateTime",
      "outputs": [
        {
          "internalType": "uint256",
          "name": "",
          "type": "uint256"
        }
      ],
      "stateMutability": "view",
      "type": "function"
    }
  ],
  "bytecode": "0x608060405234801561001057600080fd5b506101cb806100206000396000f3fe608060405234801561001057600080fd5b50600436106100575760003560e01c80633c9177cd1461005c578063775f75df1461007a578063be9a655514610098578063ed22198c146100a2578063efbe1c1c146100c0575b600080fd5b6100646100ca565b604051610071919061010d565b60405180910390f35b6100826100d0565b60405161008f919061010d565b60405180910390f35b6100a06100d6565b005b6100aa6100df565b6040516100b7919061010d565b60405180910390f35b6100c86100f5565b005b60015481565b60005481565b42600081905550565b600080546001546100f09190610128565b905090565b42600181905550565b6101078161015c565b82525050565b600060208201905061012260008301846100fe565b92915050565b60006101338261015c565b915061013e8361015c565b92508282101561015157610150610166565b5b828203905092915050565b6000819050919050565b7f4e487b7100000000000000000000000000000000000000000000000000000000600052601160045260246000fdfea264697066735822122071097d258878ef6a33fb592ccb1ecf774a7d1885fb61ef7a1547fba7baf8770f64736f6c63430008070033",
  "linkReferences": {},
  "deployedLinkReferences": {}
}