{
  "_format": "hh-sol-artifact-1",
  "contractName": "KickStarter",
  "sourceName": "contracts/KickStarter.sol",
  "abi": [
    {
      "inputs": [],
      "stateMutability": "nonpayable",
      "type": "constructor"
    },
    {
      "inputs": [
        {
          "internalType": "uint256",
          "name": "projectId",
          "type": "uint256"
        },
        {
          "internalType": "uint256",
          "name": "amount",
          "type": "uint256"
        }
      ],
      "name": "contribute",
      "outputs": [],
      "stateMutability": "nonpayable",
      "type": "function"
    },
    {
      "inputs": [
        {
          "internalType": "string",
          "name": "name",
          "type": "string"
        },
        {
          "internalType": "uint256",
          "name": "fund",
          "type": "uint256"
        }
      ],
      "name": "createProject",
      "outputs": [],
      "stateMutability": "nonpayable",
      "type": "function"
    },
    {
      "inputs": [],
      "name": "getOwner",
      "outputs": [
        {
          "internalType": "address",
          "name": "",
          "type": "address"
        }
      ],
      "stateMutability": "view",
      "type": "function"
    },
    {
      "inputs": [],
      "name": "getProjects",
      "outputs": [
        {
          "components": [
            {
              "internalType": "string",
              "name": "name",
              "type": "string"
            },
            {
              "internalType": "uint256",
              "name": "fund",
              "type": "uint256"
            },
            {
              "internalType": "uint256",
              "name": "created",
              "type": "uint256"
            }
          ],
          "internalType": "struct KickStarter.Project[]",
          "name": "",
          "type": "tuple[]"
        }
      ],
      "stateMutability": "view",
      "type": "function"
    },
    {
      "inputs": [],
      "name": "getProjectsCount",
      "outputs": [
        {
          "internalType": "uint256",
          "name": "",
          "type": "uint256"
        }
      ],
      "stateMutability": "view",
      "type": "function"
    },
    {
      "inputs": [],
      "name": "getTime",
      "outputs": [
        {
          "internalType": "bool",
          "name": "",
          "type": "bool"
        }
      ],
      "stateMutability": "view",
      "type": "function"
    },
    {
      "inputs": [],
      "name": "owner",
      "outputs": [
        {
          "internalType": "address",
          "name": "",
          "type": "address"
        }
      ],
      "stateMutability": "view",
      "type": "function"
    },
    {
      "inputs": [
        {
          "internalType": "uint256",
          "name": "",
          "type": "uint256"
        }
      ],
      "name": "projects",
      "outputs": [
        {
          "internalType": "string",
          "name": "name",
          "type": "string"
        },
        {
          "internalType": "uint256",
          "name": "fund",
          "type": "uint256"
        },
        {
          "internalType": "uint256",
          "name": "created",
          "type": "uint256"
        }
      ],
      "stateMutability": "view",
      "type": "function"
    },
    {
      "inputs": [],
      "name": "withdraw",
      "outputs": [],
      "stateMutability": "nonpayable",
      "type": "function"
    }
  ],
  "bytecode": "0x608060405234801561001057600080fd5b50336000806101000a81548173ffffffffffffffffffffffffffffffffffffffff021916908373ffffffffffffffffffffffffffffffffffffffff160217905550610bcc806100606000396000f3fe608060405234801561001057600080fd5b50600436106100935760003560e01c80638c590917116100665780638c590917146101105780638da5cb5b1461012c57806391754a5d1461014a578063dcc6012814610166578063e4a8f18b1461018457610093565b8063107046bd146100985780633ccfd60b146100ca578063557ed1ba146100d4578063893d20e8146100f2575b600080fd5b6100b260048036038101906100ad919061061c565b6101a2565b6040516100c193929190610868565b60405180910390f35b6100d2610264565b005b6100dc610266565b6040516100e9919061084d565b60405180910390f35b6100fa6102b2565b6040516101079190610810565b60405180910390f35b61012a60048036038101906101259190610649565b6102db565b005b6101346102df565b6040516101419190610810565b60405180910390f35b610164600480360381019061015f91906105c0565b610303565b005b61016e610386565b60405161017b919061082b565b60405180910390f35b61018c61048b565b60405161019991906108a6565b60405180910390f35b600181815481106101b257600080fd5b90600052602060002090600302016000915090508060000180546101d590610a3b565b80601f016020809104026020016040519081016040528092919081815260200182805461020190610a3b565b801561024e5780601f106102235761010080835404028352916020019161024e565b820191906000526020600020905b81548152906001019060200180831161023157829003601f168201915b5050505050908060010154908060020154905083565b565b60006005600160008154811061027f5761027e610afc565b5b9060005260206000209060030201600201544261029c919061097d565b106102aa57600190506102af565b600090505b90565b60008060009054906101000a900473ffffffffffffffffffffffffffffffffffffffff16905090565b5050565b60008054906101000a900473ffffffffffffffffffffffffffffffffffffffff1681565b600060405180606001604052808481526020018381526020014281525090506001819080600181540180825580915050600190039060005260206000209060030201600090919091909150600082015181600001908051906020019061036a929190610498565b5060208201518160010155604082015181600201555050505050565b60606001805480602002602001604051908101604052809291908181526020016000905b8282101561048257838290600052602060002090600302016040518060600160405290816000820180546103dd90610a3b565b80601f016020809104026020016040519081016040528092919081815260200182805461040990610a3b565b80156104565780601f1061042b57610100808354040283529160200191610456565b820191906000526020600020905b81548152906001019060200180831161043957829003601f168201915b5050505050815260200160018201548152602001600282015481525050815260200190600101906103aa565b50505050905090565b6000600180549050905090565b8280546104a490610a3b565b90600052602060002090601f0160209004810192826104c6576000855561050d565b82601f106104df57805160ff191683800117855561050d565b8280016001018555821561050d579182015b8281111561050c5782518255916020019190600101906104f1565b5b50905061051a919061051e565b5090565b5b8082111561053757600081600090555060010161051f565b5090565b600061054e610549846108e6565b6108c1565b90508281526020810184848401111561056a57610569610b5f565b5b6105758482856109f9565b509392505050565b600082601f83011261059257610591610b5a565b5b81356105a284826020860161053b565b91505092915050565b6000813590506105ba81610b7f565b92915050565b600080604083850312156105d7576105d6610b69565b5b600083013567ffffffffffffffff8111156105f5576105f4610b64565b5b6106018582860161057d565b9250506020610612858286016105ab565b9150509250929050565b60006020828403121561063257610631610b69565b5b6000610640848285016105ab565b91505092915050565b600080604083850312156106605761065f610b69565b5b600061066e858286016105ab565b925050602061067f858286016105ab565b9150509250929050565b600061069583836107a2565b905092915050565b6106a6816109b1565b82525050565b60006106b782610927565b6106c1818561094a565b9350836020820285016106d385610917565b8060005b8581101561070f57848403895281516106f08582610689565b94506106fb8361093d565b925060208a019950506001810190506106d7565b50829750879550505050505092915050565b61072a816109c3565b82525050565b600061073b82610932565b610745818561095b565b9350610755818560208601610a08565b61075e81610b6e565b840191505092915050565b600061077482610932565b61077e818561096c565b935061078e818560208601610a08565b61079781610b6e565b840191505092915050565b600060608301600083015184820360008601526107bf8282610730565b91505060208301516107d460208601826107f2565b5060408301516107e760408601826107f2565b508091505092915050565b6107fb816109ef565b82525050565b61080a816109ef565b82525050565b6000602082019050610825600083018461069d565b92915050565b6000602082019050818103600083015261084581846106ac565b905092915050565b60006020820190506108626000830184610721565b92915050565b600060608201905081810360008301526108828186610769565b90506108916020830185610801565b61089e6040830184610801565b949350505050565b60006020820190506108bb6000830184610801565b92915050565b60006108cb6108dc565b90506108d78282610a6d565b919050565b6000604051905090565b600067ffffffffffffffff82111561090157610900610b2b565b5b61090a82610b6e565b9050602081019050919050565b6000819050602082019050919050565b600081519050919050565b600081519050919050565b6000602082019050919050565b600082825260208201905092915050565b600082825260208201905092915050565b600082825260208201905092915050565b6000610988826109ef565b9150610993836109ef565b9250828210156109a6576109a5610a9e565b5b828203905092915050565b60006109bc826109cf565b9050919050565b60008115159050919050565b600073ffffffffffffffffffffffffffffffffffffffff82169050919050565b6000819050919050565b82818337600083830152505050565b60005b83811015610a26578082015181840152602081019050610a0b565b83811115610a35576000848401525b50505050565b60006002820490506001821680610a5357607f821691505b60208210811415610a6757610a66610acd565b5b50919050565b610a7682610b6e565b810181811067ffffffffffffffff82111715610a9557610a94610b2b565b5b80604052505050565b7f4e487b7100000000000000000000000000000000000000000000000000000000600052601160045260246000fd5b7f4e487b7100000000000000000000000000000000000000000000000000000000600052602260045260246000fd5b7f4e487b7100000000000000000000000000000000000000000000000000000000600052603260045260246000fd5b7f4e487b7100000000000000000000000000000000000000000000000000000000600052604160045260246000fd5b600080fd5b600080fd5b600080fd5b600080fd5b6000601f19601f8301169050919050565b610b88816109ef565b8114610b9357600080fd5b5056fea26469706673582212207a9a621bc28b8225f4c9e2bad88ec9523233dff140538ba89ff7d5c05e3db48b64736f6c63430008070033",
  "linkReferences": {},
  "deployedLinkReferences": {}
}