{
  "_format": "hh-sol-artifact-1",
  "contractName": "KickStarter",
  "sourceName": "contracts/KickStarter.sol",
  "abi": [
    {
      "inputs": [],
      "stateMutability": "nonpayable",
      "type": "constructor"
    },
    {
      "inputs": [],
      "name": "cancelProject",
      "outputs": [],
      "stateMutability": "nonpayable",
      "type": "function"
    },
    {
      "inputs": [
        {
          "internalType": "uint256",
          "name": "projectId",
          "type": "uint256"
        }
      ],
      "name": "contribute",
      "outputs": [],
      "stateMutability": "payable",
      "type": "function"
    },
    {
      "inputs": [
        {
          "internalType": "string",
          "name": "name",
          "type": "string"
        },
        {
          "internalType": "uint256",
          "name": "amount",
          "type": "uint256"
        }
      ],
      "name": "createProject",
      "outputs": [],
      "stateMutability": "nonpayable",
      "type": "function"
    },
    {
      "inputs": [],
      "name": "getBalance",
      "outputs": [
        {
          "internalType": "uint256",
          "name": "",
          "type": "uint256"
        }
      ],
      "stateMutability": "view",
      "type": "function"
    },
    {
      "inputs": [
        {
          "internalType": "string",
          "name": "name",
          "type": "string"
        }
      ],
      "name": "getProject",
      "outputs": [
        {
          "internalType": "uint256",
          "name": "",
          "type": "uint256"
        }
      ],
      "stateMutability": "view",
      "type": "function"
    },
    {
      "inputs": [],
      "name": "owner",
      "outputs": [
        {
          "internalType": "address",
          "name": "",
          "type": "address"
        }
      ],
      "stateMutability": "view",
      "type": "function"
    },
    {
      "inputs": [
        {
          "internalType": "address",
          "name": "",
          "type": "address"
        }
      ],
      "name": "ownerToProjectId",
      "outputs": [
        {
          "internalType": "uint256",
          "name": "",
          "type": "uint256"
        }
      ],
      "stateMutability": "view",
      "type": "function"
    },
    {
      "inputs": [
        {
          "internalType": "uint256",
          "name": "",
          "type": "uint256"
        },
        {
          "internalType": "uint256",
          "name": "",
          "type": "uint256"
        }
      ],
      "name": "projectIdToContribution",
      "outputs": [
        {
          "internalType": "address",
          "name": "from",
          "type": "address"
        },
        {
          "internalType": "uint256",
          "name": "amount",
          "type": "uint256"
        }
      ],
      "stateMutability": "view",
      "type": "function"
    },
    {
      "inputs": [
        {
          "internalType": "uint256",
          "name": "",
          "type": "uint256"
        }
      ],
      "name": "projectIdToProject",
      "outputs": [
        {
          "internalType": "uint256",
          "name": "id",
          "type": "uint256"
        },
        {
          "internalType": "string",
          "name": "name",
          "type": "string"
        },
        {
          "internalType": "uint256",
          "name": "goal",
          "type": "uint256"
        },
        {
          "internalType": "uint256",
          "name": "created",
          "type": "uint256"
        },
        {
          "internalType": "address",
          "name": "owner",
          "type": "address"
        },
        {
          "internalType": "bool",
          "name": "archive",
          "type": "bool"
        }
      ],
      "stateMutability": "view",
      "type": "function"
    },
    {
      "inputs": [
        {
          "internalType": "uint256",
          "name": "",
          "type": "uint256"
        }
      ],
      "name": "projectIdToTotalContribution",
      "outputs": [
        {
          "internalType": "uint256",
          "name": "",
          "type": "uint256"
        }
      ],
      "stateMutability": "view",
      "type": "function"
    },
    {
      "inputs": [
        {
          "internalType": "string",
          "name": "",
          "type": "string"
        }
      ],
      "name": "projectNameToId",
      "outputs": [
        {
          "internalType": "uint256",
          "name": "",
          "type": "uint256"
        }
      ],
      "stateMutability": "view",
      "type": "function"
    },
    {
      "inputs": [
        {
          "internalType": "uint256",
          "name": "projectId",
          "type": "uint256"
        },
        {
          "internalType": "uint8",
          "name": "percentage",
          "type": "uint8"
        }
      ],
      "name": "withdraw",
      "outputs": [],
      "stateMutability": "payable",
      "type": "function"
    },
    {
      "stateMutability": "payable",
      "type": "receive"
    }
  ],
  "bytecode": "0x608060405234801561001057600080fd5b50336000806101000a81548173ffffffffffffffffffffffffffffffffffffffff021916908373ffffffffffffffffffffffffffffffffffffffff160217905550611a99806100606000396000f3fe6080604052600436106100ab5760003560e01c80638da5cb5b116100645780638da5cb5b146101f3578063903d42961461021e57806391754a5d1461023a578063b890fd8014610263578063c1cbbca7146102a0578063e3120f0b146102bc576100b2565b806301a80a03146100b757806312065fe0146100f45780631adff0ee1461011f5780634fa691e21461013657806351b16c77146101735780637b23459e146101b5576100b2565b366100b257005b600080fd5b3480156100c357600080fd5b506100de60048036038101906100d99190610f74565b6102f9565b6040516100eb9190611436565b60405180910390f35b34801561010057600080fd5b50610109610327565b6040516101169190611436565b60405180910390f35b34801561012b57600080fd5b5061013461032f565b005b34801561014257600080fd5b5061015d60048036038101906101589190610f74565b6103ab565b60405161016a9190611436565b60405180910390f35b34801561017f57600080fd5b5061019a60048036038101906101959190611019565b6103d3565b6040516101ac96959493929190611451565b60405180910390f35b3480156101c157600080fd5b506101dc60048036038101906101d79190611046565b6104c4565b6040516101ea92919061132d565b60405180910390f35b3480156101ff57600080fd5b50610208610525565b6040516102159190611312565b60405180910390f35b61023860048036038101906102339190611086565b610549565b005b34801561024657600080fd5b50610261600480360381019061025c9190610fbd565b610929565b005b34801561026f57600080fd5b5061028a60048036038101906102859190611019565b610aaf565b6040516102979190611436565b60405180910390f35b6102ba60048036038101906102b59190611019565b610ac7565b005b3480156102c857600080fd5b506102e360048036038101906102de9190610f47565b610daa565b6040516102f09190611436565b60405180910390f35b6006818051602081018201805184825260208301602085012081835280955050505050506000915090505481565b600047905090565b6000339050600060026000600560003373ffffffffffffffffffffffffffffffffffffffff1673ffffffffffffffffffffffffffffffffffffffff168152602001908152602001600020548152602001908152602001600020905060018160040160146101000a81548160ff0219169083151502179055505050565b60006006826040516103bd91906112af565b9081526020016040518091039020549050919050565b60026020528060005260406000206000915090508060000154908060010180546103fc906116ed565b80601f0160208091040260200160405190810160405280929190818152602001828054610428906116ed565b80156104755780601f1061044a57610100808354040283529160200191610475565b820191906000526020600020905b81548152906001019060200180831161045857829003601f168201915b5050505050908060020154908060030154908060040160009054906101000a900473ffffffffffffffffffffffffffffffffffffffff16908060040160149054906101000a900460ff16905086565b600360205281600052604060002081815481106104e057600080fd5b9060005260206000209060020201600091509150508060000160009054906101000a900473ffffffffffffffffffffffffffffffffffffffff16908060010154905082565b60008054906101000a900473ffffffffffffffffffffffffffffffffffffffff1681565b6000600260008481526020019081526020016000206040518060c001604052908160008201548152602001600182018054610583906116ed565b80601f01602080910402602001604051908101604052809291908181526020018280546105af906116ed565b80156105fc5780601f106105d1576101008083540402835291602001916105fc565b820191906000526020600020905b8154815290600101906020018083116105df57829003601f168201915b5050505050815260200160028201548152602001600382015481526020016004820160009054906101000a900473ffffffffffffffffffffffffffffffffffffffff1673ffffffffffffffffffffffffffffffffffffffff1673ffffffffffffffffffffffffffffffffffffffff1681526020016004820160149054906101000a900460ff1615151515815250509050600033905060648360ff1611156106d8576040517f08c379a00000000000000000000000000000000000000000000000000000000081526004016106cf90611416565b60405180910390fd5b3373ffffffffffffffffffffffffffffffffffffffff16826080015173ffffffffffffffffffffffffffffffffffffffff161461074a576040517f08c379a0000000000000000000000000000000000000000000000000000000008152600401610741906113b6565b60405180910390fd5b60026000858152602001908152602001600020600201546004600086815260200190815260200160002054146107b5576040517f08c379a00000000000000000000000000000000000000000000000000000000081526004016107ac906113f6565b60405180910390fd5b600060648460ff1660046000888152602001908152602001600020546107db91906115c8565b6107e59190611597565b90506004600086815260200190815260200160002054811061083c576040517f08c379a000000000000000000000000000000000000000000000000000000000815260040161083390611376565b60405180910390fd5b80600460008781526020019081526020016000205461085b9190611622565b60046000878152602001908152602001600020819055506000808373ffffffffffffffffffffffffffffffffffffffff1683604051610899906112c6565b60006040518083038185875af1925050503d80600081146108d6576040519150601f19603f3d011682016040523d82523d6000602084013e6108db565b606091505b509150915081610920576040517f08c379a000000000000000000000000000000000000000000000000000000000815260040161091790611396565b60405180910390fd5b50505050505050565b60006040518060c0016040528061093e610dc2565b81526020018481526020018381526020014281526020013373ffffffffffffffffffffffffffffffffffffffff1681526020016000151581525090508060026000836000015181526020019081526020016000206000820151816000015560208201518160010190805190602001906109b8929190610df5565b50604082015181600201556060820151816003015560808201518160040160006101000a81548173ffffffffffffffffffffffffffffffffffffffff021916908373ffffffffffffffffffffffffffffffffffffffff16021790555060a08201518160040160146101000a81548160ff021916908315150217905550905050806000015160068260200151604051610a5091906112af565b9081526020016040518091039020819055508060000151600560003373ffffffffffffffffffffffffffffffffffffffff1673ffffffffffffffffffffffffffffffffffffffff16815260200190815260200160002081905550505050565b60046020528060005260406000206000915090505481565b6000339050662386f26fc10000341015610b16576040517f08c379a0000000000000000000000000000000000000000000000000000000008152600401610b0d906113d6565b60405180910390fd5b6002600083815260200190815260200160002060020154600460008481526020019081526020016000205410610b81576040517f08c379a0000000000000000000000000000000000000000000000000000000008152600401610b7890611356565b60405180910390fd5b60003490506002600084815260200190815260200160002060020154816004600086815260200190815260200160002054610bbc9190611541565b1115610cbb5760046000848152602001908152602001600020546002600085815260200190815260200160002060020154610bf79190611622565b905060008134610c079190611622565b90506000808473ffffffffffffffffffffffffffffffffffffffff1683604051610c30906112c6565b60006040518083038185875af1925050503d8060008114610c6d576040519150601f19603f3d011682016040523d82523d6000602084013e610c72565b606091505b509150915081610cb7576040517f08c379a0000000000000000000000000000000000000000000000000000000008152600401610cae90611396565b60405180910390fd5b5050505b600060405180604001604052803373ffffffffffffffffffffffffffffffffffffffff1681526020018381525090506003600085815260200190815260200160002081908060018154018082558091505060019003906000526020600020906002020160009091909190915060008201518160000160006101000a81548173ffffffffffffffffffffffffffffffffffffffff021916908373ffffffffffffffffffffffffffffffffffffffff16021790555060208201518160010155505081600460008681526020019081526020016000206000828254610d9d9190611541565b9250508190555050505050565b60056020528060005260406000206000915090505481565b60004442604051602001610dd79291906112db565b6040516020818303038152906040528051906020012060001c905090565b828054610e01906116ed565b90600052602060002090601f016020900481019282610e235760008555610e6a565b82601f10610e3c57805160ff1916838001178555610e6a565b82800160010185558215610e6a579182015b82811115610e69578251825591602001919060010190610e4e565b5b509050610e779190610e7b565b5090565b5b80821115610e94576000816000905550600101610e7c565b5090565b6000610eab610ea6846114de565b6114b9565b905082815260208101848484011115610ec757610ec661181b565b5b610ed28482856116ab565b509392505050565b600081359050610ee981611a1e565b92915050565b600082601f830112610f0457610f03611816565b5b8135610f14848260208601610e98565b91505092915050565b600081359050610f2c81611a35565b92915050565b600081359050610f4181611a4c565b92915050565b600060208284031215610f5d57610f5c611825565b5b6000610f6b84828501610eda565b91505092915050565b600060208284031215610f8a57610f89611825565b5b600082013567ffffffffffffffff811115610fa857610fa7611820565b5b610fb484828501610eef565b91505092915050565b60008060408385031215610fd457610fd3611825565b5b600083013567ffffffffffffffff811115610ff257610ff1611820565b5b610ffe85828601610eef565b925050602061100f85828601610f1d565b9150509250929050565b60006020828403121561102f5761102e611825565b5b600061103d84828501610f1d565b91505092915050565b6000806040838503121561105d5761105c611825565b5b600061106b85828601610f1d565b925050602061107c85828601610f1d565b9150509250929050565b6000806040838503121561109d5761109c611825565b5b60006110ab85828601610f1d565b92505060206110bc85828601610f32565b9150509250929050565b6110cf81611656565b82525050565b6110de81611668565b82525050565b60006110ef8261150f565b6110f98185611525565b93506111098185602086016116ba565b6111128161182a565b840191505092915050565b60006111288261150f565b6111328185611536565b93506111428185602086016116ba565b80840191505092915050565b600061115b602a83611525565b91506111668261183b565b604082019050919050565b600061117e601383611525565b91506111898261188a565b602082019050919050565b60006111a1601483611525565b91506111ac826118b3565b602082019050919050565b60006111c4603383611525565b91506111cf826118dc565b604082019050919050565b60006111e7600583611536565b91506111f28261192b565b600582019050919050565b600061120a602583611525565b915061121582611954565b604082019050919050565b600061122d602483611525565b9150611238826119a3565b604082019050919050565b600061125060008361151a565b915061125b826119f2565b600082019050919050565b6000611273601883611525565b915061127e826119f5565b602082019050919050565b61129281611694565b82525050565b6112a96112a482611694565b611750565b82525050565b60006112bb828461111d565b915081905092915050565b60006112d182611243565b9150819050919050565b60006112e78285611298565b6020820191506112f78284611298565b602082019150611306826111da565b91508190509392505050565b600060208201905061132760008301846110c6565b92915050565b600060408201905061134260008301856110c6565b61134f6020830184611289565b9392505050565b6000602082019050818103600083015261136f8161114e565b9050919050565b6000602082019050818103600083015261138f81611171565b9050919050565b600060208201905081810360008301526113af81611194565b9050919050565b600060208201905081810360008301526113cf816111b7565b9050919050565b600060208201905081810360008301526113ef816111fd565b9050919050565b6000602082019050818103600083015261140f81611220565b9050919050565b6000602082019050818103600083015261142f81611266565b9050919050565b600060208201905061144b6000830184611289565b92915050565b600060c0820190506114666000830189611289565b818103602083015261147881886110e4565b90506114876040830187611289565b6114946060830186611289565b6114a160808301856110c6565b6114ae60a08301846110d5565b979650505050505050565b60006114c36114d4565b90506114cf828261171f565b919050565b6000604051905090565b600067ffffffffffffffff8211156114f9576114f86117e7565b5b6115028261182a565b9050602081019050919050565b600081519050919050565b600081905092915050565b600082825260208201905092915050565b600081905092915050565b600061154c82611694565b915061155783611694565b9250827fffffffffffffffffffffffffffffffffffffffffffffffffffffffffffffffff0382111561158c5761158b61175a565b5b828201905092915050565b60006115a282611694565b91506115ad83611694565b9250826115bd576115bc611789565b5b828204905092915050565b60006115d382611694565b91506115de83611694565b9250817fffffffffffffffffffffffffffffffffffffffffffffffffffffffffffffffff04831182151516156116175761161661175a565b5b828202905092915050565b600061162d82611694565b915061163883611694565b92508282101561164b5761164a61175a565b5b828203905092915050565b600061166182611674565b9050919050565b60008115159050919050565b600073ffffffffffffffffffffffffffffffffffffffff82169050919050565b6000819050919050565b600060ff82169050919050565b82818337600083830152505050565b60005b838110156116d85780820151818401526020810190506116bd565b838111156116e7576000848401525b50505050565b6000600282049050600182168061170557607f821691505b60208210811415611719576117186117b8565b5b50919050565b6117288261182a565b810181811067ffffffffffffffff82111715611747576117466117e7565b5b80604052505050565b6000819050919050565b7f4e487b7100000000000000000000000000000000000000000000000000000000600052601160045260246000fd5b7f4e487b7100000000000000000000000000000000000000000000000000000000600052601260045260246000fd5b7f4e487b7100000000000000000000000000000000000000000000000000000000600052602260045260246000fd5b7f4e487b7100000000000000000000000000000000000000000000000000000000600052604160045260246000fd5b600080fd5b600080fd5b600080fd5b600080fd5b6000601f19601f8301169050919050565b7f476f616c20416368696576656421204e6f206d6f72652066756e64732061726560008201527f2061636365707465642e00000000000000000000000000000000000000000000602082015250565b7f496e73756666696369656e742046756e64732e00000000000000000000000000600082015250565b7f4661696c656420746f2073656e64204574686572000000000000000000000000600082015250565b7f4572726f722120596f7520617265206e6f7420746865206f776e6572206f662060008201527f7468652063757272656e742070726f6a65637400000000000000000000000000602082015250565b7f3132343335000000000000000000000000000000000000000000000000000000600082015250565b7f436f6e747269627574696f6e20616d6f756e74206c657373207468616e204d6960008201527f6e696d756d000000000000000000000000000000000000000000000000000000602082015250565b7f4572726f72212050726f6a65637420476f616c20686173206e6f74206265656e60008201527f206d657400000000000000000000000000000000000000000000000000000000602082015250565b50565b7f496e76616c69642050657263656e746167652056616c75650000000000000000600082015250565b611a2781611656565b8114611a3257600080fd5b50565b611a3e81611694565b8114611a4957600080fd5b50565b611a558161169e565b8114611a6057600080fd5b5056fea264697066735822122038489e4981b1c2b89dc8b8b214b0d640d448dbd69263ad119715587d21751faa64736f6c63430008070033",
  "linkReferences": {},
  "deployedLinkReferences": {}
}