{
  "_format": "hh-sol-artifact-1",
  "contractName": "KickStarter",
  "sourceName": "contracts/KickStarter.sol",
  "abi": [
    {
      "inputs": [],
      "stateMutability": "nonpayable",
      "type": "constructor"
    },
    {
      "anonymous": false,
      "inputs": [
        {
          "indexed": false,
          "internalType": "string",
          "name": "message",
          "type": "string"
        }
      ],
      "name": "ProjectCreated",
      "type": "event"
    },
    {
      "inputs": [],
      "name": "archieveProjects",
      "outputs": [],
      "stateMutability": "payable",
      "type": "function"
    },
    {
      "inputs": [
        {
          "internalType": "uint256",
          "name": "projectId",
          "type": "uint256"
        }
      ],
      "name": "cancelProject",
      "outputs": [],
      "stateMutability": "payable",
      "type": "function"
    },
    {
      "inputs": [
        {
          "internalType": "uint256",
          "name": "projectId",
          "type": "uint256"
        }
      ],
      "name": "contribute",
      "outputs": [],
      "stateMutability": "payable",
      "type": "function"
    },
    {
      "inputs": [
        {
          "internalType": "string",
          "name": "name",
          "type": "string"
        },
        {
          "internalType": "uint256",
          "name": "amount",
          "type": "uint256"
        }
      ],
      "name": "createProject",
      "outputs": [],
      "stateMutability": "nonpayable",
      "type": "function"
    },
    {
      "inputs": [],
      "name": "getBalance",
      "outputs": [
        {
          "internalType": "uint256",
          "name": "",
          "type": "uint256"
        }
      ],
      "stateMutability": "view",
      "type": "function"
    },
    {
      "inputs": [
        {
          "internalType": "string",
          "name": "name",
          "type": "string"
        }
      ],
      "name": "getProject",
      "outputs": [
        {
          "internalType": "uint256",
          "name": "",
          "type": "uint256"
        }
      ],
      "stateMutability": "view",
      "type": "function"
    },
    {
      "inputs": [],
      "name": "owner",
      "outputs": [
        {
          "internalType": "address",
          "name": "",
          "type": "address"
        }
      ],
      "stateMutability": "view",
      "type": "function"
    },
    {
      "inputs": [
        {
          "internalType": "uint256",
          "name": "",
          "type": "uint256"
        },
        {
          "internalType": "uint256",
          "name": "",
          "type": "uint256"
        }
      ],
      "name": "projectIdToContributors",
      "outputs": [
        {
          "internalType": "address",
          "name": "from",
          "type": "address"
        },
        {
          "internalType": "uint256",
          "name": "amount",
          "type": "uint256"
        }
      ],
      "stateMutability": "view",
      "type": "function"
    },
    {
      "inputs": [
        {
          "internalType": "uint256",
          "name": "",
          "type": "uint256"
        }
      ],
      "name": "projectIdToProject",
      "outputs": [
        {
          "internalType": "uint256",
          "name": "id",
          "type": "uint256"
        },
        {
          "internalType": "string",
          "name": "name",
          "type": "string"
        },
        {
          "internalType": "uint256",
          "name": "goal",
          "type": "uint256"
        },
        {
          "internalType": "uint256",
          "name": "created",
          "type": "uint256"
        },
        {
          "internalType": "address",
          "name": "owner",
          "type": "address"
        },
        {
          "internalType": "bool",
          "name": "archive",
          "type": "bool"
        }
      ],
      "stateMutability": "view",
      "type": "function"
    },
    {
      "inputs": [
        {
          "internalType": "uint256",
          "name": "",
          "type": "uint256"
        }
      ],
      "name": "projectIdToTotalContribution",
      "outputs": [
        {
          "internalType": "uint256",
          "name": "",
          "type": "uint256"
        }
      ],
      "stateMutability": "view",
      "type": "function"
    },
    {
      "inputs": [
        {
          "internalType": "string",
          "name": "",
          "type": "string"
        }
      ],
      "name": "projectNameToId",
      "outputs": [
        {
          "internalType": "uint256",
          "name": "",
          "type": "uint256"
        }
      ],
      "stateMutability": "view",
      "type": "function"
    },
    {
      "inputs": [
        {
          "internalType": "uint256",
          "name": "projectId",
          "type": "uint256"
        },
        {
          "internalType": "uint8",
          "name": "percentage",
          "type": "uint8"
        }
      ],
      "name": "withdraw",
      "outputs": [],
      "stateMutability": "payable",
      "type": "function"
    },
    {
      "stateMutability": "payable",
      "type": "receive"
    }
  ],
  "bytecode": "0x608060405234801561001057600080fd5b50336000806101000a81548173ffffffffffffffffffffffffffffffffffffffff021916908373ffffffffffffffffffffffffffffffffffffffff160217905550611f3f806100606000396000f3fe6080604052600436106100ab5760003560e01c806363cf32ed1161006457806363cf32ed146101f85780638da5cb5b14610202578063903d42961461022d57806391754a5d14610249578063b890fd8014610272578063c1cbbca7146102af576100b2565b806301a80a03146100b757806312065fe0146100f4578063249411471461011f5780633bb63ab41461013b5780634fa691e21461017957806351b16c77146101b6576100b2565b366100b257005b600080fd5b3480156100c357600080fd5b506100de60048036038101906100d9919061112b565b6102cb565b6040516100eb919061173c565b60405180910390f35b34801561010057600080fd5b506101096102f9565b604051610116919061173c565b60405180910390f35b610139600480360381019061013491906111d0565b610301565b005b34801561014757600080fd5b50610162600480360381019061015d91906111fd565b61053f565b604051610170929190611593565b60405180910390f35b34801561018557600080fd5b506101a0600480360381019061019b919061112b565b6105a0565b6040516101ad919061173c565b60405180910390f35b3480156101c257600080fd5b506101dd60048036038101906101d891906111d0565b6105c8565b6040516101ef96959493929190611757565b60405180910390f35b6102006106b9565b005b34801561020e57600080fd5b50610217610749565b6040516102249190611578565b60405180910390f35b6102476004803603810190610242919061123d565b61076d565b005b34801561025557600080fd5b50610270600480360381019061026b9190611174565b610b4d565b005b34801561027e57600080fd5b50610299600480360381019061029491906111d0565b610cc0565b6040516102a6919061173c565b60405180910390f35b6102c960048036038101906102c491906111d0565b610cd8565b005b6004818051602081018201805184825260208301602085012081835280955050505050506000915090505481565b600047905090565b60006001600083815260200190815260200160002090503373ffffffffffffffffffffffffffffffffffffffff168160040160009054906101000a900473ffffffffffffffffffffffffffffffffffffffff1673ffffffffffffffffffffffffffffffffffffffff16146103aa576040517f08c379a00000000000000000000000000000000000000000000000000000000081526004016103a1906115dc565b60405180910390fd5b600060026000836000015481526020019081526020016000209050600060036000846000015481526020019081526020016000208190555060005b818054905081101561051c5760008083838154811061040757610406611b36565b5b906000526020600020906002020160000160009054906101000a900473ffffffffffffffffffffffffffffffffffffffff1673ffffffffffffffffffffffffffffffffffffffff1684848154811061046257610461611b36565b5b9060005260206000209060020201600101546040516104809061152c565b60006040518083038185875af1925050503d80600081146104bd576040519150601f19603f3d011682016040523d82523d6000602084013e6104c2565b606091505b509150915081610507576040517f08c379a00000000000000000000000000000000000000000000000000000000081526004016104fe906116fc565b60405180910390fd5b5050808061051490611a56565b9150506103e5565b5060018260040160146101000a81548160ff021916908315150217905550505050565b6002602052816000526040600020818154811061055b57600080fd5b9060005260206000209060020201600091509150508060000160009054906101000a900473ffffffffffffffffffffffffffffffffffffffff16908060010154905082565b60006004826040516105b29190611515565b9081526020016040518091039020549050919050565b60016020528060005260406000206000915090508060000154908060010180546105f1906119f3565b80601f016020809104026020016040519081016040528092919081815260200182805461061d906119f3565b801561066a5780601f1061063f5761010080835404028352916020019161066a565b820191906000526020600020905b81548152906001019060200180831161064d57829003601f168201915b5050505050908060020154908060030154908060040160009054906101000a900473ffffffffffffffffffffffffffffffffffffffff16908060040160149054906101000a900460ff16905086565b3373ffffffffffffffffffffffffffffffffffffffff1660008054906101000a900473ffffffffffffffffffffffffffffffffffffffff1673ffffffffffffffffffffffffffffffffffffffff1614610747576040517f08c379a000000000000000000000000000000000000000000000000000000000815260040161073e9061163c565b60405180910390fd5b565b60008054906101000a900473ffffffffffffffffffffffffffffffffffffffff1681565b6000600160008481526020019081526020016000206040518060c0016040529081600082015481526020016001820180546107a7906119f3565b80601f01602080910402602001604051908101604052809291908181526020018280546107d3906119f3565b80156108205780601f106107f557610100808354040283529160200191610820565b820191906000526020600020905b81548152906001019060200180831161080357829003601f168201915b5050505050815260200160028201548152602001600382015481526020016004820160009054906101000a900473ffffffffffffffffffffffffffffffffffffffff1673ffffffffffffffffffffffffffffffffffffffff1673ffffffffffffffffffffffffffffffffffffffff1681526020016004820160149054906101000a900460ff1615151515815250509050600033905060648360ff1611156108fc576040517f08c379a00000000000000000000000000000000000000000000000000000000081526004016108f39061171c565b60405180910390fd5b3373ffffffffffffffffffffffffffffffffffffffff16826080015173ffffffffffffffffffffffffffffffffffffffff161461096e576040517f08c379a00000000000000000000000000000000000000000000000000000000081526004016109659061167c565b60405180910390fd5b60016000858152602001908152602001600020600201546003600086815260200190815260200160002054146109d9576040517f08c379a00000000000000000000000000000000000000000000000000000000081526004016109d0906116bc565b60405180910390fd5b600060648460ff1660036000888152602001908152602001600020546109ff91906118ce565b610a09919061189d565b905060036000868152602001908152602001600020548110610a60576040517f08c379a0000000000000000000000000000000000000000000000000000000008152600401610a579061161c565b60405180910390fd5b806003600087815260200190815260200160002054610a7f9190611928565b60036000878152602001908152602001600020819055506000808373ffffffffffffffffffffffffffffffffffffffff1683604051610abd9061152c565b60006040518083038185875af1925050503d8060008114610afa576040519150601f19603f3d011682016040523d82523d6000602084013e610aff565b606091505b509150915081610b44576040517f08c379a0000000000000000000000000000000000000000000000000000000008152600401610b3b906115fc565b60405180910390fd5b50505050505050565b60006040518060c00160405280610b62610fbb565b81526020018481526020018381526020014281526020013373ffffffffffffffffffffffffffffffffffffffff168152602001600015158152509050806001600083600001518152602001908152602001600020600082015181600001556020820151816001019080519060200190610bdc929190610fee565b50604082015181600201556060820151816003015560808201518160040160006101000a81548173ffffffffffffffffffffffffffffffffffffffff021916908373ffffffffffffffffffffffffffffffffffffffff16021790555060a08201518160040160146101000a81548160ff021916908315150217905550905050806000015160048260200151604051610c749190611515565b9081526020016040518091039020819055507f1d9633bff7d0a58c4a25dc562a94b73474abdf064235c050de1a830462ee23fa604051610cb3906116dc565b60405180910390a1505050565b60036020528060005260406000206000915090505481565b6000339050662386f26fc10000341015610d27576040517f08c379a0000000000000000000000000000000000000000000000000000000008152600401610d1e9061169c565b60405180910390fd5b6001600083815260200190815260200160002060020154600360008481526020019081526020016000205410610d92576040517f08c379a0000000000000000000000000000000000000000000000000000000008152600401610d89906115bc565b60405180910390fd5b60003490506001600084815260200190815260200160002060020154816003600086815260200190815260200160002054610dcd9190611847565b1115610ecc5760036000848152602001908152602001600020546001600085815260200190815260200160002060020154610e089190611928565b905060008134610e189190611928565b90506000808473ffffffffffffffffffffffffffffffffffffffff1683604051610e419061152c565b60006040518083038185875af1925050503d8060008114610e7e576040519150601f19603f3d011682016040523d82523d6000602084013e610e83565b606091505b509150915081610ec8576040517f08c379a0000000000000000000000000000000000000000000000000000000008152600401610ebf9061165c565b60405180910390fd5b5050505b600060405180604001604052803373ffffffffffffffffffffffffffffffffffffffff1681526020018381525090506002600085815260200190815260200160002081908060018154018082558091505060019003906000526020600020906002020160009091909190915060008201518160000160006101000a81548173ffffffffffffffffffffffffffffffffffffffff021916908373ffffffffffffffffffffffffffffffffffffffff16021790555060208201518160010155505081600360008681526020019081526020016000206000828254610fae9190611847565b9250508190555050505050565b60004442604051602001610fd0929190611541565b6040516020818303038152906040528051906020012060001c905090565b828054610ffa906119f3565b90600052602060002090601f01602090048101928261101c5760008555611063565b82601f1061103557805160ff1916838001178555611063565b82800160010185558215611063579182015b82811115611062578251825591602001919060010190611047565b5b5090506110709190611074565b5090565b5b8082111561108d576000816000905550600101611075565b5090565b60006110a461109f846117e4565b6117bf565b9050828152602081018484840111156110c0576110bf611b99565b5b6110cb8482856119b1565b509392505050565b600082601f8301126110e8576110e7611b94565b5b81356110f8848260208601611091565b91505092915050565b60008135905061111081611edb565b92915050565b60008135905061112581611ef2565b92915050565b60006020828403121561114157611140611ba3565b5b600082013567ffffffffffffffff81111561115f5761115e611b9e565b5b61116b848285016110d3565b91505092915050565b6000806040838503121561118b5761118a611ba3565b5b600083013567ffffffffffffffff8111156111a9576111a8611b9e565b5b6111b5858286016110d3565b92505060206111c685828601611101565b9150509250929050565b6000602082840312156111e6576111e5611ba3565b5b60006111f484828501611101565b91505092915050565b6000806040838503121561121457611213611ba3565b5b600061122285828601611101565b925050602061123385828601611101565b9150509250929050565b6000806040838503121561125457611253611ba3565b5b600061126285828601611101565b925050602061127385828601611116565b9150509250929050565b6112868161195c565b82525050565b6112958161196e565b82525050565b60006112a682611815565b6112b0818561182b565b93506112c08185602086016119c0565b6112c981611ba8565b840191505092915050565b60006112df82611815565b6112e9818561183c565b93506112f98185602086016119c0565b80840191505092915050565b6000611312602a8361182b565b915061131d82611bb9565b604082019050919050565b600061133560408361182b565b915061134082611c08565b604082019050919050565b600061135860268361182b565b915061136382611c57565b604082019050919050565b600061137b60138361182b565b915061138682611ca6565b602082019050919050565b600061139e60118361182b565b91506113a982611ccf565b602082019050919050565b60006113c160148361182b565b91506113cc82611cf8565b602082019050919050565b60006113e460338361182b565b91506113ef82611d21565b604082019050919050565b600061140760058361183c565b915061141282611d70565b600582019050919050565b600061142a60258361182b565b915061143582611d99565b604082019050919050565b600061144d60248361182b565b915061145882611de8565b604082019050919050565b6000611470600f8361182b565b915061147b82611e37565b602082019050919050565b6000611493600083611820565b915061149e82611e60565b600082019050919050565b60006114b660288361182b565b91506114c182611e63565b604082019050919050565b60006114d960188361182b565b91506114e482611eb2565b602082019050919050565b6114f88161199a565b82525050565b61150f61150a8261199a565b611a9f565b82525050565b600061152182846112d4565b915081905092915050565b600061153782611486565b9150819050919050565b600061154d82856114fe565b60208201915061155d82846114fe565b60208201915061156c826113fa565b91508190509392505050565b600060208201905061158d600083018461127d565b92915050565b60006040820190506115a8600083018561127d565b6115b560208301846114ef565b9392505050565b600060208201905081810360008301526115d581611305565b9050919050565b600060208201905081810360008301526115f581611328565b9050919050565b600060208201905081810360008301526116158161134b565b9050919050565b600060208201905081810360008301526116358161136e565b9050919050565b6000602082019050818103600083015261165581611391565b9050919050565b60006020820190508181036000830152611675816113b4565b9050919050565b60006020820190508181036000830152611695816113d7565b9050919050565b600060208201905081810360008301526116b58161141d565b9050919050565b600060208201905081810360008301526116d581611440565b9050919050565b600060208201905081810360008301526116f581611463565b9050919050565b60006020820190508181036000830152611715816114a9565b9050919050565b60006020820190508181036000830152611735816114cc565b9050919050565b600060208201905061175160008301846114ef565b92915050565b600060c08201905061176c60008301896114ef565b818103602083015261177e818861129b565b905061178d60408301876114ef565b61179a60608301866114ef565b6117a7608083018561127d565b6117b460a083018461128c565b979650505050505050565b60006117c96117da565b90506117d58282611a25565b919050565b6000604051905090565b600067ffffffffffffffff8211156117ff576117fe611b65565b5b61180882611ba8565b9050602081019050919050565b600081519050919050565b600081905092915050565b600082825260208201905092915050565b600081905092915050565b60006118528261199a565b915061185d8361199a565b9250827fffffffffffffffffffffffffffffffffffffffffffffffffffffffffffffffff0382111561189257611891611aa9565b5b828201905092915050565b60006118a88261199a565b91506118b38361199a565b9250826118c3576118c2611ad8565b5b828204905092915050565b60006118d98261199a565b91506118e48361199a565b9250817fffffffffffffffffffffffffffffffffffffffffffffffffffffffffffffffff048311821515161561191d5761191c611aa9565b5b828202905092915050565b60006119338261199a565b915061193e8361199a565b92508282101561195157611950611aa9565b5b828203905092915050565b60006119678261197a565b9050919050565b60008115159050919050565b600073ffffffffffffffffffffffffffffffffffffffff82169050919050565b6000819050919050565b600060ff82169050919050565b82818337600083830152505050565b60005b838110156119de5780820151818401526020810190506119c3565b838111156119ed576000848401525b50505050565b60006002820490506001821680611a0b57607f821691505b60208210811415611a1f57611a1e611b07565b5b50919050565b611a2e82611ba8565b810181811067ffffffffffffffff82111715611a4d57611a4c611b65565b5b80604052505050565b6000611a618261199a565b91507fffffffffffffffffffffffffffffffffffffffffffffffffffffffffffffffff821415611a9457611a93611aa9565b5b600182019050919050565b6000819050919050565b7f4e487b7100000000000000000000000000000000000000000000000000000000600052601160045260246000fd5b7f4e487b7100000000000000000000000000000000000000000000000000000000600052601260045260246000fd5b7f4e487b7100000000000000000000000000000000000000000000000000000000600052602260045260246000fd5b7f4e487b7100000000000000000000000000000000000000000000000000000000600052603260045260246000fd5b7f4e487b7100000000000000000000000000000000000000000000000000000000600052604160045260246000fd5b600080fd5b600080fd5b600080fd5b600080fd5b6000601f19601f8301169050919050565b7f476f616c20416368696576656421204e6f206d6f72652066756e64732061726560008201527f2061636365707465642e00000000000000000000000000000000000000000000602082015250565b7f43616e63656c6c6174696f6e204572726f722120596f7520617265206e6f742060008201527f746865206f776e6572206f66207468652063757272656e742070726f6a656374602082015250565b7f5769746864726177204661696c6564203a204661696c656420746f2073656e6460008201527f2045746865720000000000000000000000000000000000000000000000000000602082015250565b7f496e73756666696369656e742046756e64732e00000000000000000000000000600082015250565b7f5265737472696374656420416363657373000000000000000000000000000000600082015250565b7f4661696c656420746f2073656e64204574686572000000000000000000000000600082015250565b7f4572726f722120596f7520617265206e6f7420746865206f776e6572206f662060008201527f7468652063757272656e742070726f6a65637400000000000000000000000000602082015250565b7f3132343335000000000000000000000000000000000000000000000000000000600082015250565b7f436f6e747269627574696f6e20616d6f756e74206c657373207468616e204d6960008201527f6e696d756d000000000000000000000000000000000000000000000000000000602082015250565b7f4572726f72212050726f6a65637420476f616c20686173206e6f74206265656e60008201527f206d657400000000000000000000000000000000000000000000000000000000602082015250565b7f50726f6a65637420437265617465640000000000000000000000000000000000600082015250565b50565b7f4661696c656420746f2073656e6420457468657220746f2074686520636f6e7460008201527f72696275746f7273000000000000000000000000000000000000000000000000602082015250565b7f496e76616c69642050657263656e746167652056616c75650000000000000000600082015250565b611ee48161199a565b8114611eef57600080fd5b50565b611efb816119a4565b8114611f0657600080fd5b5056fea2646970667358221220695b72a5c721365c17d0993b19bb9f9ea5f9e0c01bb35ae3db9589aaaad8e81964736f6c63430008070033",
  "linkReferences": {},
  "deployedLinkReferences": {}
}