{
  "_format": "hh-sol-artifact-1",
  "contractName": "KickStarter",
  "sourceName": "contracts/KickStarter.sol",
  "abi": [
    {
      "inputs": [],
      "stateMutability": "nonpayable",
      "type": "constructor"
    },
    {
      "inputs": [
        {
          "internalType": "uint256",
          "name": "projectId",
          "type": "uint256"
        }
      ],
      "name": "contribute",
      "outputs": [],
      "stateMutability": "payable",
      "type": "function"
    },
    {
      "inputs": [
        {
          "internalType": "string",
          "name": "name",
          "type": "string"
        },
        {
          "internalType": "uint256",
          "name": "amount",
          "type": "uint256"
        }
      ],
      "name": "createProject",
      "outputs": [],
      "stateMutability": "nonpayable",
      "type": "function"
    },
    {
      "inputs": [],
      "name": "getBalance",
      "outputs": [
        {
          "internalType": "uint256",
          "name": "",
          "type": "uint256"
        }
      ],
      "stateMutability": "view",
      "type": "function"
    },
    {
      "inputs": [],
      "name": "getMinimumContribution",
      "outputs": [
        {
          "internalType": "uint256",
          "name": "",
          "type": "uint256"
        }
      ],
      "stateMutability": "pure",
      "type": "function"
    },
    {
      "inputs": [
        {
          "internalType": "string",
          "name": "name",
          "type": "string"
        }
      ],
      "name": "getProject",
      "outputs": [
        {
          "internalType": "uint256",
          "name": "",
          "type": "uint256"
        }
      ],
      "stateMutability": "view",
      "type": "function"
    },
    {
      "inputs": [],
      "name": "owner",
      "outputs": [
        {
          "internalType": "address",
          "name": "",
          "type": "address"
        }
      ],
      "stateMutability": "view",
      "type": "function"
    },
    {
      "inputs": [
        {
          "internalType": "uint256",
          "name": "",
          "type": "uint256"
        }
      ],
      "name": "ownerToProject",
      "outputs": [
        {
          "internalType": "uint256",
          "name": "id",
          "type": "uint256"
        },
        {
          "internalType": "string",
          "name": "name",
          "type": "string"
        },
        {
          "internalType": "uint256",
          "name": "goal",
          "type": "uint256"
        },
        {
          "internalType": "uint256",
          "name": "created",
          "type": "uint256"
        },
        {
          "internalType": "address",
          "name": "owner",
          "type": "address"
        },
        {
          "internalType": "bool",
          "name": "archive",
          "type": "bool"
        }
      ],
      "stateMutability": "view",
      "type": "function"
    },
    {
      "inputs": [
        {
          "internalType": "string",
          "name": "",
          "type": "string"
        }
      ],
      "name": "projectNameToId",
      "outputs": [
        {
          "internalType": "uint256",
          "name": "",
          "type": "uint256"
        }
      ],
      "stateMutability": "view",
      "type": "function"
    },
    {
      "inputs": [
        {
          "internalType": "uint256",
          "name": "",
          "type": "uint256"
        }
      ],
      "name": "projectToContribution",
      "outputs": [
        {
          "internalType": "uint256",
          "name": "id",
          "type": "uint256"
        },
        {
          "internalType": "address",
          "name": "from",
          "type": "address"
        },
        {
          "internalType": "uint256",
          "name": "amount",
          "type": "uint256"
        }
      ],
      "stateMutability": "view",
      "type": "function"
    },
    {
      "inputs": [
        {
          "internalType": "uint256",
          "name": "projectId",
          "type": "uint256"
        },
        {
          "internalType": "uint8",
          "name": "percentage",
          "type": "uint8"
        }
      ],
      "name": "withdraw",
      "outputs": [],
      "stateMutability": "payable",
      "type": "function"
    },
    {
      "stateMutability": "payable",
      "type": "receive"
    }
  ],
  "bytecode": "0x608060405234801561001057600080fd5b50336000806101000a81548173ffffffffffffffffffffffffffffffffffffffff021916908373ffffffffffffffffffffffffffffffffffffffff1602179055506117d6806100606000396000f3fe6080604052600436106100955760003560e01c8063903d429611610059578063903d4296146101b057806391754a5d146101cc578063c1cbbca7146101f5578063e806a0e214610211578063f84038b1146102535761009c565b806301a80a03146100a157806312065fe0146100de57806349a9057d146101095780634fa691e2146101485780638da5cb5b146101855761009c565b3661009c57005b600080fd5b3480156100ad57600080fd5b506100c860048036038101906100c39190610df8565b61027e565b6040516100d591906111cb565b60405180910390f35b3480156100ea57600080fd5b506100f36102ac565b60405161010091906111cb565b60405180910390f35b34801561011557600080fd5b50610130600480360381019061012b9190610e9d565b6102b4565b60405161013f939291906111e6565b60405180910390f35b34801561015457600080fd5b5061016f600480360381019061016a9190610df8565b6102fe565b60405161017c91906111cb565b60405180910390f35b34801561019157600080fd5b5061019a610326565b6040516101a79190611110565b60405180910390f35b6101ca60048036038101906101c59190610eca565b61034a565b005b3480156101d857600080fd5b506101f360048036038101906101ee9190610e41565b6105ab565b005b61020f600480360381019061020a9190610e9d565b610716565b005b34801561021d57600080fd5b5061023860048036038101906102339190610e9d565b610b88565b60405161024a9695949392919061121d565b60405180910390f35b34801561025f57600080fd5b50610268610c79565b60405161027591906111cb565b60405180910390f35b6004818051602081018201805184825260208301602085012081835280955050505050506000915090505481565b600047905090565b60036020528060005260406000206000915090508060000154908060010160009054906101000a900473ffffffffffffffffffffffffffffffffffffffff16908060020154905083565b600060048260405161031091906110ad565b9081526020016040518091039020549050919050565b60008054906101000a900473ffffffffffffffffffffffffffffffffffffffff1681565b6000600260008481526020019081526020016000206040518060c001604052908160008201548152602001600182018054610384906114b9565b80601f01602080910402602001604051908101604052809291908181526020018280546103b0906114b9565b80156103fd5780601f106103d2576101008083540402835291602001916103fd565b820191906000526020600020905b8154815290600101906020018083116103e057829003601f168201915b5050505050815260200160028201548152602001600382015481526020016004820160009054906101000a900473ffffffffffffffffffffffffffffffffffffffff1673ffffffffffffffffffffffffffffffffffffffff1673ffffffffffffffffffffffffffffffffffffffff1681526020016004820160149054906101000a900460ff161515151581525050905060006003600085815260200190815260200160002090503373ffffffffffffffffffffffffffffffffffffffff16826080015173ffffffffffffffffffffffffffffffffffffffff1614610516576040517f08c379a000000000000000000000000000000000000000000000000000000000815260040161050d9061116b565b60405180910390fd5b601e82606001514261052891906113ee565b1015610569576040517f08c379a00000000000000000000000000000000000000000000000000000000081526004016105609061116b565b60405180910390fd5b600060648460ff1684604001516105809190611394565b61058a9190611363565b905080826002015461059c91906113ee565b82600201819055505050505050565b60006040518060c001604052806105c0610c88565b81526020018481526020018381526020014281526020013373ffffffffffffffffffffffffffffffffffffffff16815260200160001515815250905080600260008360000151815260200190815260200160002060008201518160000155602082015181600101908051906020019061063a929190610cbb565b50604082015181600201556060820151816003015560808201518160040160006101000a81548173ffffffffffffffffffffffffffffffffffffffff021916908373ffffffffffffffffffffffffffffffffffffffff16021790555060a08201518160040160146101000a81548160ff0219169083151502179055509050508060000151600482602001516040516106d291906110ad565b908152602001604051809103902081905550600181600001519080600181540180825580915050600190039060005260206000200160009091909190915055505050565b60003390506002600083815260200190815260200160002060040160149054906101000a900460ff161561077f576040517f08c379a0000000000000000000000000000000000000000000000000000000008152600401610776906111ab565b60405180910390fd5b662386f26fc100003410156107c9576040517f08c379a00000000000000000000000000000000000000000000000000000000081526004016107c09061118b565b60405180910390fd5b6002600083815260200190815260200160002060020154600360008481526020019081526020016000206002015410610837576040517f08c379a000000000000000000000000000000000000000000000000000000000815260040161082e9061112b565b60405180910390fd5b60003490506002600084815260200190815260200160002060020154816003600086815260200190815260200160002060020154610875919061130d565b111561097757600360008481526020019081526020016000206002015460026000858152602001908152602001600020600201546108b391906113ee565b9050600081346108c391906113ee565b90506000808473ffffffffffffffffffffffffffffffffffffffff16836040516108ec906110c4565b60006040518083038185875af1925050503d8060008114610929576040519150601f19603f3d011682016040523d82523d6000602084013e61092e565b606091505b509150915081610973576040517f08c379a000000000000000000000000000000000000000000000000000000000815260040161096a9061114b565b60405180910390fd5b5050505b8060036000858152602001908152602001600020600201600082825461099d919061130d565b92505081905550336003600085815260200190815260200160002060010160006101000a81548173ffffffffffffffffffffffffffffffffffffffff021916908373ffffffffffffffffffffffffffffffffffffffff160217905550600260008481526020019081526020016000206002015460036000858152602001908152602001600020600201541415610b83576000600260008581526020019081526020016000206040518060c001604052908160008201548152602001600182018054610a67906114b9565b80601f0160208091040260200160405190810160405280929190818152602001828054610a93906114b9565b8015610ae05780601f10610ab557610100808354040283529160200191610ae0565b820191906000526020600020905b815481529060010190602001808311610ac357829003601f168201915b5050505050815260200160028201548152602001600382015481526020016004820160009054906101000a900473ffffffffffffffffffffffffffffffffffffffff1673ffffffffffffffffffffffffffffffffffffffff1673ffffffffffffffffffffffffffffffffffffffff1681526020016004820160149054906101000a900460ff161515151581525050905060018160a0019015159081151581525050505b505050565b6002602052806000526040600020600091509050806000015490806001018054610bb1906114b9565b80601f0160208091040260200160405190810160405280929190818152602001828054610bdd906114b9565b8015610c2a5780601f10610bff57610100808354040283529160200191610c2a565b820191906000526020600020905b815481529060010190602001808311610c0d57829003601f168201915b5050505050908060020154908060030154908060040160009054906101000a900473ffffffffffffffffffffffffffffffffffffffff16908060040160149054906101000a900460ff16905086565b6000662386f26fc10000905090565b60004442604051602001610c9d9291906110d9565b6040516020818303038152906040528051906020012060001c905090565b828054610cc7906114b9565b90600052602060002090601f016020900481019282610ce95760008555610d30565b82601f10610d0257805160ff1916838001178555610d30565b82800160010185558215610d30579182015b82811115610d2f578251825591602001919060010190610d14565b5b509050610d3d9190610d41565b5090565b5b80821115610d5a576000816000905550600101610d42565b5090565b6000610d71610d6c846112aa565b611285565b905082815260208101848484011115610d8d57610d8c6115e7565b5b610d98848285611477565b509392505050565b600082601f830112610db557610db46115e2565b5b8135610dc5848260208601610d5e565b91505092915050565b600081359050610ddd81611772565b92915050565b600081359050610df281611789565b92915050565b600060208284031215610e0e57610e0d6115f1565b5b600082013567ffffffffffffffff811115610e2c57610e2b6115ec565b5b610e3884828501610da0565b91505092915050565b60008060408385031215610e5857610e576115f1565b5b600083013567ffffffffffffffff811115610e7657610e756115ec565b5b610e8285828601610da0565b9250506020610e9385828601610dce565b9150509250929050565b600060208284031215610eb357610eb26115f1565b5b6000610ec184828501610dce565b91505092915050565b60008060408385031215610ee157610ee06115f1565b5b6000610eef85828601610dce565b9250506020610f0085828601610de3565b9150509250929050565b610f1381611422565b82525050565b610f2281611434565b82525050565b6000610f33826112db565b610f3d81856112f1565b9350610f4d818560208601611486565b610f56816115f6565b840191505092915050565b6000610f6c826112db565b610f768185611302565b9350610f86818560208601611486565b80840191505092915050565b6000610f9f602a836112f1565b9150610faa82611607565b604082019050919050565b6000610fc26014836112f1565b9150610fcd82611656565b602082019050919050565b6000610fe56033836112f1565b9150610ff08261167f565b604082019050919050565b6000611008600583611302565b9150611013826116ce565b600582019050919050565b600061102b6025836112f1565b9150611036826116f7565b604082019050919050565b600061104e601b836112f1565b915061105982611746565b602082019050919050565b60006110716000836112e6565b915061107c8261176f565b600082019050919050565b61109081611460565b82525050565b6110a76110a282611460565b61151c565b82525050565b60006110b98284610f61565b915081905092915050565b60006110cf82611064565b9150819050919050565b60006110e58285611096565b6020820191506110f58284611096565b60208201915061110482610ffb565b91508190509392505050565b60006020820190506111256000830184610f0a565b92915050565b6000602082019050818103600083015261114481610f92565b9050919050565b6000602082019050818103600083015261116481610fb5565b9050919050565b6000602082019050818103600083015261118481610fd8565b9050919050565b600060208201905081810360008301526111a48161101e565b9050919050565b600060208201905081810360008301526111c481611041565b9050919050565b60006020820190506111e06000830184611087565b92915050565b60006060820190506111fb6000830186611087565b6112086020830185610f0a565b6112156040830184611087565b949350505050565b600060c0820190506112326000830189611087565b81810360208301526112448188610f28565b90506112536040830187611087565b6112606060830186611087565b61126d6080830185610f0a565b61127a60a0830184610f19565b979650505050505050565b600061128f6112a0565b905061129b82826114eb565b919050565b6000604051905090565b600067ffffffffffffffff8211156112c5576112c46115b3565b5b6112ce826115f6565b9050602081019050919050565b600081519050919050565b600081905092915050565b600082825260208201905092915050565b600081905092915050565b600061131882611460565b915061132383611460565b9250827fffffffffffffffffffffffffffffffffffffffffffffffffffffffffffffffff0382111561135857611357611526565b5b828201905092915050565b600061136e82611460565b915061137983611460565b92508261138957611388611555565b5b828204905092915050565b600061139f82611460565b91506113aa83611460565b9250817fffffffffffffffffffffffffffffffffffffffffffffffffffffffffffffffff04831182151516156113e3576113e2611526565b5b828202905092915050565b60006113f982611460565b915061140483611460565b92508282101561141757611416611526565b5b828203905092915050565b600061142d82611440565b9050919050565b60008115159050919050565b600073ffffffffffffffffffffffffffffffffffffffff82169050919050565b6000819050919050565b600060ff82169050919050565b82818337600083830152505050565b60005b838110156114a4578082015181840152602081019050611489565b838111156114b3576000848401525b50505050565b600060028204905060018216806114d157607f821691505b602082108114156114e5576114e4611584565b5b50919050565b6114f4826115f6565b810181811067ffffffffffffffff82111715611513576115126115b3565b5b80604052505050565b6000819050919050565b7f4e487b7100000000000000000000000000000000000000000000000000000000600052601160045260246000fd5b7f4e487b7100000000000000000000000000000000000000000000000000000000600052601260045260246000fd5b7f4e487b7100000000000000000000000000000000000000000000000000000000600052602260045260246000fd5b7f4e487b7100000000000000000000000000000000000000000000000000000000600052604160045260246000fd5b600080fd5b600080fd5b600080fd5b600080fd5b6000601f19601f8301169050919050565b7f476f616c20416368696576656421204e6f206d6f726520666f756e642061726560008201527f2061636365707465642e00000000000000000000000000000000000000000000602082015250565b7f4661696c656420746f2073656e64204574686572000000000000000000000000600082015250565b7f4572726f722120596f7520617265206e6f7420746865206f776e6572206f662060008201527f7468652063757272656e742070726f6a65637400000000000000000000000000602082015250565b7f3132343335000000000000000000000000000000000000000000000000000000600082015250565b7f436f6e747269627574696f6e20616d6f756e74206c657373207468616e204d6960008201527f6e696d756d000000000000000000000000000000000000000000000000000000602082015250565b7f50726f6a656320697320616c72656164792061726368697665642e0000000000600082015250565b50565b61177b81611460565b811461178657600080fd5b50565b6117928161146a565b811461179d57600080fd5b5056fea26469706673582212207cc7458d2b77d1c91621f494c7c4615ab41a0d1f0a243263baaf33e5c8673d5a64736f6c63430008070033",
  "linkReferences": {},
  "deployedLinkReferences": {}
}